{"contracts/coincoinNFT.sol":{"coincoinNFT_tmp":{"abi":[{"inputs":[],"stateMutability":"nonpayable","type":"constructor"},{"inputs":[{"internalType":"address","name":"sender","type":"address"},{"internalType":"uint256","name":"balance","type":"uint256"},{"internalType":"uint256","name":"needed","type":"uint256"},{"internalType":"uint256","name":"tokenId","type":"uint256"}],"name":"ERC1155InsufficientBalance","type":"error"},{"inputs":[{"internalType":"address","name":"approver","type":"address"}],"name":"ERC1155InvalidApprover","type":"error"},{"inputs":[{"internalType":"uint256","name":"idsLength","type":"uint256"},{"internalType":"uint256","name":"valuesLength","type":"uint256"}],"name":"ERC1155InvalidArrayLength","type":"error"},{"inputs":[{"internalType":"address","name":"operator","type":"address"}],"name":"ERC1155InvalidOperator","type":"error"},{"inputs":[{"internalType":"address","name":"receiver","type":"address"}],"name":"ERC1155InvalidReceiver","type":"error"},{"inputs":[{"internalType":"address","name":"sender","type":"address"}],"name":"ERC1155InvalidSender","type":"error"},{"inputs":[{"internalType":"address","name":"operator","type":"address"},{"internalType":"address","name":"owner","type":"address"}],"name":"ERC1155MissingApprovalForAll","type":"error"},{"anonymous":false,"inputs":[{"indexed":true,"internalType":"address","name":"account","type":"address"},{"indexed":true,"internalType":"address","name":"operator","type":"address"},{"indexed":false,"internalType":"bool","name":"approved","type":"bool"}],"name":"ApprovalForAll","type":"event"},{"anonymous":false,"inputs":[{"indexed":true,"internalType":"address","name":"operator","type":"address"},{"indexed":true,"internalType":"address","name":"from","type":"address"},{"indexed":true,"internalType":"address","name":"to","type":"address"},{"indexed":false,"internalType":"uint256[]","name":"ids","type":"uint256[]"},{"indexed":false,"internalType":"uint256[]","name":"values","type":"uint256[]"}],"name":"TransferBatch","type":"event"},{"anonymous":false,"inputs":[{"indexed":true,"internalType":"address","name":"operator","type":"address"},{"indexed":true,"internalType":"address","name":"from","type":"address"},{"indexed":true,"internalType":"address","name":"to","type":"address"},{"indexed":false,"internalType":"uint256","name":"id","type":"uint256"},{"indexed":false,"internalType":"uint256","name":"value","type":"uint256"}],"name":"TransferSingle","type":"event"},{"anonymous":false,"inputs":[{"indexed":false,"internalType":"string","name":"value","type":"string"},{"indexed":true,"internalType":"uint256","name":"id","type":"uint256"}],"name":"URI","type":"event"},{"inputs":[{"internalType":"address","name":"account","type":"address"},{"internalType":"uint256","name":"id","type":"uint256"}],"name":"balanceOf","outputs":[{"internalType":"uint256","name":"","type":"uint256"}],"stateMutability":"view","type":"function"},{"inputs":[{"internalType":"address[]","name":"accounts","type":"address[]"},{"internalType":"uint256[]","name":"ids","type":"uint256[]"}],"name":"balanceOfBatch","outputs":[{"internalType":"uint256[]","name":"","type":"uint256[]"}],"stateMutability":"view","type":"function"},{"inputs":[],"name":"getContractAddress","outputs":[{"internalType":"address","name":"","type":"address"}],"stateMutability":"view","type":"function"},{"inputs":[{"internalType":"address","name":"account","type":"address"},{"internalType":"address","name":"operator","type":"address"}],"name":"isApprovedForAll","outputs":[{"internalType":"bool","name":"","type":"bool"}],"stateMutability":"view","type":"function"},{"inputs":[],"name":"mintBoost","outputs":[],"stateMutability":"nonpayable","type":"function"},{"inputs":[{"internalType":"address","name":"to","type":"address"},{"internalType":"uint256","name":"number","type":"uint256"}],"name":"mintCoinCoin","outputs":[],"stateMutability":"nonpayable","type":"function"},{"inputs":[],"name":"price","outputs":[{"internalType":"uint256","name":"","type":"uint256"}],"stateMutability":"view","type":"function"},{"inputs":[{"internalType":"address","name":"from","type":"address"},{"internalType":"address","name":"to","type":"address"},{"internalType":"uint256[]","name":"ids","type":"uint256[]"},{"internalType":"uint256[]","name":"values","type":"uint256[]"},{"internalType":"bytes","name":"data","type":"bytes"}],"name":"safeBatchTransferFrom","outputs":[],"stateMutability":"nonpayable","type":"function"},{"inputs":[{"internalType":"address","name":"from","type":"address"},{"internalType":"address","name":"to","type":"address"},{"internalType":"uint256","name":"id","type":"uint256"},{"internalType":"uint256","name":"value","type":"uint256"},{"internalType":"bytes","name":"data","type":"bytes"}],"name":"safeTransferFrom","outputs":[],"stateMutability":"nonpayable","type":"function"},{"inputs":[{"internalType":"address","name":"operator","type":"address"},{"internalType":"bool","name":"approved","type":"bool"}],"name":"setApprovalForAll","outputs":[],"stateMutability":"nonpayable","type":"function"},{"inputs":[{"internalType":"bytes4","name":"interfaceId","type":"bytes4"}],"name":"supportsInterface","outputs":[{"internalType":"bool","name":"","type":"bool"}],"stateMutability":"view","type":"function"},{"inputs":[{"internalType":"uint256","name":"_tokenid","type":"uint256"}],"name":"uri","outputs":[{"internalType":"string","name":"","type":"string"}],"stateMutability":"pure","type":"function"}],"evm":{"bytecode":{"linkReferences":{},"object":"60806040523480156200001157600080fd5b506040518060800160405280605a815260200162003a95605a91396200003d816200016b60201b60201c565b506200006233600180604051806020016040528060008152506200018060201b60201c565b620000873360026001604051806020016040528060008152506200018060201b60201c565b620000ac3360036001604051806020016040528060008152506200018060201b60201c565b620000d13360046001604051806020016040528060008152506200018060201b60201c565b620000f63360056001604051806020016040528060008152506200018060201b60201c565b6200011b3360066001604051806020016040528060008152506200018060201b60201c565b620001403360076001604051806020016040528060008152506200018060201b60201c565b620001653360086001604051806020016040528060008152506200018060201b60201c565b620012bb565b80600290816200017c919062000d23565b5050565b600073ffffffffffffffffffffffffffffffffffffffff168473ffffffffffffffffffffffffffffffffffffffff1603620001f55760006040517f57f447ce000000000000000000000000000000000000000000000000000000008152600401620001ec919062000e4f565b60405180910390fd5b6000806200020a85856200022c60201b60201c565b91509150620002246000878484876200025c60201b60201c565b505050505050565b60608060405191506001825283602083015260408201905060018152826020820152604081016040529250929050565b62000270858585856200033560201b60201c565b600073ffffffffffffffffffffffffffffffffffffffff168473ffffffffffffffffffffffffffffffffffffffff16146200032e576000620002b76200070760201b60201c565b9050600184510362000315576000620002db6000866200070f60201b90919060201c565b90506000620002f56000866200070f60201b90919060201c565b90506200030d8389898585896200072360201b60201c565b50506200032c565b6200032b818787878787620008e660201b60201c565b5b505b5050505050565b80518251146200038257815181516040517f5b0599910000000000000000000000000000000000000000000000000000000081526004016200037992919062000e7d565b60405180910390fd5b6000620003946200070760201b60201c565b905060005b8351811015620005b8576000620003ba82866200070f60201b90919060201c565b90506000620003d383866200070f60201b90919060201c565b9050600073ffffffffffffffffffffffffffffffffffffffff168873ffffffffffffffffffffffffffffffffffffffff16146200050457600080600084815260200190815260200160002060008a73ffffffffffffffffffffffffffffffffffffffff1673ffffffffffffffffffffffffffffffffffffffff16815260200190815260200160002054905081811015620004ac57888183856040517f03dee4c5000000000000000000000000000000000000000000000000000000008152600401620004a3949392919062000eaa565b60405180910390fd5b81810360008085815260200190815260200160002060008b73ffffffffffffffffffffffffffffffffffffffff1673ffffffffffffffffffffffffffffffffffffffff16815260200190815260200160002081905550505b600073ffffffffffffffffffffffffffffffffffffffff168773ffffffffffffffffffffffffffffffffffffffff1614620005a2578060008084815260200190815260200160002060008973ffffffffffffffffffffffffffffffffffffffff1673ffffffffffffffffffffffffffffffffffffffff16815260200190815260200160002060008282546200059a919062000f26565b925050819055505b505080620005b09062000f61565b905062000399565b5060018351036200067f576000620005db6000856200070f60201b90919060201c565b90506000620005f56000856200070f60201b90919060201c565b90508573ffffffffffffffffffffffffffffffffffffffff168773ffffffffffffffffffffffffffffffffffffffff168473ffffffffffffffffffffffffffffffffffffffff167fc3d58168c5ae7397731d063d5bbf3d657854427343f4c083240f7aacaa2d0f6285856040516200066f92919062000e7d565b60405180910390a4505062000700565b8373ffffffffffffffffffffffffffffffffffffffff168573ffffffffffffffffffffffffffffffffffffffff168273ffffffffffffffffffffffffffffffffffffffff167f4a39dc06d4c0dbc64b70af90fd698a233a518aa5d07e595d983b8c0526c8f7fb8686604051620006f79291906200107c565b60405180910390a45b5050505050565b600033905090565b600060208202602084010151905092915050565b60008473ffffffffffffffffffffffffffffffffffffffff163b1115620008de578373ffffffffffffffffffffffffffffffffffffffff1663f23a6e6187878686866040518663ffffffff1660e01b81526004016200078795949392919062001151565b6020604051808303816000875af1925050508015620007c657506040513d601f19601f82011682018060405250810190620007c3919062001217565b60015b62000850573d8060008114620007f9576040519150601f19603f3d011682016040523d82523d6000602084013e620007fe565b606091505b5060008151036200084857846040517f57f447ce0000000000000000000000000000000000000000000000000000000081526004016200083f919062000e4f565b60405180910390fd5b805181602001fd5b63f23a6e6160e01b7bffffffffffffffffffffffffffffffffffffffffffffffffffffffff1916817bffffffffffffffffffffffffffffffffffffffffffffffffffffffff191614620008dc57846040517f57f447ce000000000000000000000000000000000000000000000000000000008152600401620008d3919062000e4f565b60405180910390fd5b505b505050505050565b60008473ffffffffffffffffffffffffffffffffffffffff163b111562000aa1578373ffffffffffffffffffffffffffffffffffffffff1663bc197c8187878686866040518663ffffffff1660e01b81526004016200094a95949392919062001249565b6020604051808303816000875af19250505080156200098957506040513d601f19601f8201168201806040525081019062000986919062001217565b60015b62000a13573d8060008114620009bc576040519150601f19603f3d011682016040523d82523d6000602084013e620009c1565b606091505b50600081510362000a0b57846040517f57f447ce00000000000000000000000000000000000000000000000000000000815260040162000a02919062000e4f565b60405180910390fd5b805181602001fd5b63bc197c8160e01b7bffffffffffffffffffffffffffffffffffffffffffffffffffffffff1916817bffffffffffffffffffffffffffffffffffffffffffffffffffffffff19161462000a9f57846040517f57f447ce00000000000000000000000000000000000000000000000000000000815260040162000a96919062000e4f565b60405180910390fd5b505b505050505050565b600081519050919050565b7f4e487b7100000000000000000000000000000000000000000000000000000000600052604160045260246000fd5b7f4e487b7100000000000000000000000000000000000000000000000000000000600052602260045260246000fd5b6000600282049050600182168062000b2b57607f821691505b60208210810362000b415762000b4062000ae3565b5b50919050565b60008190508160005260206000209050919050565b60006020601f8301049050919050565b600082821b905092915050565b60006008830262000bab7fffffffffffffffffffffffffffffffffffffffffffffffffffffffffffffffff8262000b6c565b62000bb7868362000b6c565b95508019841693508086168417925050509392505050565b6000819050919050565b6000819050919050565b600062000c0462000bfe62000bf88462000bcf565b62000bd9565b62000bcf565b9050919050565b6000819050919050565b62000c208362000be3565b62000c3862000c2f8262000c0b565b84845462000b79565b825550505050565b600090565b62000c4f62000c40565b62000c5c81848462000c15565b505050565b5b8181101562000c845762000c7860008262000c45565b60018101905062000c62565b5050565b601f82111562000cd35762000c9d8162000b47565b62000ca88462000b5c565b8101602085101562000cb8578190505b62000cd062000cc78562000b5c565b83018262000c61565b50505b505050565b600082821c905092915050565b600062000cf86000198460080262000cd8565b1980831691505092915050565b600062000d13838362000ce5565b9150826002028217905092915050565b62000d2e8262000aa9565b67ffffffffffffffff81111562000d4a5762000d4962000ab4565b5b62000d56825462000b12565b62000d6382828562000c88565b600060209050601f83116001811462000d9b576000841562000d86578287015190505b62000d92858262000d05565b86555062000e02565b601f19841662000dab8662000b47565b60005b8281101562000dd55784890151825560018201915060208501945060208101905062000dae565b8683101562000df5578489015162000df1601f89168262000ce5565b8355505b6001600288020188555050505b505050505050565b600073ffffffffffffffffffffffffffffffffffffffff82169050919050565b600062000e378262000e0a565b9050919050565b62000e498162000e2a565b82525050565b600060208201905062000e66600083018462000e3e565b92915050565b62000e778162000bcf565b82525050565b600060408201905062000e94600083018562000e6c565b62000ea3602083018462000e6c565b9392505050565b600060808201905062000ec1600083018762000e3e565b62000ed0602083018662000e6c565b62000edf604083018562000e6c565b62000eee606083018462000e6c565b95945050505050565b7f4e487b7100000000000000000000000000000000000000000000000000000000600052601160045260246000fd5b600062000f338262000bcf565b915062000f408362000bcf565b925082820190508082111562000f5b5762000f5a62000ef7565b5b92915050565b600062000f6e8262000bcf565b91507fffffffffffffffffffffffffffffffffffffffffffffffffffffffffffffffff820362000fa35762000fa262000ef7565b5b600182019050919050565b600081519050919050565b600082825260208201905092915050565b6000819050602082019050919050565b62000fe58162000bcf565b82525050565b600062000ff9838362000fda565b60208301905092915050565b6000602082019050919050565b60006200101f8262000fae565b6200102b818562000fb9565b9350620010388362000fca565b8060005b838110156200106f57815162001053888262000feb565b9750620010608362001005565b9250506001810190506200103c565b5085935050505092915050565b6000604082019050818103600083015262001098818562001012565b90508181036020830152620010ae818462001012565b90509392505050565b600081519050919050565b600082825260208201905092915050565b60005b83811015620010f3578082015181840152602081019050620010d6565b60008484015250505050565b6000601f19601f8301169050919050565b60006200111d82620010b7565b620011298185620010c2565b93506200113b818560208601620010d3565b6200114681620010ff565b840191505092915050565b600060a08201905062001168600083018862000e3e565b62001177602083018762000e3e565b62001186604083018662000e6c565b62001195606083018562000e6c565b8181036080830152620011a9818462001110565b90509695505050505050565b600080fd5b60007fffffffff0000000000000000000000000000000000000000000000000000000082169050919050565b620011f181620011ba565b8114620011fd57600080fd5b50565b6000815190506200121181620011e6565b92915050565b60006020828403121562001230576200122f620011b5565b5b6000620012408482850162001200565b91505092915050565b600060a08201905062001260600083018862000e3e565b6200126f602083018762000e3e565b818103604083015262001283818662001012565b9050818103606083015262001299818562001012565b90508181036080830152620012af818462001110565b90509695505050505050565b6127ca80620012cb6000396000f3fe608060405234801561001057600080fd5b50600436106100b35760003560e01c80634e1273f4116100715780634e1273f41461018c578063729149b2146101bc578063a035b1fe146101d8578063a22cb465146101f6578063e985e9c514610212578063f242432a14610242576100b3565b8062fdd58e146100b857806301ffc9a7146100e85780630e89341c146101185780632eb2c2d61461014857806332a2c5d0146101645780634347f83714610182575b600080fd5b6100d260048036038101906100cd919061191a565b61025e565b6040516100df9190611969565b60405180910390f35b61010260048036038101906100fd91906119dc565b6102b8565b60405161010f9190611a24565b60405180910390f35b610132600480360381019061012d9190611a3f565b61039a565b60405161013f9190611afc565b60405180910390f35b610162600480360381019061015d9190611d1b565b6103cb565b005b61016c610473565b6040516101799190611df9565b60405180910390f35b61018a61047b565b005b6101a660048036038101906101a19190611ed7565b6104ec565b6040516101b3919061200d565b60405180910390f35b6101d660048036038101906101d1919061191a565b6105fb565b005b6101e061061b565b6040516101ed9190611969565b60405180910390f35b610210600480360381019061020b919061205b565b610650565b005b61022c6004803603810190610227919061209b565b610666565b6040516102399190611a24565b60405180910390f35b61025c600480360381019061025791906120db565b6106fa565b005b600080600083815260200190815260200160002060008473ffffffffffffffffffffffffffffffffffffffff1673ffffffffffffffffffffffffffffffffffffffff16815260200190815260200160002054905092915050565b60007fd9b67a26000000000000000000000000000000000000000000000000000000007bffffffffffffffffffffffffffffffffffffffffffffffffffffffff1916827bffffffffffffffffffffffffffffffffffffffffffffffffffffffff1916148061038357507f0e89341c000000000000000000000000000000000000000000000000000000007bffffffffffffffffffffffffffffffffffffffffffffffffffffffff1916827bffffffffffffffffffffffffffffffffffffffffffffffffffffffff1916145b806103935750610392826107a2565b5b9050919050565b60606103a58261080c565b6040516020016103b59190612292565b6040516020818303038152906040529050919050565b60006103d56108da565b90508073ffffffffffffffffffffffffffffffffffffffff168673ffffffffffffffffffffffffffffffffffffffff161415801561041a57506104188682610666565b155b1561045e5780866040517fe237d9220000000000000000000000000000000000000000000000000000000081526004016104559291906122bf565b60405180910390fd5b61046b86868686866108e2565b505050505050565b600030905090565b600061048561061b565b90508061049333600861025e565b10156104d4576040517f08c379a00000000000000000000000000000000000000000000000000000000081526004016104cb90612334565b60405180910390fd5b6104dd336109da565b6104e933600883610a06565b50565b6060815183511461053857815183516040517f5b05999100000000000000000000000000000000000000000000000000000000815260040161052f929190612354565b60405180910390fd5b6000835167ffffffffffffffff81111561055557610554611b23565b5b6040519080825280602002602001820160405280156105835781602001602082028036833780820191505090505b50905060005b84518110156105f0576105c06105a88287610aad90919063ffffffff16565b6105bb8387610ac190919063ffffffff16565b61025e565b8282815181106105d3576105d261237d565b5b602002602001018181525050806105e9906123db565b9050610589565b508091505092915050565b6106178260088360405180602001604052806000815250610ad5565b5050565b6000606461062833610b6e565b60696106349190612423565b6101f46106419190612423565b61064b9190612494565b905090565b61066261065b6108da565b8383610bb8565b5050565b6000600160008473ffffffffffffffffffffffffffffffffffffffff1673ffffffffffffffffffffffffffffffffffffffff16815260200190815260200160002060008373ffffffffffffffffffffffffffffffffffffffff1673ffffffffffffffffffffffffffffffffffffffff16815260200190815260200160002060009054906101000a900460ff16905092915050565b60006107046108da565b90508073ffffffffffffffffffffffffffffffffffffffff168673ffffffffffffffffffffffffffffffffffffffff161415801561074957506107478682610666565b155b1561078d5780866040517fe237d9220000000000000000000000000000000000000000000000000000000081526004016107849291906122bf565b60405180910390fd5b61079a8686868686610d28565b505050505050565b60007f01ffc9a7000000000000000000000000000000000000000000000000000000007bffffffffffffffffffffffffffffffffffffffffffffffffffffffff1916827bffffffffffffffffffffffffffffffffffffffffffffffffffffffff1916149050919050565b60606000600161081b84610e33565b01905060008167ffffffffffffffff81111561083a57610839611b23565b5b6040519080825280601f01601f19166020018201604052801561086c5781602001600182028036833780820191505090505b509050600082602001820190505b6001156108cf578080600190039150507f3031323334353637383961626364656600000000000000000000000000000000600a86061a8153600a85816108c3576108c2612465565b5b0494506000850361087a575b819350505050919050565b600033905090565b600073ffffffffffffffffffffffffffffffffffffffff168473ffffffffffffffffffffffffffffffffffffffff16036109545760006040517f57f447ce00000000000000000000000000000000000000000000000000000000815260040161094b9190611df9565b60405180910390fd5b600073ffffffffffffffffffffffffffffffffffffffff168573ffffffffffffffffffffffffffffffffffffffff16036109c65760006040517f01a835140000000000000000000000000000000000000000000000000000000081526004016109bd9190611df9565b60405180910390fd5b6109d38585858585610f86565b5050505050565b60006109e4611038565b9050610a028282600160405180602001604052806000815250610ad5565b5050565b600073ffffffffffffffffffffffffffffffffffffffff168373ffffffffffffffffffffffffffffffffffffffff1603610a785760006040517f01a83514000000000000000000000000000000000000000000000000000000008152600401610a6f9190611df9565b60405180910390fd5b600080610a85848461112c565b91509150610aa6856000848460405180602001604052806000815250610f86565b5050505050565b600060208202602084010151905092915050565b600060208202602084010151905092915050565b600073ffffffffffffffffffffffffffffffffffffffff168473ffffffffffffffffffffffffffffffffffffffff1603610b475760006040517f57f447ce000000000000000000000000000000000000000000000000000000008152600401610b3e9190611df9565b60405180910390fd5b600080610b54858561112c565b91509150610b66600087848487610f86565b505050505050565b600080600090506000600190505b60078111610bae57610b8e848261025e565b82610b9991906124c5565b91508080610ba6906123db565b915050610b7c565b5080915050919050565b600073ffffffffffffffffffffffffffffffffffffffff168273ffffffffffffffffffffffffffffffffffffffff1603610c2a5760006040517fced3e100000000000000000000000000000000000000000000000000000000008152600401610c219190611df9565b60405180910390fd5b80600160008573ffffffffffffffffffffffffffffffffffffffff1673ffffffffffffffffffffffffffffffffffffffff16815260200190815260200160002060008473ffffffffffffffffffffffffffffffffffffffff1673ffffffffffffffffffffffffffffffffffffffff16815260200190815260200160002060006101000a81548160ff0219169083151502179055508173ffffffffffffffffffffffffffffffffffffffff168373ffffffffffffffffffffffffffffffffffffffff167f17307eab39ab6107e8899845ad3d59bd9653f200f220920489ca2b5937696c3183604051610d1b9190611a24565b60405180910390a3505050565b600073ffffffffffffffffffffffffffffffffffffffff168473ffffffffffffffffffffffffffffffffffffffff1603610d9a5760006040517f57f447ce000000000000000000000000000000000000000000000000000000008152600401610d919190611df9565b60405180910390fd5b600073ffffffffffffffffffffffffffffffffffffffff168573ffffffffffffffffffffffffffffffffffffffff1603610e0c5760006040517f01a83514000000000000000000000000000000000000000000000000000000008152600401610e039190611df9565b60405180910390fd5b600080610e19858561112c565b91509150610e2a8787848487610f86565b50505050505050565b600080600090507a184f03e93ff9f4daa797ed6e38ed64bf6a1f0100000000000000008310610e91577a184f03e93ff9f4daa797ed6e38ed64bf6a1f0100000000000000008381610e8757610e86612465565b5b0492506040810190505b6d04ee2d6d415b85acef81000000008310610ece576d04ee2d6d415b85acef81000000008381610ec457610ec3612465565b5b0492506020810190505b662386f26fc100008310610efd57662386f26fc100008381610ef357610ef2612465565b5b0492506010810190505b6305f5e1008310610f26576305f5e1008381610f1c57610f1b612465565b5b0492506008810190505b6127108310610f4b576127108381610f4157610f40612465565b5b0492506004810190505b60648310610f6e5760648381610f6457610f63612465565b5b0492506002810190505b600a8310610f7d576001810190505b80915050919050565b610f928585858561115c565b600073ffffffffffffffffffffffffffffffffffffffff168473ffffffffffffffffffffffffffffffffffffffff1614611031576000610fd06108da565b90506001845103611020576000610ff1600086610ac190919063ffffffff16565b90506000611009600086610ac190919063ffffffff16565b905061101983898985858961150a565b505061102f565b61102e8187878787876116be565b5b505b5050505050565b600080423360405160200161104e929190612562565b6040516020818303038152906040528051906020012060001c90506001606482611078919061258e565b1015611088576007915050611129565b6005606482611097919061258e565b10156110a7576006915050611129565b600c6064826110b6919061258e565b10156110c6576004915050611129565b60176064826110d5919061258e565b10156110e5576003915050611129565b60236064826110f4919061258e565b1015611104576002915050611129565b6032606482611113919061258e565b1015611123576005915050611129565b60019150505b90565b60608060405191506001825283602083015260408201905060018152826020820152604081016040529250929050565b80518251146111a657815181516040517f5b05999100000000000000000000000000000000000000000000000000000000815260040161119d929190612354565b60405180910390fd5b60006111b06108da565b905060005b83518110156113c55760006111d38286610ac190919063ffffffff16565b905060006111ea8386610ac190919063ffffffff16565b9050600073ffffffffffffffffffffffffffffffffffffffff168873ffffffffffffffffffffffffffffffffffffffff161461131757600080600084815260200190815260200160002060008a73ffffffffffffffffffffffffffffffffffffffff1673ffffffffffffffffffffffffffffffffffffffff168152602001908152602001600020549050818110156112bf57888183856040517f03dee4c50000000000000000000000000000000000000000000000000000000081526004016112b694939291906125bf565b60405180910390fd5b81810360008085815260200190815260200160002060008b73ffffffffffffffffffffffffffffffffffffffff1673ffffffffffffffffffffffffffffffffffffffff16815260200190815260200160002081905550505b600073ffffffffffffffffffffffffffffffffffffffff168773ffffffffffffffffffffffffffffffffffffffff16146113b2578060008084815260200190815260200160002060008973ffffffffffffffffffffffffffffffffffffffff1673ffffffffffffffffffffffffffffffffffffffff16815260200190815260200160002060008282546113aa91906124c5565b925050819055505b5050806113be906123db565b90506111b5565b5060018351036114845760006113e5600085610ac190919063ffffffff16565b905060006113fd600085610ac190919063ffffffff16565b90508573ffffffffffffffffffffffffffffffffffffffff168773ffffffffffffffffffffffffffffffffffffffff168473ffffffffffffffffffffffffffffffffffffffff167fc3d58168c5ae7397731d063d5bbf3d657854427343f4c083240f7aacaa2d0f628585604051611475929190612354565b60405180910390a45050611503565b8373ffffffffffffffffffffffffffffffffffffffff168573ffffffffffffffffffffffffffffffffffffffff168273ffffffffffffffffffffffffffffffffffffffff167f4a39dc06d4c0dbc64b70af90fd698a233a518aa5d07e595d983b8c0526c8f7fb86866040516114fa929190612604565b60405180910390a45b5050505050565b60008473ffffffffffffffffffffffffffffffffffffffff163b11156116b6578373ffffffffffffffffffffffffffffffffffffffff1663f23a6e6187878686866040518663ffffffff1660e01b815260040161156b959493929190612690565b6020604051808303816000875af19250505080156115a757506040513d601f19601f820116820180604052508101906115a491906126ff565b60015b61162b573d80600081146115d7576040519150601f19603f3d011682016040523d82523d6000602084013e6115dc565b606091505b50600081510361162357846040517f57f447ce00000000000000000000000000000000000000000000000000000000815260040161161a9190611df9565b60405180910390fd5b805181602001fd5b63f23a6e6160e01b7bffffffffffffffffffffffffffffffffffffffffffffffffffffffff1916817bffffffffffffffffffffffffffffffffffffffffffffffffffffffff1916146116b457846040517f57f447ce0000000000000000000000000000000000000000000000000000000081526004016116ab9190611df9565b60405180910390fd5b505b505050505050565b60008473ffffffffffffffffffffffffffffffffffffffff163b111561186a578373ffffffffffffffffffffffffffffffffffffffff1663bc197c8187878686866040518663ffffffff1660e01b815260040161171f95949392919061272c565b6020604051808303816000875af192505050801561175b57506040513d601f19601f8201168201806040525081019061175891906126ff565b60015b6117df573d806000811461178b576040519150601f19603f3d011682016040523d82523d6000602084013e611790565b606091505b5060008151036117d757846040517f57f447ce0000000000000000000000000000000000000000000000000000000081526004016117ce9190611df9565b60405180910390fd5b805181602001fd5b63bc197c8160e01b7bffffffffffffffffffffffffffffffffffffffffffffffffffffffff1916817bffffffffffffffffffffffffffffffffffffffffffffffffffffffff19161461186857846040517f57f447ce00000000000000000000000000000000000000000000000000000000815260040161185f9190611df9565b60405180910390fd5b505b505050505050565b6000604051905090565b600080fd5b600080fd5b600073ffffffffffffffffffffffffffffffffffffffff82169050919050565b60006118b182611886565b9050919050565b6118c1816118a6565b81146118cc57600080fd5b50565b6000813590506118de816118b8565b92915050565b6000819050919050565b6118f7816118e4565b811461190257600080fd5b50565b600081359050611914816118ee565b92915050565b600080604083850312156119315761193061187c565b5b600061193f858286016118cf565b925050602061195085828601611905565b9150509250929050565b611963816118e4565b82525050565b600060208201905061197e600083018461195a565b92915050565b60007fffffffff0000000000000000000000000000000000000000000000000000000082169050919050565b6119b981611984565b81146119c457600080fd5b50565b6000813590506119d6816119b0565b92915050565b6000602082840312156119f2576119f161187c565b5b6000611a00848285016119c7565b91505092915050565b60008115159050919050565b611a1e81611a09565b82525050565b6000602082019050611a396000830184611a15565b92915050565b600060208284031215611a5557611a5461187c565b5b6000611a6384828501611905565b91505092915050565b600081519050919050565b600082825260208201905092915050565b60005b83811015611aa6578082015181840152602081019050611a8b565b60008484015250505050565b6000601f19601f8301169050919050565b6000611ace82611a6c565b611ad88185611a77565b9350611ae8818560208601611a88565b611af181611ab2565b840191505092915050565b60006020820190508181036000830152611b168184611ac3565b905092915050565b600080fd5b7f4e487b7100000000000000000000000000000000000000000000000000000000600052604160045260246000fd5b611b5b82611ab2565b810181811067ffffffffffffffff82111715611b7a57611b79611b23565b5b80604052505050565b6000611b8d611872565b9050611b998282611b52565b919050565b600067ffffffffffffffff821115611bb957611bb8611b23565b5b602082029050602081019050919050565b600080fd5b6000611be2611bdd84611b9e565b611b83565b90508083825260208201905060208402830185811115611c0557611c04611bca565b5b835b81811015611c2e5780611c1a8882611905565b845260208401935050602081019050611c07565b5050509392505050565b600082601f830112611c4d57611c4c611b1e565b5b8135611c5d848260208601611bcf565b91505092915050565b600080fd5b600067ffffffffffffffff821115611c8657611c85611b23565b5b611c8f82611ab2565b9050602081019050919050565b82818337600083830152505050565b6000611cbe611cb984611c6b565b611b83565b905082815260208101848484011115611cda57611cd9611c66565b5b611ce5848285611c9c565b509392505050565b600082601f830112611d0257611d01611b1e565b5b8135611d12848260208601611cab565b91505092915050565b600080600080600060a08688031215611d3757611d3661187c565b5b6000611d45888289016118cf565b9550506020611d56888289016118cf565b945050604086013567ffffffffffffffff811115611d7757611d76611881565b5b611d8388828901611c38565b935050606086013567ffffffffffffffff811115611da457611da3611881565b5b611db088828901611c38565b925050608086013567ffffffffffffffff811115611dd157611dd0611881565b5b611ddd88828901611ced565b9150509295509295909350565b611df3816118a6565b82525050565b6000602082019050611e0e6000830184611dea565b92915050565b600067ffffffffffffffff821115611e2f57611e2e611b23565b5b602082029050602081019050919050565b6000611e53611e4e84611e14565b611b83565b90508083825260208201905060208402830185811115611e7657611e75611bca565b5b835b81811015611e9f5780611e8b88826118cf565b845260208401935050602081019050611e78565b5050509392505050565b600082601f830112611ebe57611ebd611b1e565b5b8135611ece848260208601611e40565b91505092915050565b60008060408385031215611eee57611eed61187c565b5b600083013567ffffffffffffffff811115611f0c57611f0b611881565b5b611f1885828601611ea9565b925050602083013567ffffffffffffffff811115611f3957611f38611881565b5b611f4585828601611c38565b9150509250929050565b600081519050919050565b600082825260208201905092915050565b6000819050602082019050919050565b611f84816118e4565b82525050565b6000611f968383611f7b565b60208301905092915050565b6000602082019050919050565b6000611fba82611f4f565b611fc48185611f5a565b9350611fcf83611f6b565b8060005b83811015612000578151611fe78882611f8a565b9750611ff283611fa2565b925050600181019050611fd3565b5085935050505092915050565b600060208201905081810360008301526120278184611faf565b905092915050565b61203881611a09565b811461204357600080fd5b50565b6000813590506120558161202f565b92915050565b600080604083850312156120725761207161187c565b5b6000612080858286016118cf565b925050602061209185828601612046565b9150509250929050565b600080604083850312156120b2576120b161187c565b5b60006120c0858286016118cf565b92505060206120d1858286016118cf565b9150509250929050565b600080600080600060a086880312156120f7576120f661187c565b5b6000612105888289016118cf565b9550506020612116888289016118cf565b945050604061212788828901611905565b935050606061213888828901611905565b925050608086013567ffffffffffffffff81111561215957612158611881565b5b61216588828901611ced565b9150509295509295909350565b600081905092915050565b7f68747470733a2f2f697066732e696f2f697066732f626166796265696269786260008201527f7a64366c786d637267756c736c62627269757134617a636b6370356a6368737360208201527f37756f3271706d36796b77787767776d2f000000000000000000000000000000604082015250565b60006121ff605183612172565b915061220a8261217d565b605182019050919050565b600061222082611a6c565b61222a8185612172565b935061223a818560208601611a88565b80840191505092915050565b7f2e6a736f6e000000000000000000000000000000000000000000000000000000600082015250565b600061227c600583612172565b915061228782612246565b600582019050919050565b600061229d826121f2565b91506122a98284612215565b91506122b48261226f565b915081905092915050565b60006040820190506122d46000830185611dea565b6122e16020830184611dea565b9392505050565b7f4e6f7420656e6f75676820636f696e636f696e20746f6b656e73000000000000600082015250565b600061231e601a83611a77565b9150612329826122e8565b602082019050919050565b6000602082019050818103600083015261234d81612311565b9050919050565b6000604082019050612369600083018561195a565b612376602083018461195a565b9392505050565b7f4e487b7100000000000000000000000000000000000000000000000000000000600052603260045260246000fd5b7f4e487b7100000000000000000000000000000000000000000000000000000000600052601160045260246000fd5b60006123e6826118e4565b91507fffffffffffffffffffffffffffffffffffffffffffffffffffffffffffffffff8203612418576124176123ac565b5b600182019050919050565b600061242e826118e4565b9150612439836118e4565b9250828202612447816118e4565b9150828204841483151761245e5761245d6123ac565b5b5092915050565b7f4e487b7100000000000000000000000000000000000000000000000000000000600052601260045260246000fd5b600061249f826118e4565b91506124aa836118e4565b9250826124ba576124b9612465565b5b828204905092915050565b60006124d0826118e4565b91506124db836118e4565b92508282019050808211156124f3576124f26123ac565b5b92915050565b6000819050919050565b61251461250f826118e4565b6124f9565b82525050565b60008160601b9050919050565b60006125328261251a565b9050919050565b600061254482612527565b9050919050565b61255c612557826118a6565b612539565b82525050565b600061256e8285612503565b60208201915061257e828461254b565b6014820191508190509392505050565b6000612599826118e4565b91506125a4836118e4565b9250826125b4576125b3612465565b5b828206905092915050565b60006080820190506125d46000830187611dea565b6125e1602083018661195a565b6125ee604083018561195a565b6125fb606083018461195a565b95945050505050565b6000604082019050818103600083015261261e8185611faf565b905081810360208301526126328184611faf565b90509392505050565b600081519050919050565b600082825260208201905092915050565b60006126628261263b565b61266c8185612646565b935061267c818560208601611a88565b61268581611ab2565b840191505092915050565b600060a0820190506126a56000830188611dea565b6126b26020830187611dea565b6126bf604083018661195a565b6126cc606083018561195a565b81810360808301526126de8184612657565b90509695505050505050565b6000815190506126f9816119b0565b92915050565b6000602082840312156127155761271461187c565b5b6000612723848285016126ea565b91505092915050565b600060a0820190506127416000830188611dea565b61274e6020830187611dea565b81810360408301526127608186611faf565b905081810360608301526127748185611faf565b905081810360808301526127888184612657565b9050969550505050505056fea26469706673582212202f301342de294e77d3ad1771f0103a930aacd0ed58349b4237a9efe7f861455764736f6c6343000814003368747470733a2f2f697066732e696f2f697066732f62616679626569626978627a64366c786d637267756c736c62627269757134617a636b6370356a6368737337756f3271706d36796b77787767776d2f7b69647d2e6a736f6e","opcodes":"PUSH1 0x80 PUSH1 0x40 MSTORE CALLVALUE DUP1 ISZERO PUSH3 0x11 JUMPI PUSH1 0x0 DUP1 REVERT JUMPDEST POP PUSH1 0x40 MLOAD DUP1 PUSH1 0x80 ADD PUSH1 0x40 MSTORE DUP1 PUSH1 0x5A DUP2 MSTORE PUSH1 0x20 ADD PUSH3 0x3A95 PUSH1 0x5A SWAP2 CODECOPY PUSH3 0x3D DUP2 PUSH3 0x16B PUSH1 0x20 SHL PUSH1 0x20 SHR JUMP JUMPDEST POP PUSH3 0x62 CALLER PUSH1 0x1 DUP1 PUSH1 0x40 MLOAD DUP1 PUSH1 0x20 ADD PUSH1 0x40 MSTORE DUP1 PUSH1 0x0 DUP2 MSTORE POP PUSH3 0x180 PUSH1 0x20 SHL PUSH1 0x20 SHR JUMP JUMPDEST PUSH3 0x87 CALLER PUSH1 0x2 PUSH1 0x1 PUSH1 0x40 MLOAD DUP1 PUSH1 0x20 ADD PUSH1 0x40 MSTORE DUP1 PUSH1 0x0 DUP2 MSTORE POP PUSH3 0x180 PUSH1 0x20 SHL PUSH1 0x20 SHR JUMP JUMPDEST PUSH3 0xAC CALLER PUSH1 0x3 PUSH1 0x1 PUSH1 0x40 MLOAD DUP1 PUSH1 0x20 ADD PUSH1 0x40 MSTORE DUP1 PUSH1 0x0 DUP2 MSTORE POP PUSH3 0x180 PUSH1 0x20 SHL PUSH1 0x20 SHR JUMP JUMPDEST PUSH3 0xD1 CALLER PUSH1 0x4 PUSH1 0x1 PUSH1 0x40 MLOAD DUP1 PUSH1 0x20 ADD PUSH1 0x40 MSTORE DUP1 PUSH1 0x0 DUP2 MSTORE POP PUSH3 0x180 PUSH1 0x20 SHL PUSH1 0x20 SHR JUMP JUMPDEST PUSH3 0xF6 CALLER PUSH1 0x5 PUSH1 0x1 PUSH1 0x40 MLOAD DUP1 PUSH1 0x20 ADD PUSH1 0x40 MSTORE DUP1 PUSH1 0x0 DUP2 MSTORE POP PUSH3 0x180 PUSH1 0x20 SHL PUSH1 0x20 SHR JUMP JUMPDEST PUSH3 0x11B CALLER PUSH1 0x6 PUSH1 0x1 PUSH1 0x40 MLOAD DUP1 PUSH1 0x20 ADD PUSH1 0x40 MSTORE DUP1 PUSH1 0x0 DUP2 MSTORE POP PUSH3 0x180 PUSH1 0x20 SHL PUSH1 0x20 SHR JUMP JUMPDEST PUSH3 0x140 CALLER PUSH1 0x7 PUSH1 0x1 PUSH1 0x40 MLOAD DUP1 PUSH1 0x20 ADD PUSH1 0x40 MSTORE DUP1 PUSH1 0x0 DUP2 MSTORE POP PUSH3 0x180 PUSH1 0x20 SHL PUSH1 0x20 SHR JUMP JUMPDEST PUSH3 0x165 CALLER PUSH1 0x8 PUSH1 0x1 PUSH1 0x40 MLOAD DUP1 PUSH1 0x20 ADD PUSH1 0x40 MSTORE DUP1 PUSH1 0x0 DUP2 MSTORE POP PUSH3 0x180 PUSH1 0x20 SHL PUSH1 0x20 SHR JUMP JUMPDEST PUSH3 0x12BB JUMP JUMPDEST DUP1 PUSH1 0x2 SWAP1 DUP2 PUSH3 0x17C SWAP2 SWAP1 PUSH3 0xD23 JUMP JUMPDEST POP POP JUMP JUMPDEST PUSH1 0x0 PUSH20 0xFFFFFFFFFFFFFFFFFFFFFFFFFFFFFFFFFFFFFFFF AND DUP5 PUSH20 0xFFFFFFFFFFFFFFFFFFFFFFFFFFFFFFFFFFFFFFFF AND SUB PUSH3 0x1F5 JUMPI PUSH1 0x0 PUSH1 0x40 MLOAD PUSH32 0x57F447CE00000000000000000000000000000000000000000000000000000000 DUP2 MSTORE PUSH1 0x4 ADD PUSH3 0x1EC SWAP2 SWAP1 PUSH3 0xE4F JUMP JUMPDEST PUSH1 0x40 MLOAD DUP1 SWAP2 SUB SWAP1 REVERT JUMPDEST PUSH1 0x0 DUP1 PUSH3 0x20A DUP6 DUP6 PUSH3 0x22C PUSH1 0x20 SHL PUSH1 0x20 SHR JUMP JUMPDEST SWAP2 POP SWAP2 POP PUSH3 0x224 PUSH1 0x0 DUP8 DUP5 DUP5 DUP8 PUSH3 0x25C PUSH1 0x20 SHL PUSH1 0x20 SHR JUMP JUMPDEST POP POP POP POP POP POP JUMP JUMPDEST PUSH1 0x60 DUP1 PUSH1 0x40 MLOAD SWAP2 POP PUSH1 0x1 DUP3 MSTORE DUP4 PUSH1 0x20 DUP4 ADD MSTORE PUSH1 0x40 DUP3 ADD SWAP1 POP PUSH1 0x1 DUP2 MSTORE DUP3 PUSH1 0x20 DUP3 ADD MSTORE PUSH1 0x40 DUP2 ADD PUSH1 0x40 MSTORE SWAP3 POP SWAP3 SWAP1 POP JUMP JUMPDEST PUSH3 0x270 DUP6 DUP6 DUP6 DUP6 PUSH3 0x335 PUSH1 0x20 SHL PUSH1 0x20 SHR JUMP JUMPDEST PUSH1 0x0 PUSH20 0xFFFFFFFFFFFFFFFFFFFFFFFFFFFFFFFFFFFFFFFF AND DUP5 PUSH20 0xFFFFFFFFFFFFFFFFFFFFFFFFFFFFFFFFFFFFFFFF AND EQ PUSH3 0x32E JUMPI PUSH1 0x0 PUSH3 0x2B7 PUSH3 0x707 PUSH1 0x20 SHL PUSH1 0x20 SHR JUMP JUMPDEST SWAP1 POP PUSH1 0x1 DUP5 MLOAD SUB PUSH3 0x315 JUMPI PUSH1 0x0 PUSH3 0x2DB PUSH1 0x0 DUP7 PUSH3 0x70F PUSH1 0x20 SHL SWAP1 SWAP2 SWAP1 PUSH1 0x20 SHR JUMP JUMPDEST SWAP1 POP PUSH1 0x0 PUSH3 0x2F5 PUSH1 0x0 DUP7 PUSH3 0x70F PUSH1 0x20 SHL SWAP1 SWAP2 SWAP1 PUSH1 0x20 SHR JUMP JUMPDEST SWAP1 POP PUSH3 0x30D DUP4 DUP10 DUP10 DUP6 DUP6 DUP10 PUSH3 0x723 PUSH1 0x20 SHL PUSH1 0x20 SHR JUMP JUMPDEST POP POP PUSH3 0x32C JUMP JUMPDEST PUSH3 0x32B DUP2 DUP8 DUP8 DUP8 DUP8 DUP8 PUSH3 0x8E6 PUSH1 0x20 SHL PUSH1 0x20 SHR JUMP JUMPDEST JUMPDEST POP JUMPDEST POP POP POP POP POP JUMP JUMPDEST DUP1 MLOAD DUP3 MLOAD EQ PUSH3 0x382 JUMPI DUP2 MLOAD DUP2 MLOAD PUSH1 0x40 MLOAD PUSH32 0x5B05999100000000000000000000000000000000000000000000000000000000 DUP2 MSTORE PUSH1 0x4 ADD PUSH3 0x379 SWAP3 SWAP2 SWAP1 PUSH3 0xE7D JUMP JUMPDEST PUSH1 0x40 MLOAD DUP1 SWAP2 SUB SWAP1 REVERT JUMPDEST PUSH1 0x0 PUSH3 0x394 PUSH3 0x707 PUSH1 0x20 SHL PUSH1 0x20 SHR JUMP JUMPDEST SWAP1 POP PUSH1 0x0 JUMPDEST DUP4 MLOAD DUP2 LT ISZERO PUSH3 0x5B8 JUMPI PUSH1 0x0 PUSH3 0x3BA DUP3 DUP7 PUSH3 0x70F PUSH1 0x20 SHL SWAP1 SWAP2 SWAP1 PUSH1 0x20 SHR JUMP JUMPDEST SWAP1 POP PUSH1 0x0 PUSH3 0x3D3 DUP4 DUP7 PUSH3 0x70F PUSH1 0x20 SHL SWAP1 SWAP2 SWAP1 PUSH1 0x20 SHR JUMP JUMPDEST SWAP1 POP PUSH1 0x0 PUSH20 0xFFFFFFFFFFFFFFFFFFFFFFFFFFFFFFFFFFFFFFFF AND DUP9 PUSH20 0xFFFFFFFFFFFFFFFFFFFFFFFFFFFFFFFFFFFFFFFF AND EQ PUSH3 0x504 JUMPI PUSH1 0x0 DUP1 PUSH1 0x0 DUP5 DUP2 MSTORE PUSH1 0x20 ADD SWAP1 DUP2 MSTORE PUSH1 0x20 ADD PUSH1 0x0 KECCAK256 PUSH1 0x0 DUP11 PUSH20 0xFFFFFFFFFFFFFFFFFFFFFFFFFFFFFFFFFFFFFFFF AND PUSH20 0xFFFFFFFFFFFFFFFFFFFFFFFFFFFFFFFFFFFFFFFF AND DUP2 MSTORE PUSH1 0x20 ADD SWAP1 DUP2 MSTORE PUSH1 0x20 ADD PUSH1 0x0 KECCAK256 SLOAD SWAP1 POP DUP2 DUP2 LT ISZERO PUSH3 0x4AC JUMPI DUP9 DUP2 DUP4 DUP6 PUSH1 0x40 MLOAD PUSH32 0x3DEE4C500000000000000000000000000000000000000000000000000000000 DUP2 MSTORE PUSH1 0x4 ADD PUSH3 0x4A3 SWAP5 SWAP4 SWAP3 SWAP2 SWAP1 PUSH3 0xEAA JUMP JUMPDEST PUSH1 0x40 MLOAD DUP1 SWAP2 SUB SWAP1 REVERT JUMPDEST DUP2 DUP2 SUB PUSH1 0x0 DUP1 DUP6 DUP2 MSTORE PUSH1 0x20 ADD SWAP1 DUP2 MSTORE PUSH1 0x20 ADD PUSH1 0x0 KECCAK256 PUSH1 0x0 DUP12 PUSH20 0xFFFFFFFFFFFFFFFFFFFFFFFFFFFFFFFFFFFFFFFF AND PUSH20 0xFFFFFFFFFFFFFFFFFFFFFFFFFFFFFFFFFFFFFFFF AND DUP2 MSTORE PUSH1 0x20 ADD SWAP1 DUP2 MSTORE PUSH1 0x20 ADD PUSH1 0x0 KECCAK256 DUP2 SWAP1 SSTORE POP POP JUMPDEST PUSH1 0x0 PUSH20 0xFFFFFFFFFFFFFFFFFFFFFFFFFFFFFFFFFFFFFFFF AND DUP8 PUSH20 0xFFFFFFFFFFFFFFFFFFFFFFFFFFFFFFFFFFFFFFFF AND EQ PUSH3 0x5A2 JUMPI DUP1 PUSH1 0x0 DUP1 DUP5 DUP2 MSTORE PUSH1 0x20 ADD SWAP1 DUP2 MSTORE PUSH1 0x20 ADD PUSH1 0x0 KECCAK256 PUSH1 0x0 DUP10 PUSH20 0xFFFFFFFFFFFFFFFFFFFFFFFFFFFFFFFFFFFFFFFF AND PUSH20 0xFFFFFFFFFFFFFFFFFFFFFFFFFFFFFFFFFFFFFFFF AND DUP2 MSTORE PUSH1 0x20 ADD SWAP1 DUP2 MSTORE PUSH1 0x20 ADD PUSH1 0x0 KECCAK256 PUSH1 0x0 DUP3 DUP3 SLOAD PUSH3 0x59A SWAP2 SWAP1 PUSH3 0xF26 JUMP JUMPDEST SWAP3 POP POP DUP2 SWAP1 SSTORE POP JUMPDEST POP POP DUP1 PUSH3 0x5B0 SWAP1 PUSH3 0xF61 JUMP JUMPDEST SWAP1 POP PUSH3 0x399 JUMP JUMPDEST POP PUSH1 0x1 DUP4 MLOAD SUB PUSH3 0x67F JUMPI PUSH1 0x0 PUSH3 0x5DB PUSH1 0x0 DUP6 PUSH3 0x70F PUSH1 0x20 SHL SWAP1 SWAP2 SWAP1 PUSH1 0x20 SHR JUMP JUMPDEST SWAP1 POP PUSH1 0x0 PUSH3 0x5F5 PUSH1 0x0 DUP6 PUSH3 0x70F PUSH1 0x20 SHL SWAP1 SWAP2 SWAP1 PUSH1 0x20 SHR JUMP JUMPDEST SWAP1 POP DUP6 PUSH20 0xFFFFFFFFFFFFFFFFFFFFFFFFFFFFFFFFFFFFFFFF AND DUP8 PUSH20 0xFFFFFFFFFFFFFFFFFFFFFFFFFFFFFFFFFFFFFFFF AND DUP5 PUSH20 0xFFFFFFFFFFFFFFFFFFFFFFFFFFFFFFFFFFFFFFFF AND PUSH32 0xC3D58168C5AE7397731D063D5BBF3D657854427343F4C083240F7AACAA2D0F62 DUP6 DUP6 PUSH1 0x40 MLOAD PUSH3 0x66F SWAP3 SWAP2 SWAP1 PUSH3 0xE7D JUMP JUMPDEST PUSH1 0x40 MLOAD DUP1 SWAP2 SUB SWAP1 LOG4 POP POP PUSH3 0x700 JUMP JUMPDEST DUP4 PUSH20 0xFFFFFFFFFFFFFFFFFFFFFFFFFFFFFFFFFFFFFFFF AND DUP6 PUSH20 0xFFFFFFFFFFFFFFFFFFFFFFFFFFFFFFFFFFFFFFFF AND DUP3 PUSH20 0xFFFFFFFFFFFFFFFFFFFFFFFFFFFFFFFFFFFFFFFF AND PUSH32 0x4A39DC06D4C0DBC64B70AF90FD698A233A518AA5D07E595D983B8C0526C8F7FB DUP7 DUP7 PUSH1 0x40 MLOAD PUSH3 0x6F7 SWAP3 SWAP2 SWAP1 PUSH3 0x107C JUMP JUMPDEST PUSH1 0x40 MLOAD DUP1 SWAP2 SUB SWAP1 LOG4 JUMPDEST POP POP POP POP POP JUMP JUMPDEST PUSH1 0x0 CALLER SWAP1 POP SWAP1 JUMP JUMPDEST PUSH1 0x0 PUSH1 0x20 DUP3 MUL PUSH1 0x20 DUP5 ADD ADD MLOAD SWAP1 POP SWAP3 SWAP2 POP POP JUMP JUMPDEST PUSH1 0x0 DUP5 PUSH20 0xFFFFFFFFFFFFFFFFFFFFFFFFFFFFFFFFFFFFFFFF AND EXTCODESIZE GT ISZERO PUSH3 0x8DE JUMPI DUP4 PUSH20 0xFFFFFFFFFFFFFFFFFFFFFFFFFFFFFFFFFFFFFFFF AND PUSH4 0xF23A6E61 DUP8 DUP8 DUP7 DUP7 DUP7 PUSH1 0x40 MLOAD DUP7 PUSH4 0xFFFFFFFF AND PUSH1 0xE0 SHL DUP2 MSTORE PUSH1 0x4 ADD PUSH3 0x787 SWAP6 SWAP5 SWAP4 SWAP3 SWAP2 SWAP1 PUSH3 0x1151 JUMP JUMPDEST PUSH1 0x20 PUSH1 0x40 MLOAD DUP1 DUP4 SUB DUP2 PUSH1 0x0 DUP8 GAS CALL SWAP3 POP POP POP DUP1 ISZERO PUSH3 0x7C6 JUMPI POP PUSH1 0x40 MLOAD RETURNDATASIZE PUSH1 0x1F NOT PUSH1 0x1F DUP3 ADD AND DUP3 ADD DUP1 PUSH1 0x40 MSTORE POP DUP2 ADD SWAP1 PUSH3 0x7C3 SWAP2 SWAP1 PUSH3 0x1217 JUMP JUMPDEST PUSH1 0x1 JUMPDEST PUSH3 0x850 JUMPI RETURNDATASIZE DUP1 PUSH1 0x0 DUP2 EQ PUSH3 0x7F9 JUMPI PUSH1 0x40 MLOAD SWAP2 POP PUSH1 0x1F NOT PUSH1 0x3F RETURNDATASIZE ADD AND DUP3 ADD PUSH1 0x40 MSTORE RETURNDATASIZE DUP3 MSTORE RETURNDATASIZE PUSH1 0x0 PUSH1 0x20 DUP5 ADD RETURNDATACOPY PUSH3 0x7FE JUMP JUMPDEST PUSH1 0x60 SWAP2 POP JUMPDEST POP PUSH1 0x0 DUP2 MLOAD SUB PUSH3 0x848 JUMPI DUP5 PUSH1 0x40 MLOAD PUSH32 0x57F447CE00000000000000000000000000000000000000000000000000000000 DUP2 MSTORE PUSH1 0x4 ADD PUSH3 0x83F SWAP2 SWAP1 PUSH3 0xE4F JUMP JUMPDEST PUSH1 0x40 MLOAD DUP1 SWAP2 SUB SWAP1 REVERT JUMPDEST DUP1 MLOAD DUP2 PUSH1 0x20 ADD REVERT JUMPDEST PUSH4 0xF23A6E61 PUSH1 0xE0 SHL PUSH28 0xFFFFFFFFFFFFFFFFFFFFFFFFFFFFFFFFFFFFFFFFFFFFFFFFFFFFFFFF NOT AND DUP2 PUSH28 0xFFFFFFFFFFFFFFFFFFFFFFFFFFFFFFFFFFFFFFFFFFFFFFFFFFFFFFFF NOT AND EQ PUSH3 0x8DC JUMPI DUP5 PUSH1 0x40 MLOAD PUSH32 0x57F447CE00000000000000000000000000000000000000000000000000000000 DUP2 MSTORE PUSH1 0x4 ADD PUSH3 0x8D3 SWAP2 SWAP1 PUSH3 0xE4F JUMP JUMPDEST PUSH1 0x40 MLOAD DUP1 SWAP2 SUB SWAP1 REVERT JUMPDEST POP JUMPDEST POP POP POP POP POP POP JUMP JUMPDEST PUSH1 0x0 DUP5 PUSH20 0xFFFFFFFFFFFFFFFFFFFFFFFFFFFFFFFFFFFFFFFF AND EXTCODESIZE GT ISZERO PUSH3 0xAA1 JUMPI DUP4 PUSH20 0xFFFFFFFFFFFFFFFFFFFFFFFFFFFFFFFFFFFFFFFF AND PUSH4 0xBC197C81 DUP8 DUP8 DUP7 DUP7 DUP7 PUSH1 0x40 MLOAD DUP7 PUSH4 0xFFFFFFFF AND PUSH1 0xE0 SHL DUP2 MSTORE PUSH1 0x4 ADD PUSH3 0x94A SWAP6 SWAP5 SWAP4 SWAP3 SWAP2 SWAP1 PUSH3 0x1249 JUMP JUMPDEST PUSH1 0x20 PUSH1 0x40 MLOAD DUP1 DUP4 SUB DUP2 PUSH1 0x0 DUP8 GAS CALL SWAP3 POP POP POP DUP1 ISZERO PUSH3 0x989 JUMPI POP PUSH1 0x40 MLOAD RETURNDATASIZE PUSH1 0x1F NOT PUSH1 0x1F DUP3 ADD AND DUP3 ADD DUP1 PUSH1 0x40 MSTORE POP DUP2 ADD SWAP1 PUSH3 0x986 SWAP2 SWAP1 PUSH3 0x1217 JUMP JUMPDEST PUSH1 0x1 JUMPDEST PUSH3 0xA13 JUMPI RETURNDATASIZE DUP1 PUSH1 0x0 DUP2 EQ PUSH3 0x9BC JUMPI PUSH1 0x40 MLOAD SWAP2 POP PUSH1 0x1F NOT PUSH1 0x3F RETURNDATASIZE ADD AND DUP3 ADD PUSH1 0x40 MSTORE RETURNDATASIZE DUP3 MSTORE RETURNDATASIZE PUSH1 0x0 PUSH1 0x20 DUP5 ADD RETURNDATACOPY PUSH3 0x9C1 JUMP JUMPDEST PUSH1 0x60 SWAP2 POP JUMPDEST POP PUSH1 0x0 DUP2 MLOAD SUB PUSH3 0xA0B JUMPI DUP5 PUSH1 0x40 MLOAD PUSH32 0x57F447CE00000000000000000000000000000000000000000000000000000000 DUP2 MSTORE PUSH1 0x4 ADD PUSH3 0xA02 SWAP2 SWAP1 PUSH3 0xE4F JUMP JUMPDEST PUSH1 0x40 MLOAD DUP1 SWAP2 SUB SWAP1 REVERT JUMPDEST DUP1 MLOAD DUP2 PUSH1 0x20 ADD REVERT JUMPDEST PUSH4 0xBC197C81 PUSH1 0xE0 SHL PUSH28 0xFFFFFFFFFFFFFFFFFFFFFFFFFFFFFFFFFFFFFFFFFFFFFFFFFFFFFFFF NOT AND DUP2 PUSH28 0xFFFFFFFFFFFFFFFFFFFFFFFFFFFFFFFFFFFFFFFFFFFFFFFFFFFFFFFF NOT AND EQ PUSH3 0xA9F JUMPI DUP5 PUSH1 0x40 MLOAD PUSH32 0x57F447CE00000000000000000000000000000000000000000000000000000000 DUP2 MSTORE PUSH1 0x4 ADD PUSH3 0xA96 SWAP2 SWAP1 PUSH3 0xE4F JUMP JUMPDEST PUSH1 0x40 MLOAD DUP1 SWAP2 SUB SWAP1 REVERT JUMPDEST POP JUMPDEST POP POP POP POP POP POP JUMP JUMPDEST PUSH1 0x0 DUP2 MLOAD SWAP1 POP SWAP2 SWAP1 POP JUMP JUMPDEST PUSH32 0x4E487B7100000000000000000000000000000000000000000000000000000000 PUSH1 0x0 MSTORE PUSH1 0x41 PUSH1 0x4 MSTORE PUSH1 0x24 PUSH1 0x0 REVERT JUMPDEST PUSH32 0x4E487B7100000000000000000000000000000000000000000000000000000000 PUSH1 0x0 MSTORE PUSH1 0x22 PUSH1 0x4 MSTORE PUSH1 0x24 PUSH1 0x0 REVERT JUMPDEST PUSH1 0x0 PUSH1 0x2 DUP3 DIV SWAP1 POP PUSH1 0x1 DUP3 AND DUP1 PUSH3 0xB2B JUMPI PUSH1 0x7F DUP3 AND SWAP2 POP JUMPDEST PUSH1 0x20 DUP3 LT DUP2 SUB PUSH3 0xB41 JUMPI PUSH3 0xB40 PUSH3 0xAE3 JUMP JUMPDEST JUMPDEST POP SWAP2 SWAP1 POP JUMP JUMPDEST PUSH1 0x0 DUP2 SWAP1 POP DUP2 PUSH1 0x0 MSTORE PUSH1 0x20 PUSH1 0x0 KECCAK256 SWAP1 POP SWAP2 SWAP1 POP JUMP JUMPDEST PUSH1 0x0 PUSH1 0x20 PUSH1 0x1F DUP4 ADD DIV SWAP1 POP SWAP2 SWAP1 POP JUMP JUMPDEST PUSH1 0x0 DUP3 DUP3 SHL SWAP1 POP SWAP3 SWAP2 POP POP JUMP JUMPDEST PUSH1 0x0 PUSH1 0x8 DUP4 MUL PUSH3 0xBAB PUSH32 0xFFFFFFFFFFFFFFFFFFFFFFFFFFFFFFFFFFFFFFFFFFFFFFFFFFFFFFFFFFFFFFFF DUP3 PUSH3 0xB6C JUMP JUMPDEST PUSH3 0xBB7 DUP7 DUP4 PUSH3 0xB6C JUMP JUMPDEST SWAP6 POP DUP1 NOT DUP5 AND SWAP4 POP DUP1 DUP7 AND DUP5 OR SWAP3 POP POP POP SWAP4 SWAP3 POP POP POP JUMP JUMPDEST PUSH1 0x0 DUP2 SWAP1 POP SWAP2 SWAP1 POP JUMP JUMPDEST PUSH1 0x0 DUP2 SWAP1 POP SWAP2 SWAP1 POP JUMP JUMPDEST PUSH1 0x0 PUSH3 0xC04 PUSH3 0xBFE PUSH3 0xBF8 DUP5 PUSH3 0xBCF JUMP JUMPDEST PUSH3 0xBD9 JUMP JUMPDEST PUSH3 0xBCF JUMP JUMPDEST SWAP1 POP SWAP2 SWAP1 POP JUMP JUMPDEST PUSH1 0x0 DUP2 SWAP1 POP SWAP2 SWAP1 POP JUMP JUMPDEST PUSH3 0xC20 DUP4 PUSH3 0xBE3 JUMP JUMPDEST PUSH3 0xC38 PUSH3 0xC2F DUP3 PUSH3 0xC0B JUMP JUMPDEST DUP5 DUP5 SLOAD PUSH3 0xB79 JUMP JUMPDEST DUP3 SSTORE POP POP POP POP JUMP JUMPDEST PUSH1 0x0 SWAP1 JUMP JUMPDEST PUSH3 0xC4F PUSH3 0xC40 JUMP JUMPDEST PUSH3 0xC5C DUP2 DUP5 DUP5 PUSH3 0xC15 JUMP JUMPDEST POP POP POP JUMP JUMPDEST JUMPDEST DUP2 DUP2 LT ISZERO PUSH3 0xC84 JUMPI PUSH3 0xC78 PUSH1 0x0 DUP3 PUSH3 0xC45 JUMP JUMPDEST PUSH1 0x1 DUP2 ADD SWAP1 POP PUSH3 0xC62 JUMP JUMPDEST POP POP JUMP JUMPDEST PUSH1 0x1F DUP3 GT ISZERO PUSH3 0xCD3 JUMPI PUSH3 0xC9D DUP2 PUSH3 0xB47 JUMP JUMPDEST PUSH3 0xCA8 DUP5 PUSH3 0xB5C JUMP JUMPDEST DUP2 ADD PUSH1 0x20 DUP6 LT ISZERO PUSH3 0xCB8 JUMPI DUP2 SWAP1 POP JUMPDEST PUSH3 0xCD0 PUSH3 0xCC7 DUP6 PUSH3 0xB5C JUMP JUMPDEST DUP4 ADD DUP3 PUSH3 0xC61 JUMP JUMPDEST POP POP JUMPDEST POP POP POP JUMP JUMPDEST PUSH1 0x0 DUP3 DUP3 SHR SWAP1 POP SWAP3 SWAP2 POP POP JUMP JUMPDEST PUSH1 0x0 PUSH3 0xCF8 PUSH1 0x0 NOT DUP5 PUSH1 0x8 MUL PUSH3 0xCD8 JUMP JUMPDEST NOT DUP1 DUP4 AND SWAP2 POP POP SWAP3 SWAP2 POP POP JUMP JUMPDEST PUSH1 0x0 PUSH3 0xD13 DUP4 DUP4 PUSH3 0xCE5 JUMP JUMPDEST SWAP2 POP DUP3 PUSH1 0x2 MUL DUP3 OR SWAP1 POP SWAP3 SWAP2 POP POP JUMP JUMPDEST PUSH3 0xD2E DUP3 PUSH3 0xAA9 JUMP JUMPDEST PUSH8 0xFFFFFFFFFFFFFFFF DUP2 GT ISZERO PUSH3 0xD4A JUMPI PUSH3 0xD49 PUSH3 0xAB4 JUMP JUMPDEST JUMPDEST PUSH3 0xD56 DUP3 SLOAD PUSH3 0xB12 JUMP JUMPDEST PUSH3 0xD63 DUP3 DUP3 DUP6 PUSH3 0xC88 JUMP JUMPDEST PUSH1 0x0 PUSH1 0x20 SWAP1 POP PUSH1 0x1F DUP4 GT PUSH1 0x1 DUP2 EQ PUSH3 0xD9B JUMPI PUSH1 0x0 DUP5 ISZERO PUSH3 0xD86 JUMPI DUP3 DUP8 ADD MLOAD SWAP1 POP JUMPDEST PUSH3 0xD92 DUP6 DUP3 PUSH3 0xD05 JUMP JUMPDEST DUP7 SSTORE POP PUSH3 0xE02 JUMP JUMPDEST PUSH1 0x1F NOT DUP5 AND PUSH3 0xDAB DUP7 PUSH3 0xB47 JUMP JUMPDEST PUSH1 0x0 JUMPDEST DUP3 DUP2 LT ISZERO PUSH3 0xDD5 JUMPI DUP5 DUP10 ADD MLOAD DUP3 SSTORE PUSH1 0x1 DUP3 ADD SWAP2 POP PUSH1 0x20 DUP6 ADD SWAP5 POP PUSH1 0x20 DUP2 ADD SWAP1 POP PUSH3 0xDAE JUMP JUMPDEST DUP7 DUP4 LT ISZERO PUSH3 0xDF5 JUMPI DUP5 DUP10 ADD MLOAD PUSH3 0xDF1 PUSH1 0x1F DUP10 AND DUP3 PUSH3 0xCE5 JUMP JUMPDEST DUP4 SSTORE POP JUMPDEST PUSH1 0x1 PUSH1 0x2 DUP9 MUL ADD DUP9 SSTORE POP POP POP JUMPDEST POP POP POP POP POP POP JUMP JUMPDEST PUSH1 0x0 PUSH20 0xFFFFFFFFFFFFFFFFFFFFFFFFFFFFFFFFFFFFFFFF DUP3 AND SWAP1 POP SWAP2 SWAP1 POP JUMP JUMPDEST PUSH1 0x0 PUSH3 0xE37 DUP3 PUSH3 0xE0A JUMP JUMPDEST SWAP1 POP SWAP2 SWAP1 POP JUMP JUMPDEST PUSH3 0xE49 DUP2 PUSH3 0xE2A JUMP JUMPDEST DUP3 MSTORE POP POP JUMP JUMPDEST PUSH1 0x0 PUSH1 0x20 DUP3 ADD SWAP1 POP PUSH3 0xE66 PUSH1 0x0 DUP4 ADD DUP5 PUSH3 0xE3E JUMP JUMPDEST SWAP3 SWAP2 POP POP JUMP JUMPDEST PUSH3 0xE77 DUP2 PUSH3 0xBCF JUMP JUMPDEST DUP3 MSTORE POP POP JUMP JUMPDEST PUSH1 0x0 PUSH1 0x40 DUP3 ADD SWAP1 POP PUSH3 0xE94 PUSH1 0x0 DUP4 ADD DUP6 PUSH3 0xE6C JUMP JUMPDEST PUSH3 0xEA3 PUSH1 0x20 DUP4 ADD DUP5 PUSH3 0xE6C JUMP JUMPDEST SWAP4 SWAP3 POP POP POP JUMP JUMPDEST PUSH1 0x0 PUSH1 0x80 DUP3 ADD SWAP1 POP PUSH3 0xEC1 PUSH1 0x0 DUP4 ADD DUP8 PUSH3 0xE3E JUMP JUMPDEST PUSH3 0xED0 PUSH1 0x20 DUP4 ADD DUP7 PUSH3 0xE6C JUMP JUMPDEST PUSH3 0xEDF PUSH1 0x40 DUP4 ADD DUP6 PUSH3 0xE6C JUMP JUMPDEST PUSH3 0xEEE PUSH1 0x60 DUP4 ADD DUP5 PUSH3 0xE6C JUMP JUMPDEST SWAP6 SWAP5 POP POP POP POP POP JUMP JUMPDEST PUSH32 0x4E487B7100000000000000000000000000000000000000000000000000000000 PUSH1 0x0 MSTORE PUSH1 0x11 PUSH1 0x4 MSTORE PUSH1 0x24 PUSH1 0x0 REVERT JUMPDEST PUSH1 0x0 PUSH3 0xF33 DUP3 PUSH3 0xBCF JUMP JUMPDEST SWAP2 POP PUSH3 0xF40 DUP4 PUSH3 0xBCF JUMP JUMPDEST SWAP3 POP DUP3 DUP3 ADD SWAP1 POP DUP1 DUP3 GT ISZERO PUSH3 0xF5B JUMPI PUSH3 0xF5A PUSH3 0xEF7 JUMP JUMPDEST JUMPDEST SWAP3 SWAP2 POP POP JUMP JUMPDEST PUSH1 0x0 PUSH3 0xF6E DUP3 PUSH3 0xBCF JUMP JUMPDEST SWAP2 POP PUSH32 0xFFFFFFFFFFFFFFFFFFFFFFFFFFFFFFFFFFFFFFFFFFFFFFFFFFFFFFFFFFFFFFFF DUP3 SUB PUSH3 0xFA3 JUMPI PUSH3 0xFA2 PUSH3 0xEF7 JUMP JUMPDEST JUMPDEST PUSH1 0x1 DUP3 ADD SWAP1 POP SWAP2 SWAP1 POP JUMP JUMPDEST PUSH1 0x0 DUP2 MLOAD SWAP1 POP SWAP2 SWAP1 POP JUMP JUMPDEST PUSH1 0x0 DUP3 DUP3 MSTORE PUSH1 0x20 DUP3 ADD SWAP1 POP SWAP3 SWAP2 POP POP JUMP JUMPDEST PUSH1 0x0 DUP2 SWAP1 POP PUSH1 0x20 DUP3 ADD SWAP1 POP SWAP2 SWAP1 POP JUMP JUMPDEST PUSH3 0xFE5 DUP2 PUSH3 0xBCF JUMP JUMPDEST DUP3 MSTORE POP POP JUMP JUMPDEST PUSH1 0x0 PUSH3 0xFF9 DUP4 DUP4 PUSH3 0xFDA JUMP JUMPDEST PUSH1 0x20 DUP4 ADD SWAP1 POP SWAP3 SWAP2 POP POP JUMP JUMPDEST PUSH1 0x0 PUSH1 0x20 DUP3 ADD SWAP1 POP SWAP2 SWAP1 POP JUMP JUMPDEST PUSH1 0x0 PUSH3 0x101F DUP3 PUSH3 0xFAE JUMP JUMPDEST PUSH3 0x102B DUP2 DUP6 PUSH3 0xFB9 JUMP JUMPDEST SWAP4 POP PUSH3 0x1038 DUP4 PUSH3 0xFCA JUMP JUMPDEST DUP1 PUSH1 0x0 JUMPDEST DUP4 DUP2 LT ISZERO PUSH3 0x106F JUMPI DUP2 MLOAD PUSH3 0x1053 DUP9 DUP3 PUSH3 0xFEB JUMP JUMPDEST SWAP8 POP PUSH3 0x1060 DUP4 PUSH3 0x1005 JUMP JUMPDEST SWAP3 POP POP PUSH1 0x1 DUP2 ADD SWAP1 POP PUSH3 0x103C JUMP JUMPDEST POP DUP6 SWAP4 POP POP POP POP SWAP3 SWAP2 POP POP JUMP JUMPDEST PUSH1 0x0 PUSH1 0x40 DUP3 ADD SWAP1 POP DUP2 DUP2 SUB PUSH1 0x0 DUP4 ADD MSTORE PUSH3 0x1098 DUP2 DUP6 PUSH3 0x1012 JUMP JUMPDEST SWAP1 POP DUP2 DUP2 SUB PUSH1 0x20 DUP4 ADD MSTORE PUSH3 0x10AE DUP2 DUP5 PUSH3 0x1012 JUMP JUMPDEST SWAP1 POP SWAP4 SWAP3 POP POP POP JUMP JUMPDEST PUSH1 0x0 DUP2 MLOAD SWAP1 POP SWAP2 SWAP1 POP JUMP JUMPDEST PUSH1 0x0 DUP3 DUP3 MSTORE PUSH1 0x20 DUP3 ADD SWAP1 POP SWAP3 SWAP2 POP POP JUMP JUMPDEST PUSH1 0x0 JUMPDEST DUP4 DUP2 LT ISZERO PUSH3 0x10F3 JUMPI DUP1 DUP3 ADD MLOAD DUP2 DUP5 ADD MSTORE PUSH1 0x20 DUP2 ADD SWAP1 POP PUSH3 0x10D6 JUMP JUMPDEST PUSH1 0x0 DUP5 DUP5 ADD MSTORE POP POP POP POP JUMP JUMPDEST PUSH1 0x0 PUSH1 0x1F NOT PUSH1 0x1F DUP4 ADD AND SWAP1 POP SWAP2 SWAP1 POP JUMP JUMPDEST PUSH1 0x0 PUSH3 0x111D DUP3 PUSH3 0x10B7 JUMP JUMPDEST PUSH3 0x1129 DUP2 DUP6 PUSH3 0x10C2 JUMP JUMPDEST SWAP4 POP PUSH3 0x113B DUP2 DUP6 PUSH1 0x20 DUP7 ADD PUSH3 0x10D3 JUMP JUMPDEST PUSH3 0x1146 DUP2 PUSH3 0x10FF JUMP JUMPDEST DUP5 ADD SWAP2 POP POP SWAP3 SWAP2 POP POP JUMP JUMPDEST PUSH1 0x0 PUSH1 0xA0 DUP3 ADD SWAP1 POP PUSH3 0x1168 PUSH1 0x0 DUP4 ADD DUP9 PUSH3 0xE3E JUMP JUMPDEST PUSH3 0x1177 PUSH1 0x20 DUP4 ADD DUP8 PUSH3 0xE3E JUMP JUMPDEST PUSH3 0x1186 PUSH1 0x40 DUP4 ADD DUP7 PUSH3 0xE6C JUMP JUMPDEST PUSH3 0x1195 PUSH1 0x60 DUP4 ADD DUP6 PUSH3 0xE6C JUMP JUMPDEST DUP2 DUP2 SUB PUSH1 0x80 DUP4 ADD MSTORE PUSH3 0x11A9 DUP2 DUP5 PUSH3 0x1110 JUMP JUMPDEST SWAP1 POP SWAP7 SWAP6 POP POP POP POP POP POP JUMP JUMPDEST PUSH1 0x0 DUP1 REVERT JUMPDEST PUSH1 0x0 PUSH32 0xFFFFFFFF00000000000000000000000000000000000000000000000000000000 DUP3 AND SWAP1 POP SWAP2 SWAP1 POP JUMP JUMPDEST PUSH3 0x11F1 DUP2 PUSH3 0x11BA JUMP JUMPDEST DUP2 EQ PUSH3 0x11FD JUMPI PUSH1 0x0 DUP1 REVERT JUMPDEST POP JUMP JUMPDEST PUSH1 0x0 DUP2 MLOAD SWAP1 POP PUSH3 0x1211 DUP2 PUSH3 0x11E6 JUMP JUMPDEST SWAP3 SWAP2 POP POP JUMP JUMPDEST PUSH1 0x0 PUSH1 0x20 DUP3 DUP5 SUB SLT ISZERO PUSH3 0x1230 JUMPI PUSH3 0x122F PUSH3 0x11B5 JUMP JUMPDEST JUMPDEST PUSH1 0x0 PUSH3 0x1240 DUP5 DUP3 DUP6 ADD PUSH3 0x1200 JUMP JUMPDEST SWAP2 POP POP SWAP3 SWAP2 POP POP JUMP JUMPDEST PUSH1 0x0 PUSH1 0xA0 DUP3 ADD SWAP1 POP PUSH3 0x1260 PUSH1 0x0 DUP4 ADD DUP9 PUSH3 0xE3E JUMP JUMPDEST PUSH3 0x126F PUSH1 0x20 DUP4 ADD DUP8 PUSH3 0xE3E JUMP JUMPDEST DUP2 DUP2 SUB PUSH1 0x40 DUP4 ADD MSTORE PUSH3 0x1283 DUP2 DUP7 PUSH3 0x1012 JUMP JUMPDEST SWAP1 POP DUP2 DUP2 SUB PUSH1 0x60 DUP4 ADD MSTORE PUSH3 0x1299 DUP2 DUP6 PUSH3 0x1012 JUMP JUMPDEST SWAP1 POP DUP2 DUP2 SUB PUSH1 0x80 DUP4 ADD MSTORE PUSH3 0x12AF DUP2 DUP5 PUSH3 0x1110 JUMP JUMPDEST SWAP1 POP SWAP7 SWAP6 POP POP POP POP POP POP JUMP JUMPDEST PUSH2 0x27CA DUP1 PUSH3 0x12CB PUSH1 0x0 CODECOPY PUSH1 0x0 RETURN INVALID PUSH1 0x80 PUSH1 0x40 MSTORE CALLVALUE DUP1 ISZERO PUSH2 0x10 JUMPI PUSH1 0x0 DUP1 REVERT JUMPDEST POP PUSH1 0x4 CALLDATASIZE LT PUSH2 0xB3 JUMPI PUSH1 0x0 CALLDATALOAD PUSH1 0xE0 SHR DUP1 PUSH4 0x4E1273F4 GT PUSH2 0x71 JUMPI DUP1 PUSH4 0x4E1273F4 EQ PUSH2 0x18C JUMPI DUP1 PUSH4 0x729149B2 EQ PUSH2 0x1BC JUMPI DUP1 PUSH4 0xA035B1FE EQ PUSH2 0x1D8 JUMPI DUP1 PUSH4 0xA22CB465 EQ PUSH2 0x1F6 JUMPI DUP1 PUSH4 0xE985E9C5 EQ PUSH2 0x212 JUMPI DUP1 PUSH4 0xF242432A EQ PUSH2 0x242 JUMPI PUSH2 0xB3 JUMP JUMPDEST DUP1 PUSH3 0xFDD58E EQ PUSH2 0xB8 JUMPI DUP1 PUSH4 0x1FFC9A7 EQ PUSH2 0xE8 JUMPI DUP1 PUSH4 0xE89341C EQ PUSH2 0x118 JUMPI DUP1 PUSH4 0x2EB2C2D6 EQ PUSH2 0x148 JUMPI DUP1 PUSH4 0x32A2C5D0 EQ PUSH2 0x164 JUMPI DUP1 PUSH4 0x4347F837 EQ PUSH2 0x182 JUMPI JUMPDEST PUSH1 0x0 DUP1 REVERT JUMPDEST PUSH2 0xD2 PUSH1 0x4 DUP1 CALLDATASIZE SUB DUP2 ADD SWAP1 PUSH2 0xCD SWAP2 SWAP1 PUSH2 0x191A JUMP JUMPDEST PUSH2 0x25E JUMP JUMPDEST PUSH1 0x40 MLOAD PUSH2 0xDF SWAP2 SWAP1 PUSH2 0x1969 JUMP JUMPDEST PUSH1 0x40 MLOAD DUP1 SWAP2 SUB SWAP1 RETURN JUMPDEST PUSH2 0x102 PUSH1 0x4 DUP1 CALLDATASIZE SUB DUP2 ADD SWAP1 PUSH2 0xFD SWAP2 SWAP1 PUSH2 0x19DC JUMP JUMPDEST PUSH2 0x2B8 JUMP JUMPDEST PUSH1 0x40 MLOAD PUSH2 0x10F SWAP2 SWAP1 PUSH2 0x1A24 JUMP JUMPDEST PUSH1 0x40 MLOAD DUP1 SWAP2 SUB SWAP1 RETURN JUMPDEST PUSH2 0x132 PUSH1 0x4 DUP1 CALLDATASIZE SUB DUP2 ADD SWAP1 PUSH2 0x12D SWAP2 SWAP1 PUSH2 0x1A3F JUMP JUMPDEST PUSH2 0x39A JUMP JUMPDEST PUSH1 0x40 MLOAD PUSH2 0x13F SWAP2 SWAP1 PUSH2 0x1AFC JUMP JUMPDEST PUSH1 0x40 MLOAD DUP1 SWAP2 SUB SWAP1 RETURN JUMPDEST PUSH2 0x162 PUSH1 0x4 DUP1 CALLDATASIZE SUB DUP2 ADD SWAP1 PUSH2 0x15D SWAP2 SWAP1 PUSH2 0x1D1B JUMP JUMPDEST PUSH2 0x3CB JUMP JUMPDEST STOP JUMPDEST PUSH2 0x16C PUSH2 0x473 JUMP JUMPDEST PUSH1 0x40 MLOAD PUSH2 0x179 SWAP2 SWAP1 PUSH2 0x1DF9 JUMP JUMPDEST PUSH1 0x40 MLOAD DUP1 SWAP2 SUB SWAP1 RETURN JUMPDEST PUSH2 0x18A PUSH2 0x47B JUMP JUMPDEST STOP JUMPDEST PUSH2 0x1A6 PUSH1 0x4 DUP1 CALLDATASIZE SUB DUP2 ADD SWAP1 PUSH2 0x1A1 SWAP2 SWAP1 PUSH2 0x1ED7 JUMP JUMPDEST PUSH2 0x4EC JUMP JUMPDEST PUSH1 0x40 MLOAD PUSH2 0x1B3 SWAP2 SWAP1 PUSH2 0x200D JUMP JUMPDEST PUSH1 0x40 MLOAD DUP1 SWAP2 SUB SWAP1 RETURN JUMPDEST PUSH2 0x1D6 PUSH1 0x4 DUP1 CALLDATASIZE SUB DUP2 ADD SWAP1 PUSH2 0x1D1 SWAP2 SWAP1 PUSH2 0x191A JUMP JUMPDEST PUSH2 0x5FB JUMP JUMPDEST STOP JUMPDEST PUSH2 0x1E0 PUSH2 0x61B JUMP JUMPDEST PUSH1 0x40 MLOAD PUSH2 0x1ED SWAP2 SWAP1 PUSH2 0x1969 JUMP JUMPDEST PUSH1 0x40 MLOAD DUP1 SWAP2 SUB SWAP1 RETURN JUMPDEST PUSH2 0x210 PUSH1 0x4 DUP1 CALLDATASIZE SUB DUP2 ADD SWAP1 PUSH2 0x20B SWAP2 SWAP1 PUSH2 0x205B JUMP JUMPDEST PUSH2 0x650 JUMP JUMPDEST STOP JUMPDEST PUSH2 0x22C PUSH1 0x4 DUP1 CALLDATASIZE SUB DUP2 ADD SWAP1 PUSH2 0x227 SWAP2 SWAP1 PUSH2 0x209B JUMP JUMPDEST PUSH2 0x666 JUMP JUMPDEST PUSH1 0x40 MLOAD PUSH2 0x239 SWAP2 SWAP1 PUSH2 0x1A24 JUMP JUMPDEST PUSH1 0x40 MLOAD DUP1 SWAP2 SUB SWAP1 RETURN JUMPDEST PUSH2 0x25C PUSH1 0x4 DUP1 CALLDATASIZE SUB DUP2 ADD SWAP1 PUSH2 0x257 SWAP2 SWAP1 PUSH2 0x20DB JUMP JUMPDEST PUSH2 0x6FA JUMP JUMPDEST STOP JUMPDEST PUSH1 0x0 DUP1 PUSH1 0x0 DUP4 DUP2 MSTORE PUSH1 0x20 ADD SWAP1 DUP2 MSTORE PUSH1 0x20 ADD PUSH1 0x0 KECCAK256 PUSH1 0x0 DUP5 PUSH20 0xFFFFFFFFFFFFFFFFFFFFFFFFFFFFFFFFFFFFFFFF AND PUSH20 0xFFFFFFFFFFFFFFFFFFFFFFFFFFFFFFFFFFFFFFFF AND DUP2 MSTORE PUSH1 0x20 ADD SWAP1 DUP2 MSTORE PUSH1 0x20 ADD PUSH1 0x0 KECCAK256 SLOAD SWAP1 POP SWAP3 SWAP2 POP POP JUMP JUMPDEST PUSH1 0x0 PUSH32 0xD9B67A2600000000000000000000000000000000000000000000000000000000 PUSH28 0xFFFFFFFFFFFFFFFFFFFFFFFFFFFFFFFFFFFFFFFFFFFFFFFFFFFFFFFF NOT AND DUP3 PUSH28 0xFFFFFFFFFFFFFFFFFFFFFFFFFFFFFFFFFFFFFFFFFFFFFFFFFFFFFFFF NOT AND EQ DUP1 PUSH2 0x383 JUMPI POP PUSH32 0xE89341C00000000000000000000000000000000000000000000000000000000 PUSH28 0xFFFFFFFFFFFFFFFFFFFFFFFFFFFFFFFFFFFFFFFFFFFFFFFFFFFFFFFF NOT AND DUP3 PUSH28 0xFFFFFFFFFFFFFFFFFFFFFFFFFFFFFFFFFFFFFFFFFFFFFFFFFFFFFFFF NOT AND EQ JUMPDEST DUP1 PUSH2 0x393 JUMPI POP PUSH2 0x392 DUP3 PUSH2 0x7A2 JUMP JUMPDEST JUMPDEST SWAP1 POP SWAP2 SWAP1 POP JUMP JUMPDEST PUSH1 0x60 PUSH2 0x3A5 DUP3 PUSH2 0x80C JUMP JUMPDEST PUSH1 0x40 MLOAD PUSH1 0x20 ADD PUSH2 0x3B5 SWAP2 SWAP1 PUSH2 0x2292 JUMP JUMPDEST PUSH1 0x40 MLOAD PUSH1 0x20 DUP2 DUP4 SUB SUB DUP2 MSTORE SWAP1 PUSH1 0x40 MSTORE SWAP1 POP SWAP2 SWAP1 POP JUMP JUMPDEST PUSH1 0x0 PUSH2 0x3D5 PUSH2 0x8DA JUMP JUMPDEST SWAP1 POP DUP1 PUSH20 0xFFFFFFFFFFFFFFFFFFFFFFFFFFFFFFFFFFFFFFFF AND DUP7 PUSH20 0xFFFFFFFFFFFFFFFFFFFFFFFFFFFFFFFFFFFFFFFF AND EQ ISZERO DUP1 ISZERO PUSH2 0x41A JUMPI POP PUSH2 0x418 DUP7 DUP3 PUSH2 0x666 JUMP JUMPDEST ISZERO JUMPDEST ISZERO PUSH2 0x45E JUMPI DUP1 DUP7 PUSH1 0x40 MLOAD PUSH32 0xE237D92200000000000000000000000000000000000000000000000000000000 DUP2 MSTORE PUSH1 0x4 ADD PUSH2 0x455 SWAP3 SWAP2 SWAP1 PUSH2 0x22BF JUMP JUMPDEST PUSH1 0x40 MLOAD DUP1 SWAP2 SUB SWAP1 REVERT JUMPDEST PUSH2 0x46B DUP7 DUP7 DUP7 DUP7 DUP7 PUSH2 0x8E2 JUMP JUMPDEST POP POP POP POP POP POP JUMP JUMPDEST PUSH1 0x0 ADDRESS SWAP1 POP SWAP1 JUMP JUMPDEST PUSH1 0x0 PUSH2 0x485 PUSH2 0x61B JUMP JUMPDEST SWAP1 POP DUP1 PUSH2 0x493 CALLER PUSH1 0x8 PUSH2 0x25E JUMP JUMPDEST LT ISZERO PUSH2 0x4D4 JUMPI PUSH1 0x40 MLOAD PUSH32 0x8C379A000000000000000000000000000000000000000000000000000000000 DUP2 MSTORE PUSH1 0x4 ADD PUSH2 0x4CB SWAP1 PUSH2 0x2334 JUMP JUMPDEST PUSH1 0x40 MLOAD DUP1 SWAP2 SUB SWAP1 REVERT JUMPDEST PUSH2 0x4DD CALLER PUSH2 0x9DA JUMP JUMPDEST PUSH2 0x4E9 CALLER PUSH1 0x8 DUP4 PUSH2 0xA06 JUMP JUMPDEST POP JUMP JUMPDEST PUSH1 0x60 DUP2 MLOAD DUP4 MLOAD EQ PUSH2 0x538 JUMPI DUP2 MLOAD DUP4 MLOAD PUSH1 0x40 MLOAD PUSH32 0x5B05999100000000000000000000000000000000000000000000000000000000 DUP2 MSTORE PUSH1 0x4 ADD PUSH2 0x52F SWAP3 SWAP2 SWAP1 PUSH2 0x2354 JUMP JUMPDEST PUSH1 0x40 MLOAD DUP1 SWAP2 SUB SWAP1 REVERT JUMPDEST PUSH1 0x0 DUP4 MLOAD PUSH8 0xFFFFFFFFFFFFFFFF DUP2 GT ISZERO PUSH2 0x555 JUMPI PUSH2 0x554 PUSH2 0x1B23 JUMP JUMPDEST JUMPDEST PUSH1 0x40 MLOAD SWAP1 DUP1 DUP3 MSTORE DUP1 PUSH1 0x20 MUL PUSH1 0x20 ADD DUP3 ADD PUSH1 0x40 MSTORE DUP1 ISZERO PUSH2 0x583 JUMPI DUP2 PUSH1 0x20 ADD PUSH1 0x20 DUP3 MUL DUP1 CALLDATASIZE DUP4 CALLDATACOPY DUP1 DUP3 ADD SWAP2 POP POP SWAP1 POP JUMPDEST POP SWAP1 POP PUSH1 0x0 JUMPDEST DUP5 MLOAD DUP2 LT ISZERO PUSH2 0x5F0 JUMPI PUSH2 0x5C0 PUSH2 0x5A8 DUP3 DUP8 PUSH2 0xAAD SWAP1 SWAP2 SWAP1 PUSH4 0xFFFFFFFF AND JUMP JUMPDEST PUSH2 0x5BB DUP4 DUP8 PUSH2 0xAC1 SWAP1 SWAP2 SWAP1 PUSH4 0xFFFFFFFF AND JUMP JUMPDEST PUSH2 0x25E JUMP JUMPDEST DUP3 DUP3 DUP2 MLOAD DUP2 LT PUSH2 0x5D3 JUMPI PUSH2 0x5D2 PUSH2 0x237D JUMP JUMPDEST JUMPDEST PUSH1 0x20 MUL PUSH1 0x20 ADD ADD DUP2 DUP2 MSTORE POP POP DUP1 PUSH2 0x5E9 SWAP1 PUSH2 0x23DB JUMP JUMPDEST SWAP1 POP PUSH2 0x589 JUMP JUMPDEST POP DUP1 SWAP2 POP POP SWAP3 SWAP2 POP POP JUMP JUMPDEST PUSH2 0x617 DUP3 PUSH1 0x8 DUP4 PUSH1 0x40 MLOAD DUP1 PUSH1 0x20 ADD PUSH1 0x40 MSTORE DUP1 PUSH1 0x0 DUP2 MSTORE POP PUSH2 0xAD5 JUMP JUMPDEST POP POP JUMP JUMPDEST PUSH1 0x0 PUSH1 0x64 PUSH2 0x628 CALLER PUSH2 0xB6E JUMP JUMPDEST PUSH1 0x69 PUSH2 0x634 SWAP2 SWAP1 PUSH2 0x2423 JUMP JUMPDEST PUSH2 0x1F4 PUSH2 0x641 SWAP2 SWAP1 PUSH2 0x2423 JUMP JUMPDEST PUSH2 0x64B SWAP2 SWAP1 PUSH2 0x2494 JUMP JUMPDEST SWAP1 POP SWAP1 JUMP JUMPDEST PUSH2 0x662 PUSH2 0x65B PUSH2 0x8DA JUMP JUMPDEST DUP4 DUP4 PUSH2 0xBB8 JUMP JUMPDEST POP POP JUMP JUMPDEST PUSH1 0x0 PUSH1 0x1 PUSH1 0x0 DUP5 PUSH20 0xFFFFFFFFFFFFFFFFFFFFFFFFFFFFFFFFFFFFFFFF AND PUSH20 0xFFFFFFFFFFFFFFFFFFFFFFFFFFFFFFFFFFFFFFFF AND DUP2 MSTORE PUSH1 0x20 ADD SWAP1 DUP2 MSTORE PUSH1 0x20 ADD PUSH1 0x0 KECCAK256 PUSH1 0x0 DUP4 PUSH20 0xFFFFFFFFFFFFFFFFFFFFFFFFFFFFFFFFFFFFFFFF AND PUSH20 0xFFFFFFFFFFFFFFFFFFFFFFFFFFFFFFFFFFFFFFFF AND DUP2 MSTORE PUSH1 0x20 ADD SWAP1 DUP2 MSTORE PUSH1 0x20 ADD PUSH1 0x0 KECCAK256 PUSH1 0x0 SWAP1 SLOAD SWAP1 PUSH2 0x100 EXP SWAP1 DIV PUSH1 0xFF AND SWAP1 POP SWAP3 SWAP2 POP POP JUMP JUMPDEST PUSH1 0x0 PUSH2 0x704 PUSH2 0x8DA JUMP JUMPDEST SWAP1 POP DUP1 PUSH20 0xFFFFFFFFFFFFFFFFFFFFFFFFFFFFFFFFFFFFFFFF AND DUP7 PUSH20 0xFFFFFFFFFFFFFFFFFFFFFFFFFFFFFFFFFFFFFFFF AND EQ ISZERO DUP1 ISZERO PUSH2 0x749 JUMPI POP PUSH2 0x747 DUP7 DUP3 PUSH2 0x666 JUMP JUMPDEST ISZERO JUMPDEST ISZERO PUSH2 0x78D JUMPI DUP1 DUP7 PUSH1 0x40 MLOAD PUSH32 0xE237D92200000000000000000000000000000000000000000000000000000000 DUP2 MSTORE PUSH1 0x4 ADD PUSH2 0x784 SWAP3 SWAP2 SWAP1 PUSH2 0x22BF JUMP JUMPDEST PUSH1 0x40 MLOAD DUP1 SWAP2 SUB SWAP1 REVERT JUMPDEST PUSH2 0x79A DUP7 DUP7 DUP7 DUP7 DUP7 PUSH2 0xD28 JUMP JUMPDEST POP POP POP POP POP POP JUMP JUMPDEST PUSH1 0x0 PUSH32 0x1FFC9A700000000000000000000000000000000000000000000000000000000 PUSH28 0xFFFFFFFFFFFFFFFFFFFFFFFFFFFFFFFFFFFFFFFFFFFFFFFFFFFFFFFF NOT AND DUP3 PUSH28 0xFFFFFFFFFFFFFFFFFFFFFFFFFFFFFFFFFFFFFFFFFFFFFFFFFFFFFFFF NOT AND EQ SWAP1 POP SWAP2 SWAP1 POP JUMP JUMPDEST PUSH1 0x60 PUSH1 0x0 PUSH1 0x1 PUSH2 0x81B DUP5 PUSH2 0xE33 JUMP JUMPDEST ADD SWAP1 POP PUSH1 0x0 DUP2 PUSH8 0xFFFFFFFFFFFFFFFF DUP2 GT ISZERO PUSH2 0x83A JUMPI PUSH2 0x839 PUSH2 0x1B23 JUMP JUMPDEST JUMPDEST PUSH1 0x40 MLOAD SWAP1 DUP1 DUP3 MSTORE DUP1 PUSH1 0x1F ADD PUSH1 0x1F NOT AND PUSH1 0x20 ADD DUP3 ADD PUSH1 0x40 MSTORE DUP1 ISZERO PUSH2 0x86C JUMPI DUP2 PUSH1 0x20 ADD PUSH1 0x1 DUP3 MUL DUP1 CALLDATASIZE DUP4 CALLDATACOPY DUP1 DUP3 ADD SWAP2 POP POP SWAP1 POP JUMPDEST POP SWAP1 POP PUSH1 0x0 DUP3 PUSH1 0x20 ADD DUP3 ADD SWAP1 POP JUMPDEST PUSH1 0x1 ISZERO PUSH2 0x8CF JUMPI DUP1 DUP1 PUSH1 0x1 SWAP1 SUB SWAP2 POP POP PUSH32 0x3031323334353637383961626364656600000000000000000000000000000000 PUSH1 0xA DUP7 MOD BYTE DUP2 MSTORE8 PUSH1 0xA DUP6 DUP2 PUSH2 0x8C3 JUMPI PUSH2 0x8C2 PUSH2 0x2465 JUMP JUMPDEST JUMPDEST DIV SWAP5 POP PUSH1 0x0 DUP6 SUB PUSH2 0x87A JUMPI JUMPDEST DUP2 SWAP4 POP POP POP POP SWAP2 SWAP1 POP JUMP JUMPDEST PUSH1 0x0 CALLER SWAP1 POP SWAP1 JUMP JUMPDEST PUSH1 0x0 PUSH20 0xFFFFFFFFFFFFFFFFFFFFFFFFFFFFFFFFFFFFFFFF AND DUP5 PUSH20 0xFFFFFFFFFFFFFFFFFFFFFFFFFFFFFFFFFFFFFFFF AND SUB PUSH2 0x954 JUMPI PUSH1 0x0 PUSH1 0x40 MLOAD PUSH32 0x57F447CE00000000000000000000000000000000000000000000000000000000 DUP2 MSTORE PUSH1 0x4 ADD PUSH2 0x94B SWAP2 SWAP1 PUSH2 0x1DF9 JUMP JUMPDEST PUSH1 0x40 MLOAD DUP1 SWAP2 SUB SWAP1 REVERT JUMPDEST PUSH1 0x0 PUSH20 0xFFFFFFFFFFFFFFFFFFFFFFFFFFFFFFFFFFFFFFFF AND DUP6 PUSH20 0xFFFFFFFFFFFFFFFFFFFFFFFFFFFFFFFFFFFFFFFF AND SUB PUSH2 0x9C6 JUMPI PUSH1 0x0 PUSH1 0x40 MLOAD PUSH32 0x1A8351400000000000000000000000000000000000000000000000000000000 DUP2 MSTORE PUSH1 0x4 ADD PUSH2 0x9BD SWAP2 SWAP1 PUSH2 0x1DF9 JUMP JUMPDEST PUSH1 0x40 MLOAD DUP1 SWAP2 SUB SWAP1 REVERT JUMPDEST PUSH2 0x9D3 DUP6 DUP6 DUP6 DUP6 DUP6 PUSH2 0xF86 JUMP JUMPDEST POP POP POP POP POP JUMP JUMPDEST PUSH1 0x0 PUSH2 0x9E4 PUSH2 0x1038 JUMP JUMPDEST SWAP1 POP PUSH2 0xA02 DUP3 DUP3 PUSH1 0x1 PUSH1 0x40 MLOAD DUP1 PUSH1 0x20 ADD PUSH1 0x40 MSTORE DUP1 PUSH1 0x0 DUP2 MSTORE POP PUSH2 0xAD5 JUMP JUMPDEST POP POP JUMP JUMPDEST PUSH1 0x0 PUSH20 0xFFFFFFFFFFFFFFFFFFFFFFFFFFFFFFFFFFFFFFFF AND DUP4 PUSH20 0xFFFFFFFFFFFFFFFFFFFFFFFFFFFFFFFFFFFFFFFF AND SUB PUSH2 0xA78 JUMPI PUSH1 0x0 PUSH1 0x40 MLOAD PUSH32 0x1A8351400000000000000000000000000000000000000000000000000000000 DUP2 MSTORE PUSH1 0x4 ADD PUSH2 0xA6F SWAP2 SWAP1 PUSH2 0x1DF9 JUMP JUMPDEST PUSH1 0x40 MLOAD DUP1 SWAP2 SUB SWAP1 REVERT JUMPDEST PUSH1 0x0 DUP1 PUSH2 0xA85 DUP5 DUP5 PUSH2 0x112C JUMP JUMPDEST SWAP2 POP SWAP2 POP PUSH2 0xAA6 DUP6 PUSH1 0x0 DUP5 DUP5 PUSH1 0x40 MLOAD DUP1 PUSH1 0x20 ADD PUSH1 0x40 MSTORE DUP1 PUSH1 0x0 DUP2 MSTORE POP PUSH2 0xF86 JUMP JUMPDEST POP POP POP POP POP JUMP JUMPDEST PUSH1 0x0 PUSH1 0x20 DUP3 MUL PUSH1 0x20 DUP5 ADD ADD MLOAD SWAP1 POP SWAP3 SWAP2 POP POP JUMP JUMPDEST PUSH1 0x0 PUSH1 0x20 DUP3 MUL PUSH1 0x20 DUP5 ADD ADD MLOAD SWAP1 POP SWAP3 SWAP2 POP POP JUMP JUMPDEST PUSH1 0x0 PUSH20 0xFFFFFFFFFFFFFFFFFFFFFFFFFFFFFFFFFFFFFFFF AND DUP5 PUSH20 0xFFFFFFFFFFFFFFFFFFFFFFFFFFFFFFFFFFFFFFFF AND SUB PUSH2 0xB47 JUMPI PUSH1 0x0 PUSH1 0x40 MLOAD PUSH32 0x57F447CE00000000000000000000000000000000000000000000000000000000 DUP2 MSTORE PUSH1 0x4 ADD PUSH2 0xB3E SWAP2 SWAP1 PUSH2 0x1DF9 JUMP JUMPDEST PUSH1 0x40 MLOAD DUP1 SWAP2 SUB SWAP1 REVERT JUMPDEST PUSH1 0x0 DUP1 PUSH2 0xB54 DUP6 DUP6 PUSH2 0x112C JUMP JUMPDEST SWAP2 POP SWAP2 POP PUSH2 0xB66 PUSH1 0x0 DUP8 DUP5 DUP5 DUP8 PUSH2 0xF86 JUMP JUMPDEST POP POP POP POP POP POP JUMP JUMPDEST PUSH1 0x0 DUP1 PUSH1 0x0 SWAP1 POP PUSH1 0x0 PUSH1 0x1 SWAP1 POP JUMPDEST PUSH1 0x7 DUP2 GT PUSH2 0xBAE JUMPI PUSH2 0xB8E DUP5 DUP3 PUSH2 0x25E JUMP JUMPDEST DUP3 PUSH2 0xB99 SWAP2 SWAP1 PUSH2 0x24C5 JUMP JUMPDEST SWAP2 POP DUP1 DUP1 PUSH2 0xBA6 SWAP1 PUSH2 0x23DB JUMP JUMPDEST SWAP2 POP POP PUSH2 0xB7C JUMP JUMPDEST POP DUP1 SWAP2 POP POP SWAP2 SWAP1 POP JUMP JUMPDEST PUSH1 0x0 PUSH20 0xFFFFFFFFFFFFFFFFFFFFFFFFFFFFFFFFFFFFFFFF AND DUP3 PUSH20 0xFFFFFFFFFFFFFFFFFFFFFFFFFFFFFFFFFFFFFFFF AND SUB PUSH2 0xC2A JUMPI PUSH1 0x0 PUSH1 0x40 MLOAD PUSH32 0xCED3E10000000000000000000000000000000000000000000000000000000000 DUP2 MSTORE PUSH1 0x4 ADD PUSH2 0xC21 SWAP2 SWAP1 PUSH2 0x1DF9 JUMP JUMPDEST PUSH1 0x40 MLOAD DUP1 SWAP2 SUB SWAP1 REVERT JUMPDEST DUP1 PUSH1 0x1 PUSH1 0x0 DUP6 PUSH20 0xFFFFFFFFFFFFFFFFFFFFFFFFFFFFFFFFFFFFFFFF AND PUSH20 0xFFFFFFFFFFFFFFFFFFFFFFFFFFFFFFFFFFFFFFFF AND DUP2 MSTORE PUSH1 0x20 ADD SWAP1 DUP2 MSTORE PUSH1 0x20 ADD PUSH1 0x0 KECCAK256 PUSH1 0x0 DUP5 PUSH20 0xFFFFFFFFFFFFFFFFFFFFFFFFFFFFFFFFFFFFFFFF AND PUSH20 0xFFFFFFFFFFFFFFFFFFFFFFFFFFFFFFFFFFFFFFFF AND DUP2 MSTORE PUSH1 0x20 ADD SWAP1 DUP2 MSTORE PUSH1 0x20 ADD PUSH1 0x0 KECCAK256 PUSH1 0x0 PUSH2 0x100 EXP DUP2 SLOAD DUP2 PUSH1 0xFF MUL NOT AND SWAP1 DUP4 ISZERO ISZERO MUL OR SWAP1 SSTORE POP DUP2 PUSH20 0xFFFFFFFFFFFFFFFFFFFFFFFFFFFFFFFFFFFFFFFF AND DUP4 PUSH20 0xFFFFFFFFFFFFFFFFFFFFFFFFFFFFFFFFFFFFFFFF AND PUSH32 0x17307EAB39AB6107E8899845AD3D59BD9653F200F220920489CA2B5937696C31 DUP4 PUSH1 0x40 MLOAD PUSH2 0xD1B SWAP2 SWAP1 PUSH2 0x1A24 JUMP JUMPDEST PUSH1 0x40 MLOAD DUP1 SWAP2 SUB SWAP1 LOG3 POP POP POP JUMP JUMPDEST PUSH1 0x0 PUSH20 0xFFFFFFFFFFFFFFFFFFFFFFFFFFFFFFFFFFFFFFFF AND DUP5 PUSH20 0xFFFFFFFFFFFFFFFFFFFFFFFFFFFFFFFFFFFFFFFF AND SUB PUSH2 0xD9A JUMPI PUSH1 0x0 PUSH1 0x40 MLOAD PUSH32 0x57F447CE00000000000000000000000000000000000000000000000000000000 DUP2 MSTORE PUSH1 0x4 ADD PUSH2 0xD91 SWAP2 SWAP1 PUSH2 0x1DF9 JUMP JUMPDEST PUSH1 0x40 MLOAD DUP1 SWAP2 SUB SWAP1 REVERT JUMPDEST PUSH1 0x0 PUSH20 0xFFFFFFFFFFFFFFFFFFFFFFFFFFFFFFFFFFFFFFFF AND DUP6 PUSH20 0xFFFFFFFFFFFFFFFFFFFFFFFFFFFFFFFFFFFFFFFF AND SUB PUSH2 0xE0C JUMPI PUSH1 0x0 PUSH1 0x40 MLOAD PUSH32 0x1A8351400000000000000000000000000000000000000000000000000000000 DUP2 MSTORE PUSH1 0x4 ADD PUSH2 0xE03 SWAP2 SWAP1 PUSH2 0x1DF9 JUMP JUMPDEST PUSH1 0x40 MLOAD DUP1 SWAP2 SUB SWAP1 REVERT JUMPDEST PUSH1 0x0 DUP1 PUSH2 0xE19 DUP6 DUP6 PUSH2 0x112C JUMP JUMPDEST SWAP2 POP SWAP2 POP PUSH2 0xE2A DUP8 DUP8 DUP5 DUP5 DUP8 PUSH2 0xF86 JUMP JUMPDEST POP POP POP POP POP POP POP JUMP JUMPDEST PUSH1 0x0 DUP1 PUSH1 0x0 SWAP1 POP PUSH27 0x184F03E93FF9F4DAA797ED6E38ED64BF6A1F010000000000000000 DUP4 LT PUSH2 0xE91 JUMPI PUSH27 0x184F03E93FF9F4DAA797ED6E38ED64BF6A1F010000000000000000 DUP4 DUP2 PUSH2 0xE87 JUMPI PUSH2 0xE86 PUSH2 0x2465 JUMP JUMPDEST JUMPDEST DIV SWAP3 POP PUSH1 0x40 DUP2 ADD SWAP1 POP JUMPDEST PUSH14 0x4EE2D6D415B85ACEF8100000000 DUP4 LT PUSH2 0xECE JUMPI PUSH14 0x4EE2D6D415B85ACEF8100000000 DUP4 DUP2 PUSH2 0xEC4 JUMPI PUSH2 0xEC3 PUSH2 0x2465 JUMP JUMPDEST JUMPDEST DIV SWAP3 POP PUSH1 0x20 DUP2 ADD SWAP1 POP JUMPDEST PUSH7 0x2386F26FC10000 DUP4 LT PUSH2 0xEFD JUMPI PUSH7 0x2386F26FC10000 DUP4 DUP2 PUSH2 0xEF3 JUMPI PUSH2 0xEF2 PUSH2 0x2465 JUMP JUMPDEST JUMPDEST DIV SWAP3 POP PUSH1 0x10 DUP2 ADD SWAP1 POP JUMPDEST PUSH4 0x5F5E100 DUP4 LT PUSH2 0xF26 JUMPI PUSH4 0x5F5E100 DUP4 DUP2 PUSH2 0xF1C JUMPI PUSH2 0xF1B PUSH2 0x2465 JUMP JUMPDEST JUMPDEST DIV SWAP3 POP PUSH1 0x8 DUP2 ADD SWAP1 POP JUMPDEST PUSH2 0x2710 DUP4 LT PUSH2 0xF4B JUMPI PUSH2 0x2710 DUP4 DUP2 PUSH2 0xF41 JUMPI PUSH2 0xF40 PUSH2 0x2465 JUMP JUMPDEST JUMPDEST DIV SWAP3 POP PUSH1 0x4 DUP2 ADD SWAP1 POP JUMPDEST PUSH1 0x64 DUP4 LT PUSH2 0xF6E JUMPI PUSH1 0x64 DUP4 DUP2 PUSH2 0xF64 JUMPI PUSH2 0xF63 PUSH2 0x2465 JUMP JUMPDEST JUMPDEST DIV SWAP3 POP PUSH1 0x2 DUP2 ADD SWAP1 POP JUMPDEST PUSH1 0xA DUP4 LT PUSH2 0xF7D JUMPI PUSH1 0x1 DUP2 ADD SWAP1 POP JUMPDEST DUP1 SWAP2 POP POP SWAP2 SWAP1 POP JUMP JUMPDEST PUSH2 0xF92 DUP6 DUP6 DUP6 DUP6 PUSH2 0x115C JUMP JUMPDEST PUSH1 0x0 PUSH20 0xFFFFFFFFFFFFFFFFFFFFFFFFFFFFFFFFFFFFFFFF AND DUP5 PUSH20 0xFFFFFFFFFFFFFFFFFFFFFFFFFFFFFFFFFFFFFFFF AND EQ PUSH2 0x1031 JUMPI PUSH1 0x0 PUSH2 0xFD0 PUSH2 0x8DA JUMP JUMPDEST SWAP1 POP PUSH1 0x1 DUP5 MLOAD SUB PUSH2 0x1020 JUMPI PUSH1 0x0 PUSH2 0xFF1 PUSH1 0x0 DUP7 PUSH2 0xAC1 SWAP1 SWAP2 SWAP1 PUSH4 0xFFFFFFFF AND JUMP JUMPDEST SWAP1 POP PUSH1 0x0 PUSH2 0x1009 PUSH1 0x0 DUP7 PUSH2 0xAC1 SWAP1 SWAP2 SWAP1 PUSH4 0xFFFFFFFF AND JUMP JUMPDEST SWAP1 POP PUSH2 0x1019 DUP4 DUP10 DUP10 DUP6 DUP6 DUP10 PUSH2 0x150A JUMP JUMPDEST POP POP PUSH2 0x102F JUMP JUMPDEST PUSH2 0x102E DUP2 DUP8 DUP8 DUP8 DUP8 DUP8 PUSH2 0x16BE JUMP JUMPDEST JUMPDEST POP JUMPDEST POP POP POP POP POP JUMP JUMPDEST PUSH1 0x0 DUP1 TIMESTAMP CALLER PUSH1 0x40 MLOAD PUSH1 0x20 ADD PUSH2 0x104E SWAP3 SWAP2 SWAP1 PUSH2 0x2562 JUMP JUMPDEST PUSH1 0x40 MLOAD PUSH1 0x20 DUP2 DUP4 SUB SUB DUP2 MSTORE SWAP1 PUSH1 0x40 MSTORE DUP1 MLOAD SWAP1 PUSH1 0x20 ADD KECCAK256 PUSH1 0x0 SHR SWAP1 POP PUSH1 0x1 PUSH1 0x64 DUP3 PUSH2 0x1078 SWAP2 SWAP1 PUSH2 0x258E JUMP JUMPDEST LT ISZERO PUSH2 0x1088 JUMPI PUSH1 0x7 SWAP2 POP POP PUSH2 0x1129 JUMP JUMPDEST PUSH1 0x5 PUSH1 0x64 DUP3 PUSH2 0x1097 SWAP2 SWAP1 PUSH2 0x258E JUMP JUMPDEST LT ISZERO PUSH2 0x10A7 JUMPI PUSH1 0x6 SWAP2 POP POP PUSH2 0x1129 JUMP JUMPDEST PUSH1 0xC PUSH1 0x64 DUP3 PUSH2 0x10B6 SWAP2 SWAP1 PUSH2 0x258E JUMP JUMPDEST LT ISZERO PUSH2 0x10C6 JUMPI PUSH1 0x4 SWAP2 POP POP PUSH2 0x1129 JUMP JUMPDEST PUSH1 0x17 PUSH1 0x64 DUP3 PUSH2 0x10D5 SWAP2 SWAP1 PUSH2 0x258E JUMP JUMPDEST LT ISZERO PUSH2 0x10E5 JUMPI PUSH1 0x3 SWAP2 POP POP PUSH2 0x1129 JUMP JUMPDEST PUSH1 0x23 PUSH1 0x64 DUP3 PUSH2 0x10F4 SWAP2 SWAP1 PUSH2 0x258E JUMP JUMPDEST LT ISZERO PUSH2 0x1104 JUMPI PUSH1 0x2 SWAP2 POP POP PUSH2 0x1129 JUMP JUMPDEST PUSH1 0x32 PUSH1 0x64 DUP3 PUSH2 0x1113 SWAP2 SWAP1 PUSH2 0x258E JUMP JUMPDEST LT ISZERO PUSH2 0x1123 JUMPI PUSH1 0x5 SWAP2 POP POP PUSH2 0x1129 JUMP JUMPDEST PUSH1 0x1 SWAP2 POP POP JUMPDEST SWAP1 JUMP JUMPDEST PUSH1 0x60 DUP1 PUSH1 0x40 MLOAD SWAP2 POP PUSH1 0x1 DUP3 MSTORE DUP4 PUSH1 0x20 DUP4 ADD MSTORE PUSH1 0x40 DUP3 ADD SWAP1 POP PUSH1 0x1 DUP2 MSTORE DUP3 PUSH1 0x20 DUP3 ADD MSTORE PUSH1 0x40 DUP2 ADD PUSH1 0x40 MSTORE SWAP3 POP SWAP3 SWAP1 POP JUMP JUMPDEST DUP1 MLOAD DUP3 MLOAD EQ PUSH2 0x11A6 JUMPI DUP2 MLOAD DUP2 MLOAD PUSH1 0x40 MLOAD PUSH32 0x5B05999100000000000000000000000000000000000000000000000000000000 DUP2 MSTORE PUSH1 0x4 ADD PUSH2 0x119D SWAP3 SWAP2 SWAP1 PUSH2 0x2354 JUMP JUMPDEST PUSH1 0x40 MLOAD DUP1 SWAP2 SUB SWAP1 REVERT JUMPDEST PUSH1 0x0 PUSH2 0x11B0 PUSH2 0x8DA JUMP JUMPDEST SWAP1 POP PUSH1 0x0 JUMPDEST DUP4 MLOAD DUP2 LT ISZERO PUSH2 0x13C5 JUMPI PUSH1 0x0 PUSH2 0x11D3 DUP3 DUP7 PUSH2 0xAC1 SWAP1 SWAP2 SWAP1 PUSH4 0xFFFFFFFF AND JUMP JUMPDEST SWAP1 POP PUSH1 0x0 PUSH2 0x11EA DUP4 DUP7 PUSH2 0xAC1 SWAP1 SWAP2 SWAP1 PUSH4 0xFFFFFFFF AND JUMP JUMPDEST SWAP1 POP PUSH1 0x0 PUSH20 0xFFFFFFFFFFFFFFFFFFFFFFFFFFFFFFFFFFFFFFFF AND DUP9 PUSH20 0xFFFFFFFFFFFFFFFFFFFFFFFFFFFFFFFFFFFFFFFF AND EQ PUSH2 0x1317 JUMPI PUSH1 0x0 DUP1 PUSH1 0x0 DUP5 DUP2 MSTORE PUSH1 0x20 ADD SWAP1 DUP2 MSTORE PUSH1 0x20 ADD PUSH1 0x0 KECCAK256 PUSH1 0x0 DUP11 PUSH20 0xFFFFFFFFFFFFFFFFFFFFFFFFFFFFFFFFFFFFFFFF AND PUSH20 0xFFFFFFFFFFFFFFFFFFFFFFFFFFFFFFFFFFFFFFFF AND DUP2 MSTORE PUSH1 0x20 ADD SWAP1 DUP2 MSTORE PUSH1 0x20 ADD PUSH1 0x0 KECCAK256 SLOAD SWAP1 POP DUP2 DUP2 LT ISZERO PUSH2 0x12BF JUMPI DUP9 DUP2 DUP4 DUP6 PUSH1 0x40 MLOAD PUSH32 0x3DEE4C500000000000000000000000000000000000000000000000000000000 DUP2 MSTORE PUSH1 0x4 ADD PUSH2 0x12B6 SWAP5 SWAP4 SWAP3 SWAP2 SWAP1 PUSH2 0x25BF JUMP JUMPDEST PUSH1 0x40 MLOAD DUP1 SWAP2 SUB SWAP1 REVERT JUMPDEST DUP2 DUP2 SUB PUSH1 0x0 DUP1 DUP6 DUP2 MSTORE PUSH1 0x20 ADD SWAP1 DUP2 MSTORE PUSH1 0x20 ADD PUSH1 0x0 KECCAK256 PUSH1 0x0 DUP12 PUSH20 0xFFFFFFFFFFFFFFFFFFFFFFFFFFFFFFFFFFFFFFFF AND PUSH20 0xFFFFFFFFFFFFFFFFFFFFFFFFFFFFFFFFFFFFFFFF AND DUP2 MSTORE PUSH1 0x20 ADD SWAP1 DUP2 MSTORE PUSH1 0x20 ADD PUSH1 0x0 KECCAK256 DUP2 SWAP1 SSTORE POP POP JUMPDEST PUSH1 0x0 PUSH20 0xFFFFFFFFFFFFFFFFFFFFFFFFFFFFFFFFFFFFFFFF AND DUP8 PUSH20 0xFFFFFFFFFFFFFFFFFFFFFFFFFFFFFFFFFFFFFFFF AND EQ PUSH2 0x13B2 JUMPI DUP1 PUSH1 0x0 DUP1 DUP5 DUP2 MSTORE PUSH1 0x20 ADD SWAP1 DUP2 MSTORE PUSH1 0x20 ADD PUSH1 0x0 KECCAK256 PUSH1 0x0 DUP10 PUSH20 0xFFFFFFFFFFFFFFFFFFFFFFFFFFFFFFFFFFFFFFFF AND PUSH20 0xFFFFFFFFFFFFFFFFFFFFFFFFFFFFFFFFFFFFFFFF AND DUP2 MSTORE PUSH1 0x20 ADD SWAP1 DUP2 MSTORE PUSH1 0x20 ADD PUSH1 0x0 KECCAK256 PUSH1 0x0 DUP3 DUP3 SLOAD PUSH2 0x13AA SWAP2 SWAP1 PUSH2 0x24C5 JUMP JUMPDEST SWAP3 POP POP DUP2 SWAP1 SSTORE POP JUMPDEST POP POP DUP1 PUSH2 0x13BE SWAP1 PUSH2 0x23DB JUMP JUMPDEST SWAP1 POP PUSH2 0x11B5 JUMP JUMPDEST POP PUSH1 0x1 DUP4 MLOAD SUB PUSH2 0x1484 JUMPI PUSH1 0x0 PUSH2 0x13E5 PUSH1 0x0 DUP6 PUSH2 0xAC1 SWAP1 SWAP2 SWAP1 PUSH4 0xFFFFFFFF AND JUMP JUMPDEST SWAP1 POP PUSH1 0x0 PUSH2 0x13FD PUSH1 0x0 DUP6 PUSH2 0xAC1 SWAP1 SWAP2 SWAP1 PUSH4 0xFFFFFFFF AND JUMP JUMPDEST SWAP1 POP DUP6 PUSH20 0xFFFFFFFFFFFFFFFFFFFFFFFFFFFFFFFFFFFFFFFF AND DUP8 PUSH20 0xFFFFFFFFFFFFFFFFFFFFFFFFFFFFFFFFFFFFFFFF AND DUP5 PUSH20 0xFFFFFFFFFFFFFFFFFFFFFFFFFFFFFFFFFFFFFFFF AND PUSH32 0xC3D58168C5AE7397731D063D5BBF3D657854427343F4C083240F7AACAA2D0F62 DUP6 DUP6 PUSH1 0x40 MLOAD PUSH2 0x1475 SWAP3 SWAP2 SWAP1 PUSH2 0x2354 JUMP JUMPDEST PUSH1 0x40 MLOAD DUP1 SWAP2 SUB SWAP1 LOG4 POP POP PUSH2 0x1503 JUMP JUMPDEST DUP4 PUSH20 0xFFFFFFFFFFFFFFFFFFFFFFFFFFFFFFFFFFFFFFFF AND DUP6 PUSH20 0xFFFFFFFFFFFFFFFFFFFFFFFFFFFFFFFFFFFFFFFF AND DUP3 PUSH20 0xFFFFFFFFFFFFFFFFFFFFFFFFFFFFFFFFFFFFFFFF AND PUSH32 0x4A39DC06D4C0DBC64B70AF90FD698A233A518AA5D07E595D983B8C0526C8F7FB DUP7 DUP7 PUSH1 0x40 MLOAD PUSH2 0x14FA SWAP3 SWAP2 SWAP1 PUSH2 0x2604 JUMP JUMPDEST PUSH1 0x40 MLOAD DUP1 SWAP2 SUB SWAP1 LOG4 JUMPDEST POP POP POP POP POP JUMP JUMPDEST PUSH1 0x0 DUP5 PUSH20 0xFFFFFFFFFFFFFFFFFFFFFFFFFFFFFFFFFFFFFFFF AND EXTCODESIZE GT ISZERO PUSH2 0x16B6 JUMPI DUP4 PUSH20 0xFFFFFFFFFFFFFFFFFFFFFFFFFFFFFFFFFFFFFFFF AND PUSH4 0xF23A6E61 DUP8 DUP8 DUP7 DUP7 DUP7 PUSH1 0x40 MLOAD DUP7 PUSH4 0xFFFFFFFF AND PUSH1 0xE0 SHL DUP2 MSTORE PUSH1 0x4 ADD PUSH2 0x156B SWAP6 SWAP5 SWAP4 SWAP3 SWAP2 SWAP1 PUSH2 0x2690 JUMP JUMPDEST PUSH1 0x20 PUSH1 0x40 MLOAD DUP1 DUP4 SUB DUP2 PUSH1 0x0 DUP8 GAS CALL SWAP3 POP POP POP DUP1 ISZERO PUSH2 0x15A7 JUMPI POP PUSH1 0x40 MLOAD RETURNDATASIZE PUSH1 0x1F NOT PUSH1 0x1F DUP3 ADD AND DUP3 ADD DUP1 PUSH1 0x40 MSTORE POP DUP2 ADD SWAP1 PUSH2 0x15A4 SWAP2 SWAP1 PUSH2 0x26FF JUMP JUMPDEST PUSH1 0x1 JUMPDEST PUSH2 0x162B JUMPI RETURNDATASIZE DUP1 PUSH1 0x0 DUP2 EQ PUSH2 0x15D7 JUMPI PUSH1 0x40 MLOAD SWAP2 POP PUSH1 0x1F NOT PUSH1 0x3F RETURNDATASIZE ADD AND DUP3 ADD PUSH1 0x40 MSTORE RETURNDATASIZE DUP3 MSTORE RETURNDATASIZE PUSH1 0x0 PUSH1 0x20 DUP5 ADD RETURNDATACOPY PUSH2 0x15DC JUMP JUMPDEST PUSH1 0x60 SWAP2 POP JUMPDEST POP PUSH1 0x0 DUP2 MLOAD SUB PUSH2 0x1623 JUMPI DUP5 PUSH1 0x40 MLOAD PUSH32 0x57F447CE00000000000000000000000000000000000000000000000000000000 DUP2 MSTORE PUSH1 0x4 ADD PUSH2 0x161A SWAP2 SWAP1 PUSH2 0x1DF9 JUMP JUMPDEST PUSH1 0x40 MLOAD DUP1 SWAP2 SUB SWAP1 REVERT JUMPDEST DUP1 MLOAD DUP2 PUSH1 0x20 ADD REVERT JUMPDEST PUSH4 0xF23A6E61 PUSH1 0xE0 SHL PUSH28 0xFFFFFFFFFFFFFFFFFFFFFFFFFFFFFFFFFFFFFFFFFFFFFFFFFFFFFFFF NOT AND DUP2 PUSH28 0xFFFFFFFFFFFFFFFFFFFFFFFFFFFFFFFFFFFFFFFFFFFFFFFFFFFFFFFF NOT AND EQ PUSH2 0x16B4 JUMPI DUP5 PUSH1 0x40 MLOAD PUSH32 0x57F447CE00000000000000000000000000000000000000000000000000000000 DUP2 MSTORE PUSH1 0x4 ADD PUSH2 0x16AB SWAP2 SWAP1 PUSH2 0x1DF9 JUMP JUMPDEST PUSH1 0x40 MLOAD DUP1 SWAP2 SUB SWAP1 REVERT JUMPDEST POP JUMPDEST POP POP POP POP POP POP JUMP JUMPDEST PUSH1 0x0 DUP5 PUSH20 0xFFFFFFFFFFFFFFFFFFFFFFFFFFFFFFFFFFFFFFFF AND EXTCODESIZE GT ISZERO PUSH2 0x186A JUMPI DUP4 PUSH20 0xFFFFFFFFFFFFFFFFFFFFFFFFFFFFFFFFFFFFFFFF AND PUSH4 0xBC197C81 DUP8 DUP8 DUP7 DUP7 DUP7 PUSH1 0x40 MLOAD DUP7 PUSH4 0xFFFFFFFF AND PUSH1 0xE0 SHL DUP2 MSTORE PUSH1 0x4 ADD PUSH2 0x171F SWAP6 SWAP5 SWAP4 SWAP3 SWAP2 SWAP1 PUSH2 0x272C JUMP JUMPDEST PUSH1 0x20 PUSH1 0x40 MLOAD DUP1 DUP4 SUB DUP2 PUSH1 0x0 DUP8 GAS CALL SWAP3 POP POP POP DUP1 ISZERO PUSH2 0x175B JUMPI POP PUSH1 0x40 MLOAD RETURNDATASIZE PUSH1 0x1F NOT PUSH1 0x1F DUP3 ADD AND DUP3 ADD DUP1 PUSH1 0x40 MSTORE POP DUP2 ADD SWAP1 PUSH2 0x1758 SWAP2 SWAP1 PUSH2 0x26FF JUMP JUMPDEST PUSH1 0x1 JUMPDEST PUSH2 0x17DF JUMPI RETURNDATASIZE DUP1 PUSH1 0x0 DUP2 EQ PUSH2 0x178B JUMPI PUSH1 0x40 MLOAD SWAP2 POP PUSH1 0x1F NOT PUSH1 0x3F RETURNDATASIZE ADD AND DUP3 ADD PUSH1 0x40 MSTORE RETURNDATASIZE DUP3 MSTORE RETURNDATASIZE PUSH1 0x0 PUSH1 0x20 DUP5 ADD RETURNDATACOPY PUSH2 0x1790 JUMP JUMPDEST PUSH1 0x60 SWAP2 POP JUMPDEST POP PUSH1 0x0 DUP2 MLOAD SUB PUSH2 0x17D7 JUMPI DUP5 PUSH1 0x40 MLOAD PUSH32 0x57F447CE00000000000000000000000000000000000000000000000000000000 DUP2 MSTORE PUSH1 0x4 ADD PUSH2 0x17CE SWAP2 SWAP1 PUSH2 0x1DF9 JUMP JUMPDEST PUSH1 0x40 MLOAD DUP1 SWAP2 SUB SWAP1 REVERT JUMPDEST DUP1 MLOAD DUP2 PUSH1 0x20 ADD REVERT JUMPDEST PUSH4 0xBC197C81 PUSH1 0xE0 SHL PUSH28 0xFFFFFFFFFFFFFFFFFFFFFFFFFFFFFFFFFFFFFFFFFFFFFFFFFFFFFFFF NOT AND DUP2 PUSH28 0xFFFFFFFFFFFFFFFFFFFFFFFFFFFFFFFFFFFFFFFFFFFFFFFFFFFFFFFF NOT AND EQ PUSH2 0x1868 JUMPI DUP5 PUSH1 0x40 MLOAD PUSH32 0x57F447CE00000000000000000000000000000000000000000000000000000000 DUP2 MSTORE PUSH1 0x4 ADD PUSH2 0x185F SWAP2 SWAP1 PUSH2 0x1DF9 JUMP JUMPDEST PUSH1 0x40 MLOAD DUP1 SWAP2 SUB SWAP1 REVERT JUMPDEST POP JUMPDEST POP POP POP POP POP POP JUMP JUMPDEST PUSH1 0x0 PUSH1 0x40 MLOAD SWAP1 POP SWAP1 JUMP JUMPDEST PUSH1 0x0 DUP1 REVERT JUMPDEST PUSH1 0x0 DUP1 REVERT JUMPDEST PUSH1 0x0 PUSH20 0xFFFFFFFFFFFFFFFFFFFFFFFFFFFFFFFFFFFFFFFF DUP3 AND SWAP1 POP SWAP2 SWAP1 POP JUMP JUMPDEST PUSH1 0x0 PUSH2 0x18B1 DUP3 PUSH2 0x1886 JUMP JUMPDEST SWAP1 POP SWAP2 SWAP1 POP JUMP JUMPDEST PUSH2 0x18C1 DUP2 PUSH2 0x18A6 JUMP JUMPDEST DUP2 EQ PUSH2 0x18CC JUMPI PUSH1 0x0 DUP1 REVERT JUMPDEST POP JUMP JUMPDEST PUSH1 0x0 DUP2 CALLDATALOAD SWAP1 POP PUSH2 0x18DE DUP2 PUSH2 0x18B8 JUMP JUMPDEST SWAP3 SWAP2 POP POP JUMP JUMPDEST PUSH1 0x0 DUP2 SWAP1 POP SWAP2 SWAP1 POP JUMP JUMPDEST PUSH2 0x18F7 DUP2 PUSH2 0x18E4 JUMP JUMPDEST DUP2 EQ PUSH2 0x1902 JUMPI PUSH1 0x0 DUP1 REVERT JUMPDEST POP JUMP JUMPDEST PUSH1 0x0 DUP2 CALLDATALOAD SWAP1 POP PUSH2 0x1914 DUP2 PUSH2 0x18EE JUMP JUMPDEST SWAP3 SWAP2 POP POP JUMP JUMPDEST PUSH1 0x0 DUP1 PUSH1 0x40 DUP4 DUP6 SUB SLT ISZERO PUSH2 0x1931 JUMPI PUSH2 0x1930 PUSH2 0x187C JUMP JUMPDEST JUMPDEST PUSH1 0x0 PUSH2 0x193F DUP6 DUP3 DUP7 ADD PUSH2 0x18CF JUMP JUMPDEST SWAP3 POP POP PUSH1 0x20 PUSH2 0x1950 DUP6 DUP3 DUP7 ADD PUSH2 0x1905 JUMP JUMPDEST SWAP2 POP POP SWAP3 POP SWAP3 SWAP1 POP JUMP JUMPDEST PUSH2 0x1963 DUP2 PUSH2 0x18E4 JUMP JUMPDEST DUP3 MSTORE POP POP JUMP JUMPDEST PUSH1 0x0 PUSH1 0x20 DUP3 ADD SWAP1 POP PUSH2 0x197E PUSH1 0x0 DUP4 ADD DUP5 PUSH2 0x195A JUMP JUMPDEST SWAP3 SWAP2 POP POP JUMP JUMPDEST PUSH1 0x0 PUSH32 0xFFFFFFFF00000000000000000000000000000000000000000000000000000000 DUP3 AND SWAP1 POP SWAP2 SWAP1 POP JUMP JUMPDEST PUSH2 0x19B9 DUP2 PUSH2 0x1984 JUMP JUMPDEST DUP2 EQ PUSH2 0x19C4 JUMPI PUSH1 0x0 DUP1 REVERT JUMPDEST POP JUMP JUMPDEST PUSH1 0x0 DUP2 CALLDATALOAD SWAP1 POP PUSH2 0x19D6 DUP2 PUSH2 0x19B0 JUMP JUMPDEST SWAP3 SWAP2 POP POP JUMP JUMPDEST PUSH1 0x0 PUSH1 0x20 DUP3 DUP5 SUB SLT ISZERO PUSH2 0x19F2 JUMPI PUSH2 0x19F1 PUSH2 0x187C JUMP JUMPDEST JUMPDEST PUSH1 0x0 PUSH2 0x1A00 DUP5 DUP3 DUP6 ADD PUSH2 0x19C7 JUMP JUMPDEST SWAP2 POP POP SWAP3 SWAP2 POP POP JUMP JUMPDEST PUSH1 0x0 DUP2 ISZERO ISZERO SWAP1 POP SWAP2 SWAP1 POP JUMP JUMPDEST PUSH2 0x1A1E DUP2 PUSH2 0x1A09 JUMP JUMPDEST DUP3 MSTORE POP POP JUMP JUMPDEST PUSH1 0x0 PUSH1 0x20 DUP3 ADD SWAP1 POP PUSH2 0x1A39 PUSH1 0x0 DUP4 ADD DUP5 PUSH2 0x1A15 JUMP JUMPDEST SWAP3 SWAP2 POP POP JUMP JUMPDEST PUSH1 0x0 PUSH1 0x20 DUP3 DUP5 SUB SLT ISZERO PUSH2 0x1A55 JUMPI PUSH2 0x1A54 PUSH2 0x187C JUMP JUMPDEST JUMPDEST PUSH1 0x0 PUSH2 0x1A63 DUP5 DUP3 DUP6 ADD PUSH2 0x1905 JUMP JUMPDEST SWAP2 POP POP SWAP3 SWAP2 POP POP JUMP JUMPDEST PUSH1 0x0 DUP2 MLOAD SWAP1 POP SWAP2 SWAP1 POP JUMP JUMPDEST PUSH1 0x0 DUP3 DUP3 MSTORE PUSH1 0x20 DUP3 ADD SWAP1 POP SWAP3 SWAP2 POP POP JUMP JUMPDEST PUSH1 0x0 JUMPDEST DUP4 DUP2 LT ISZERO PUSH2 0x1AA6 JUMPI DUP1 DUP3 ADD MLOAD DUP2 DUP5 ADD MSTORE PUSH1 0x20 DUP2 ADD SWAP1 POP PUSH2 0x1A8B JUMP JUMPDEST PUSH1 0x0 DUP5 DUP5 ADD MSTORE POP POP POP POP JUMP JUMPDEST PUSH1 0x0 PUSH1 0x1F NOT PUSH1 0x1F DUP4 ADD AND SWAP1 POP SWAP2 SWAP1 POP JUMP JUMPDEST PUSH1 0x0 PUSH2 0x1ACE DUP3 PUSH2 0x1A6C JUMP JUMPDEST PUSH2 0x1AD8 DUP2 DUP6 PUSH2 0x1A77 JUMP JUMPDEST SWAP4 POP PUSH2 0x1AE8 DUP2 DUP6 PUSH1 0x20 DUP7 ADD PUSH2 0x1A88 JUMP JUMPDEST PUSH2 0x1AF1 DUP2 PUSH2 0x1AB2 JUMP JUMPDEST DUP5 ADD SWAP2 POP POP SWAP3 SWAP2 POP POP JUMP JUMPDEST PUSH1 0x0 PUSH1 0x20 DUP3 ADD SWAP1 POP DUP2 DUP2 SUB PUSH1 0x0 DUP4 ADD MSTORE PUSH2 0x1B16 DUP2 DUP5 PUSH2 0x1AC3 JUMP JUMPDEST SWAP1 POP SWAP3 SWAP2 POP POP JUMP JUMPDEST PUSH1 0x0 DUP1 REVERT JUMPDEST PUSH32 0x4E487B7100000000000000000000000000000000000000000000000000000000 PUSH1 0x0 MSTORE PUSH1 0x41 PUSH1 0x4 MSTORE PUSH1 0x24 PUSH1 0x0 REVERT JUMPDEST PUSH2 0x1B5B DUP3 PUSH2 0x1AB2 JUMP JUMPDEST DUP2 ADD DUP2 DUP2 LT PUSH8 0xFFFFFFFFFFFFFFFF DUP3 GT OR ISZERO PUSH2 0x1B7A JUMPI PUSH2 0x1B79 PUSH2 0x1B23 JUMP JUMPDEST JUMPDEST DUP1 PUSH1 0x40 MSTORE POP POP POP JUMP JUMPDEST PUSH1 0x0 PUSH2 0x1B8D PUSH2 0x1872 JUMP JUMPDEST SWAP1 POP PUSH2 0x1B99 DUP3 DUP3 PUSH2 0x1B52 JUMP JUMPDEST SWAP2 SWAP1 POP JUMP JUMPDEST PUSH1 0x0 PUSH8 0xFFFFFFFFFFFFFFFF DUP3 GT ISZERO PUSH2 0x1BB9 JUMPI PUSH2 0x1BB8 PUSH2 0x1B23 JUMP JUMPDEST JUMPDEST PUSH1 0x20 DUP3 MUL SWAP1 POP PUSH1 0x20 DUP2 ADD SWAP1 POP SWAP2 SWAP1 POP JUMP JUMPDEST PUSH1 0x0 DUP1 REVERT JUMPDEST PUSH1 0x0 PUSH2 0x1BE2 PUSH2 0x1BDD DUP5 PUSH2 0x1B9E JUMP JUMPDEST PUSH2 0x1B83 JUMP JUMPDEST SWAP1 POP DUP1 DUP4 DUP3 MSTORE PUSH1 0x20 DUP3 ADD SWAP1 POP PUSH1 0x20 DUP5 MUL DUP4 ADD DUP6 DUP2 GT ISZERO PUSH2 0x1C05 JUMPI PUSH2 0x1C04 PUSH2 0x1BCA JUMP JUMPDEST JUMPDEST DUP4 JUMPDEST DUP2 DUP2 LT ISZERO PUSH2 0x1C2E JUMPI DUP1 PUSH2 0x1C1A DUP9 DUP3 PUSH2 0x1905 JUMP JUMPDEST DUP5 MSTORE PUSH1 0x20 DUP5 ADD SWAP4 POP POP PUSH1 0x20 DUP2 ADD SWAP1 POP PUSH2 0x1C07 JUMP JUMPDEST POP POP POP SWAP4 SWAP3 POP POP POP JUMP JUMPDEST PUSH1 0x0 DUP3 PUSH1 0x1F DUP4 ADD SLT PUSH2 0x1C4D JUMPI PUSH2 0x1C4C PUSH2 0x1B1E JUMP JUMPDEST JUMPDEST DUP2 CALLDATALOAD PUSH2 0x1C5D DUP5 DUP3 PUSH1 0x20 DUP7 ADD PUSH2 0x1BCF JUMP JUMPDEST SWAP2 POP POP SWAP3 SWAP2 POP POP JUMP JUMPDEST PUSH1 0x0 DUP1 REVERT JUMPDEST PUSH1 0x0 PUSH8 0xFFFFFFFFFFFFFFFF DUP3 GT ISZERO PUSH2 0x1C86 JUMPI PUSH2 0x1C85 PUSH2 0x1B23 JUMP JUMPDEST JUMPDEST PUSH2 0x1C8F DUP3 PUSH2 0x1AB2 JUMP JUMPDEST SWAP1 POP PUSH1 0x20 DUP2 ADD SWAP1 POP SWAP2 SWAP1 POP JUMP JUMPDEST DUP3 DUP2 DUP4 CALLDATACOPY PUSH1 0x0 DUP4 DUP4 ADD MSTORE POP POP POP JUMP JUMPDEST PUSH1 0x0 PUSH2 0x1CBE PUSH2 0x1CB9 DUP5 PUSH2 0x1C6B JUMP JUMPDEST PUSH2 0x1B83 JUMP JUMPDEST SWAP1 POP DUP3 DUP2 MSTORE PUSH1 0x20 DUP2 ADD DUP5 DUP5 DUP5 ADD GT ISZERO PUSH2 0x1CDA JUMPI PUSH2 0x1CD9 PUSH2 0x1C66 JUMP JUMPDEST JUMPDEST PUSH2 0x1CE5 DUP5 DUP3 DUP6 PUSH2 0x1C9C JUMP JUMPDEST POP SWAP4 SWAP3 POP POP POP JUMP JUMPDEST PUSH1 0x0 DUP3 PUSH1 0x1F DUP4 ADD SLT PUSH2 0x1D02 JUMPI PUSH2 0x1D01 PUSH2 0x1B1E JUMP JUMPDEST JUMPDEST DUP2 CALLDATALOAD PUSH2 0x1D12 DUP5 DUP3 PUSH1 0x20 DUP7 ADD PUSH2 0x1CAB JUMP JUMPDEST SWAP2 POP POP SWAP3 SWAP2 POP POP JUMP JUMPDEST PUSH1 0x0 DUP1 PUSH1 0x0 DUP1 PUSH1 0x0 PUSH1 0xA0 DUP7 DUP9 SUB SLT ISZERO PUSH2 0x1D37 JUMPI PUSH2 0x1D36 PUSH2 0x187C JUMP JUMPDEST JUMPDEST PUSH1 0x0 PUSH2 0x1D45 DUP9 DUP3 DUP10 ADD PUSH2 0x18CF JUMP JUMPDEST SWAP6 POP POP PUSH1 0x20 PUSH2 0x1D56 DUP9 DUP3 DUP10 ADD PUSH2 0x18CF JUMP JUMPDEST SWAP5 POP POP PUSH1 0x40 DUP7 ADD CALLDATALOAD PUSH8 0xFFFFFFFFFFFFFFFF DUP2 GT ISZERO PUSH2 0x1D77 JUMPI PUSH2 0x1D76 PUSH2 0x1881 JUMP JUMPDEST JUMPDEST PUSH2 0x1D83 DUP9 DUP3 DUP10 ADD PUSH2 0x1C38 JUMP JUMPDEST SWAP4 POP POP PUSH1 0x60 DUP7 ADD CALLDATALOAD PUSH8 0xFFFFFFFFFFFFFFFF DUP2 GT ISZERO PUSH2 0x1DA4 JUMPI PUSH2 0x1DA3 PUSH2 0x1881 JUMP JUMPDEST JUMPDEST PUSH2 0x1DB0 DUP9 DUP3 DUP10 ADD PUSH2 0x1C38 JUMP JUMPDEST SWAP3 POP POP PUSH1 0x80 DUP7 ADD CALLDATALOAD PUSH8 0xFFFFFFFFFFFFFFFF DUP2 GT ISZERO PUSH2 0x1DD1 JUMPI PUSH2 0x1DD0 PUSH2 0x1881 JUMP JUMPDEST JUMPDEST PUSH2 0x1DDD DUP9 DUP3 DUP10 ADD PUSH2 0x1CED JUMP JUMPDEST SWAP2 POP POP SWAP3 SWAP6 POP SWAP3 SWAP6 SWAP1 SWAP4 POP JUMP JUMPDEST PUSH2 0x1DF3 DUP2 PUSH2 0x18A6 JUMP JUMPDEST DUP3 MSTORE POP POP JUMP JUMPDEST PUSH1 0x0 PUSH1 0x20 DUP3 ADD SWAP1 POP PUSH2 0x1E0E PUSH1 0x0 DUP4 ADD DUP5 PUSH2 0x1DEA JUMP JUMPDEST SWAP3 SWAP2 POP POP JUMP JUMPDEST PUSH1 0x0 PUSH8 0xFFFFFFFFFFFFFFFF DUP3 GT ISZERO PUSH2 0x1E2F JUMPI PUSH2 0x1E2E PUSH2 0x1B23 JUMP JUMPDEST JUMPDEST PUSH1 0x20 DUP3 MUL SWAP1 POP PUSH1 0x20 DUP2 ADD SWAP1 POP SWAP2 SWAP1 POP JUMP JUMPDEST PUSH1 0x0 PUSH2 0x1E53 PUSH2 0x1E4E DUP5 PUSH2 0x1E14 JUMP JUMPDEST PUSH2 0x1B83 JUMP JUMPDEST SWAP1 POP DUP1 DUP4 DUP3 MSTORE PUSH1 0x20 DUP3 ADD SWAP1 POP PUSH1 0x20 DUP5 MUL DUP4 ADD DUP6 DUP2 GT ISZERO PUSH2 0x1E76 JUMPI PUSH2 0x1E75 PUSH2 0x1BCA JUMP JUMPDEST JUMPDEST DUP4 JUMPDEST DUP2 DUP2 LT ISZERO PUSH2 0x1E9F JUMPI DUP1 PUSH2 0x1E8B DUP9 DUP3 PUSH2 0x18CF JUMP JUMPDEST DUP5 MSTORE PUSH1 0x20 DUP5 ADD SWAP4 POP POP PUSH1 0x20 DUP2 ADD SWAP1 POP PUSH2 0x1E78 JUMP JUMPDEST POP POP POP SWAP4 SWAP3 POP POP POP JUMP JUMPDEST PUSH1 0x0 DUP3 PUSH1 0x1F DUP4 ADD SLT PUSH2 0x1EBE JUMPI PUSH2 0x1EBD PUSH2 0x1B1E JUMP JUMPDEST JUMPDEST DUP2 CALLDATALOAD PUSH2 0x1ECE DUP5 DUP3 PUSH1 0x20 DUP7 ADD PUSH2 0x1E40 JUMP JUMPDEST SWAP2 POP POP SWAP3 SWAP2 POP POP JUMP JUMPDEST PUSH1 0x0 DUP1 PUSH1 0x40 DUP4 DUP6 SUB SLT ISZERO PUSH2 0x1EEE JUMPI PUSH2 0x1EED PUSH2 0x187C JUMP JUMPDEST JUMPDEST PUSH1 0x0 DUP4 ADD CALLDATALOAD PUSH8 0xFFFFFFFFFFFFFFFF DUP2 GT ISZERO PUSH2 0x1F0C JUMPI PUSH2 0x1F0B PUSH2 0x1881 JUMP JUMPDEST JUMPDEST PUSH2 0x1F18 DUP6 DUP3 DUP7 ADD PUSH2 0x1EA9 JUMP JUMPDEST SWAP3 POP POP PUSH1 0x20 DUP4 ADD CALLDATALOAD PUSH8 0xFFFFFFFFFFFFFFFF DUP2 GT ISZERO PUSH2 0x1F39 JUMPI PUSH2 0x1F38 PUSH2 0x1881 JUMP JUMPDEST JUMPDEST PUSH2 0x1F45 DUP6 DUP3 DUP7 ADD PUSH2 0x1C38 JUMP JUMPDEST SWAP2 POP POP SWAP3 POP SWAP3 SWAP1 POP JUMP JUMPDEST PUSH1 0x0 DUP2 MLOAD SWAP1 POP SWAP2 SWAP1 POP JUMP JUMPDEST PUSH1 0x0 DUP3 DUP3 MSTORE PUSH1 0x20 DUP3 ADD SWAP1 POP SWAP3 SWAP2 POP POP JUMP JUMPDEST PUSH1 0x0 DUP2 SWAP1 POP PUSH1 0x20 DUP3 ADD SWAP1 POP SWAP2 SWAP1 POP JUMP JUMPDEST PUSH2 0x1F84 DUP2 PUSH2 0x18E4 JUMP JUMPDEST DUP3 MSTORE POP POP JUMP JUMPDEST PUSH1 0x0 PUSH2 0x1F96 DUP4 DUP4 PUSH2 0x1F7B JUMP JUMPDEST PUSH1 0x20 DUP4 ADD SWAP1 POP SWAP3 SWAP2 POP POP JUMP JUMPDEST PUSH1 0x0 PUSH1 0x20 DUP3 ADD SWAP1 POP SWAP2 SWAP1 POP JUMP JUMPDEST PUSH1 0x0 PUSH2 0x1FBA DUP3 PUSH2 0x1F4F JUMP JUMPDEST PUSH2 0x1FC4 DUP2 DUP6 PUSH2 0x1F5A JUMP JUMPDEST SWAP4 POP PUSH2 0x1FCF DUP4 PUSH2 0x1F6B JUMP JUMPDEST DUP1 PUSH1 0x0 JUMPDEST DUP4 DUP2 LT ISZERO PUSH2 0x2000 JUMPI DUP2 MLOAD PUSH2 0x1FE7 DUP9 DUP3 PUSH2 0x1F8A JUMP JUMPDEST SWAP8 POP PUSH2 0x1FF2 DUP4 PUSH2 0x1FA2 JUMP JUMPDEST SWAP3 POP POP PUSH1 0x1 DUP2 ADD SWAP1 POP PUSH2 0x1FD3 JUMP JUMPDEST POP DUP6 SWAP4 POP POP POP POP SWAP3 SWAP2 POP POP JUMP JUMPDEST PUSH1 0x0 PUSH1 0x20 DUP3 ADD SWAP1 POP DUP2 DUP2 SUB PUSH1 0x0 DUP4 ADD MSTORE PUSH2 0x2027 DUP2 DUP5 PUSH2 0x1FAF JUMP JUMPDEST SWAP1 POP SWAP3 SWAP2 POP POP JUMP JUMPDEST PUSH2 0x2038 DUP2 PUSH2 0x1A09 JUMP JUMPDEST DUP2 EQ PUSH2 0x2043 JUMPI PUSH1 0x0 DUP1 REVERT JUMPDEST POP JUMP JUMPDEST PUSH1 0x0 DUP2 CALLDATALOAD SWAP1 POP PUSH2 0x2055 DUP2 PUSH2 0x202F JUMP JUMPDEST SWAP3 SWAP2 POP POP JUMP JUMPDEST PUSH1 0x0 DUP1 PUSH1 0x40 DUP4 DUP6 SUB SLT ISZERO PUSH2 0x2072 JUMPI PUSH2 0x2071 PUSH2 0x187C JUMP JUMPDEST JUMPDEST PUSH1 0x0 PUSH2 0x2080 DUP6 DUP3 DUP7 ADD PUSH2 0x18CF JUMP JUMPDEST SWAP3 POP POP PUSH1 0x20 PUSH2 0x2091 DUP6 DUP3 DUP7 ADD PUSH2 0x2046 JUMP JUMPDEST SWAP2 POP POP SWAP3 POP SWAP3 SWAP1 POP JUMP JUMPDEST PUSH1 0x0 DUP1 PUSH1 0x40 DUP4 DUP6 SUB SLT ISZERO PUSH2 0x20B2 JUMPI PUSH2 0x20B1 PUSH2 0x187C JUMP JUMPDEST JUMPDEST PUSH1 0x0 PUSH2 0x20C0 DUP6 DUP3 DUP7 ADD PUSH2 0x18CF JUMP JUMPDEST SWAP3 POP POP PUSH1 0x20 PUSH2 0x20D1 DUP6 DUP3 DUP7 ADD PUSH2 0x18CF JUMP JUMPDEST SWAP2 POP POP SWAP3 POP SWAP3 SWAP1 POP JUMP JUMPDEST PUSH1 0x0 DUP1 PUSH1 0x0 DUP1 PUSH1 0x0 PUSH1 0xA0 DUP7 DUP9 SUB SLT ISZERO PUSH2 0x20F7 JUMPI PUSH2 0x20F6 PUSH2 0x187C JUMP JUMPDEST JUMPDEST PUSH1 0x0 PUSH2 0x2105 DUP9 DUP3 DUP10 ADD PUSH2 0x18CF JUMP JUMPDEST SWAP6 POP POP PUSH1 0x20 PUSH2 0x2116 DUP9 DUP3 DUP10 ADD PUSH2 0x18CF JUMP JUMPDEST SWAP5 POP POP PUSH1 0x40 PUSH2 0x2127 DUP9 DUP3 DUP10 ADD PUSH2 0x1905 JUMP JUMPDEST SWAP4 POP POP PUSH1 0x60 PUSH2 0x2138 DUP9 DUP3 DUP10 ADD PUSH2 0x1905 JUMP JUMPDEST SWAP3 POP POP PUSH1 0x80 DUP7 ADD CALLDATALOAD PUSH8 0xFFFFFFFFFFFFFFFF DUP2 GT ISZERO PUSH2 0x2159 JUMPI PUSH2 0x2158 PUSH2 0x1881 JUMP JUMPDEST JUMPDEST PUSH2 0x2165 DUP9 DUP3 DUP10 ADD PUSH2 0x1CED JUMP JUMPDEST SWAP2 POP POP SWAP3 SWAP6 POP SWAP3 SWAP6 SWAP1 SWAP4 POP JUMP JUMPDEST PUSH1 0x0 DUP2 SWAP1 POP SWAP3 SWAP2 POP POP JUMP JUMPDEST PUSH32 0x68747470733A2F2F697066732E696F2F697066732F6261667962656962697862 PUSH1 0x0 DUP3 ADD MSTORE PUSH32 0x7A64366C786D637267756C736C62627269757134617A636B6370356A63687373 PUSH1 0x20 DUP3 ADD MSTORE PUSH32 0x37756F3271706D36796B77787767776D2F000000000000000000000000000000 PUSH1 0x40 DUP3 ADD MSTORE POP JUMP JUMPDEST PUSH1 0x0 PUSH2 0x21FF PUSH1 0x51 DUP4 PUSH2 0x2172 JUMP JUMPDEST SWAP2 POP PUSH2 0x220A DUP3 PUSH2 0x217D JUMP JUMPDEST PUSH1 0x51 DUP3 ADD SWAP1 POP SWAP2 SWAP1 POP JUMP JUMPDEST PUSH1 0x0 PUSH2 0x2220 DUP3 PUSH2 0x1A6C JUMP JUMPDEST PUSH2 0x222A DUP2 DUP6 PUSH2 0x2172 JUMP JUMPDEST SWAP4 POP PUSH2 0x223A DUP2 DUP6 PUSH1 0x20 DUP7 ADD PUSH2 0x1A88 JUMP JUMPDEST DUP1 DUP5 ADD SWAP2 POP POP SWAP3 SWAP2 POP POP JUMP JUMPDEST PUSH32 0x2E6A736F6E000000000000000000000000000000000000000000000000000000 PUSH1 0x0 DUP3 ADD MSTORE POP JUMP JUMPDEST PUSH1 0x0 PUSH2 0x227C PUSH1 0x5 DUP4 PUSH2 0x2172 JUMP JUMPDEST SWAP2 POP PUSH2 0x2287 DUP3 PUSH2 0x2246 JUMP JUMPDEST PUSH1 0x5 DUP3 ADD SWAP1 POP SWAP2 SWAP1 POP JUMP JUMPDEST PUSH1 0x0 PUSH2 0x229D DUP3 PUSH2 0x21F2 JUMP JUMPDEST SWAP2 POP PUSH2 0x22A9 DUP3 DUP5 PUSH2 0x2215 JUMP JUMPDEST SWAP2 POP PUSH2 0x22B4 DUP3 PUSH2 0x226F JUMP JUMPDEST SWAP2 POP DUP2 SWAP1 POP SWAP3 SWAP2 POP POP JUMP JUMPDEST PUSH1 0x0 PUSH1 0x40 DUP3 ADD SWAP1 POP PUSH2 0x22D4 PUSH1 0x0 DUP4 ADD DUP6 PUSH2 0x1DEA JUMP JUMPDEST PUSH2 0x22E1 PUSH1 0x20 DUP4 ADD DUP5 PUSH2 0x1DEA JUMP JUMPDEST SWAP4 SWAP3 POP POP POP JUMP JUMPDEST PUSH32 0x4E6F7420656E6F75676820636F696E636F696E20746F6B656E73000000000000 PUSH1 0x0 DUP3 ADD MSTORE POP JUMP JUMPDEST PUSH1 0x0 PUSH2 0x231E PUSH1 0x1A DUP4 PUSH2 0x1A77 JUMP JUMPDEST SWAP2 POP PUSH2 0x2329 DUP3 PUSH2 0x22E8 JUMP JUMPDEST PUSH1 0x20 DUP3 ADD SWAP1 POP SWAP2 SWAP1 POP JUMP JUMPDEST PUSH1 0x0 PUSH1 0x20 DUP3 ADD SWAP1 POP DUP2 DUP2 SUB PUSH1 0x0 DUP4 ADD MSTORE PUSH2 0x234D DUP2 PUSH2 0x2311 JUMP JUMPDEST SWAP1 POP SWAP2 SWAP1 POP JUMP JUMPDEST PUSH1 0x0 PUSH1 0x40 DUP3 ADD SWAP1 POP PUSH2 0x2369 PUSH1 0x0 DUP4 ADD DUP6 PUSH2 0x195A JUMP JUMPDEST PUSH2 0x2376 PUSH1 0x20 DUP4 ADD DUP5 PUSH2 0x195A JUMP JUMPDEST SWAP4 SWAP3 POP POP POP JUMP JUMPDEST PUSH32 0x4E487B7100000000000000000000000000000000000000000000000000000000 PUSH1 0x0 MSTORE PUSH1 0x32 PUSH1 0x4 MSTORE PUSH1 0x24 PUSH1 0x0 REVERT JUMPDEST PUSH32 0x4E487B7100000000000000000000000000000000000000000000000000000000 PUSH1 0x0 MSTORE PUSH1 0x11 PUSH1 0x4 MSTORE PUSH1 0x24 PUSH1 0x0 REVERT JUMPDEST PUSH1 0x0 PUSH2 0x23E6 DUP3 PUSH2 0x18E4 JUMP JUMPDEST SWAP2 POP PUSH32 0xFFFFFFFFFFFFFFFFFFFFFFFFFFFFFFFFFFFFFFFFFFFFFFFFFFFFFFFFFFFFFFFF DUP3 SUB PUSH2 0x2418 JUMPI PUSH2 0x2417 PUSH2 0x23AC JUMP JUMPDEST JUMPDEST PUSH1 0x1 DUP3 ADD SWAP1 POP SWAP2 SWAP1 POP JUMP JUMPDEST PUSH1 0x0 PUSH2 0x242E DUP3 PUSH2 0x18E4 JUMP JUMPDEST SWAP2 POP PUSH2 0x2439 DUP4 PUSH2 0x18E4 JUMP JUMPDEST SWAP3 POP DUP3 DUP3 MUL PUSH2 0x2447 DUP2 PUSH2 0x18E4 JUMP JUMPDEST SWAP2 POP DUP3 DUP3 DIV DUP5 EQ DUP4 ISZERO OR PUSH2 0x245E JUMPI PUSH2 0x245D PUSH2 0x23AC JUMP JUMPDEST JUMPDEST POP SWAP3 SWAP2 POP POP JUMP JUMPDEST PUSH32 0x4E487B7100000000000000000000000000000000000000000000000000000000 PUSH1 0x0 MSTORE PUSH1 0x12 PUSH1 0x4 MSTORE PUSH1 0x24 PUSH1 0x0 REVERT JUMPDEST PUSH1 0x0 PUSH2 0x249F DUP3 PUSH2 0x18E4 JUMP JUMPDEST SWAP2 POP PUSH2 0x24AA DUP4 PUSH2 0x18E4 JUMP JUMPDEST SWAP3 POP DUP3 PUSH2 0x24BA JUMPI PUSH2 0x24B9 PUSH2 0x2465 JUMP JUMPDEST JUMPDEST DUP3 DUP3 DIV SWAP1 POP SWAP3 SWAP2 POP POP JUMP JUMPDEST PUSH1 0x0 PUSH2 0x24D0 DUP3 PUSH2 0x18E4 JUMP JUMPDEST SWAP2 POP PUSH2 0x24DB DUP4 PUSH2 0x18E4 JUMP JUMPDEST SWAP3 POP DUP3 DUP3 ADD SWAP1 POP DUP1 DUP3 GT ISZERO PUSH2 0x24F3 JUMPI PUSH2 0x24F2 PUSH2 0x23AC JUMP JUMPDEST JUMPDEST SWAP3 SWAP2 POP POP JUMP JUMPDEST PUSH1 0x0 DUP2 SWAP1 POP SWAP2 SWAP1 POP JUMP JUMPDEST PUSH2 0x2514 PUSH2 0x250F DUP3 PUSH2 0x18E4 JUMP JUMPDEST PUSH2 0x24F9 JUMP JUMPDEST DUP3 MSTORE POP POP JUMP JUMPDEST PUSH1 0x0 DUP2 PUSH1 0x60 SHL SWAP1 POP SWAP2 SWAP1 POP JUMP JUMPDEST PUSH1 0x0 PUSH2 0x2532 DUP3 PUSH2 0x251A JUMP JUMPDEST SWAP1 POP SWAP2 SWAP1 POP JUMP JUMPDEST PUSH1 0x0 PUSH2 0x2544 DUP3 PUSH2 0x2527 JUMP JUMPDEST SWAP1 POP SWAP2 SWAP1 POP JUMP JUMPDEST PUSH2 0x255C PUSH2 0x2557 DUP3 PUSH2 0x18A6 JUMP JUMPDEST PUSH2 0x2539 JUMP JUMPDEST DUP3 MSTORE POP POP JUMP JUMPDEST PUSH1 0x0 PUSH2 0x256E DUP3 DUP6 PUSH2 0x2503 JUMP JUMPDEST PUSH1 0x20 DUP3 ADD SWAP2 POP PUSH2 0x257E DUP3 DUP5 PUSH2 0x254B JUMP JUMPDEST PUSH1 0x14 DUP3 ADD SWAP2 POP DUP2 SWAP1 POP SWAP4 SWAP3 POP POP POP JUMP JUMPDEST PUSH1 0x0 PUSH2 0x2599 DUP3 PUSH2 0x18E4 JUMP JUMPDEST SWAP2 POP PUSH2 0x25A4 DUP4 PUSH2 0x18E4 JUMP JUMPDEST SWAP3 POP DUP3 PUSH2 0x25B4 JUMPI PUSH2 0x25B3 PUSH2 0x2465 JUMP JUMPDEST JUMPDEST DUP3 DUP3 MOD SWAP1 POP SWAP3 SWAP2 POP POP JUMP JUMPDEST PUSH1 0x0 PUSH1 0x80 DUP3 ADD SWAP1 POP PUSH2 0x25D4 PUSH1 0x0 DUP4 ADD DUP8 PUSH2 0x1DEA JUMP JUMPDEST PUSH2 0x25E1 PUSH1 0x20 DUP4 ADD DUP7 PUSH2 0x195A JUMP JUMPDEST PUSH2 0x25EE PUSH1 0x40 DUP4 ADD DUP6 PUSH2 0x195A JUMP JUMPDEST PUSH2 0x25FB PUSH1 0x60 DUP4 ADD DUP5 PUSH2 0x195A JUMP JUMPDEST SWAP6 SWAP5 POP POP POP POP POP JUMP JUMPDEST PUSH1 0x0 PUSH1 0x40 DUP3 ADD SWAP1 POP DUP2 DUP2 SUB PUSH1 0x0 DUP4 ADD MSTORE PUSH2 0x261E DUP2 DUP6 PUSH2 0x1FAF JUMP JUMPDEST SWAP1 POP DUP2 DUP2 SUB PUSH1 0x20 DUP4 ADD MSTORE PUSH2 0x2632 DUP2 DUP5 PUSH2 0x1FAF JUMP JUMPDEST SWAP1 POP SWAP4 SWAP3 POP POP POP JUMP JUMPDEST PUSH1 0x0 DUP2 MLOAD SWAP1 POP SWAP2 SWAP1 POP JUMP JUMPDEST PUSH1 0x0 DUP3 DUP3 MSTORE PUSH1 0x20 DUP3 ADD SWAP1 POP SWAP3 SWAP2 POP POP JUMP JUMPDEST PUSH1 0x0 PUSH2 0x2662 DUP3 PUSH2 0x263B JUMP JUMPDEST PUSH2 0x266C DUP2 DUP6 PUSH2 0x2646 JUMP JUMPDEST SWAP4 POP PUSH2 0x267C DUP2 DUP6 PUSH1 0x20 DUP7 ADD PUSH2 0x1A88 JUMP JUMPDEST PUSH2 0x2685 DUP2 PUSH2 0x1AB2 JUMP JUMPDEST DUP5 ADD SWAP2 POP POP SWAP3 SWAP2 POP POP JUMP JUMPDEST PUSH1 0x0 PUSH1 0xA0 DUP3 ADD SWAP1 POP PUSH2 0x26A5 PUSH1 0x0 DUP4 ADD DUP9 PUSH2 0x1DEA JUMP JUMPDEST PUSH2 0x26B2 PUSH1 0x20 DUP4 ADD DUP8 PUSH2 0x1DEA JUMP JUMPDEST PUSH2 0x26BF PUSH1 0x40 DUP4 ADD DUP7 PUSH2 0x195A JUMP JUMPDEST PUSH2 0x26CC PUSH1 0x60 DUP4 ADD DUP6 PUSH2 0x195A JUMP JUMPDEST DUP2 DUP2 SUB PUSH1 0x80 DUP4 ADD MSTORE PUSH2 0x26DE DUP2 DUP5 PUSH2 0x2657 JUMP JUMPDEST SWAP1 POP SWAP7 SWAP6 POP POP POP POP POP POP JUMP JUMPDEST PUSH1 0x0 DUP2 MLOAD SWAP1 POP PUSH2 0x26F9 DUP2 PUSH2 0x19B0 JUMP JUMPDEST SWAP3 SWAP2 POP POP JUMP JUMPDEST PUSH1 0x0 PUSH1 0x20 DUP3 DUP5 SUB SLT ISZERO PUSH2 0x2715 JUMPI PUSH2 0x2714 PUSH2 0x187C JUMP JUMPDEST JUMPDEST PUSH1 0x0 PUSH2 0x2723 DUP5 DUP3 DUP6 ADD PUSH2 0x26EA JUMP JUMPDEST SWAP2 POP POP SWAP3 SWAP2 POP POP JUMP JUMPDEST PUSH1 0x0 PUSH1 0xA0 DUP3 ADD SWAP1 POP PUSH2 0x2741 PUSH1 0x0 DUP4 ADD DUP9 PUSH2 0x1DEA JUMP JUMPDEST PUSH2 0x274E PUSH1 0x20 DUP4 ADD DUP8 PUSH2 0x1DEA JUMP JUMPDEST DUP2 DUP2 SUB PUSH1 0x40 DUP4 ADD MSTORE PUSH2 0x2760 DUP2 DUP7 PUSH2 0x1FAF JUMP JUMPDEST SWAP1 POP DUP2 DUP2 SUB PUSH1 0x60 DUP4 ADD MSTORE PUSH2 0x2774 DUP2 DUP6 PUSH2 0x1FAF JUMP JUMPDEST SWAP1 POP DUP2 DUP2 SUB PUSH1 0x80 DUP4 ADD MSTORE PUSH2 0x2788 DUP2 DUP5 PUSH2 0x2657 JUMP JUMPDEST SWAP1 POP SWAP7 SWAP6 POP POP POP POP POP POP JUMP INVALID LOG2 PUSH5 0x6970667358 0x22 SLT KECCAK256 0x2F ADDRESS SGT TIMESTAMP 0xDE 0x29 0x4E PUSH24 0xD3AD1771F0103A930AACD0ED58349B4237A9EFE7F8614557 PUSH5 0x736F6C6343 STOP ADDMOD EQ STOP CALLER PUSH9 0x747470733A2F2F6970 PUSH7 0x732E696F2F6970 PUSH7 0x732F6261667962 PUSH6 0x69626978627A PUSH5 0x366C786D63 PUSH19 0x67756C736C62627269757134617A636B637035 PUSH11 0x6368737337756F3271706D CALLDATASIZE PUSH26 0x6B77787767776D2F7B69647D2E6A736F6E000000000000000000 "},"methodIdentifiers":{"balanceOf(address,uint256)":"00fdd58e","balanceOfBatch(address[],uint256[])":"4e1273f4","getContractAddress()":"32a2c5d0","isApprovedForAll(address,address)":"e985e9c5","mintBoost()":"4347f837","mintCoinCoin(address,uint256)":"729149b2","price()":"a035b1fe","safeBatchTransferFrom(address,address,uint256[],uint256[],bytes)":"2eb2c2d6","safeTransferFrom(address,address,uint256,uint256,bytes)":"f242432a","setApprovalForAll(address,bool)":"a22cb465","supportsInterface(bytes4)":"01ffc9a7","uri(uint256)":"0e89341c"}}}}}