{
  "_format": "hh-sol-artifact-1",
  "contractName": "coincoinNFT_tmp",
  "sourceName": "contracts/coincoinNFT.sol",
  "abi": [
    {
      "inputs": [],
      "stateMutability": "nonpayable",
      "type": "constructor"
    },
    {
      "inputs": [
        {
          "internalType": "address",
          "name": "sender",
          "type": "address"
        },
        {
          "internalType": "uint256",
          "name": "balance",
          "type": "uint256"
        },
        {
          "internalType": "uint256",
          "name": "needed",
          "type": "uint256"
        },
        {
          "internalType": "uint256",
          "name": "tokenId",
          "type": "uint256"
        }
      ],
      "name": "ERC1155InsufficientBalance",
      "type": "error"
    },
    {
      "inputs": [
        {
          "internalType": "address",
          "name": "approver",
          "type": "address"
        }
      ],
      "name": "ERC1155InvalidApprover",
      "type": "error"
    },
    {
      "inputs": [
        {
          "internalType": "uint256",
          "name": "idsLength",
          "type": "uint256"
        },
        {
          "internalType": "uint256",
          "name": "valuesLength",
          "type": "uint256"
        }
      ],
      "name": "ERC1155InvalidArrayLength",
      "type": "error"
    },
    {
      "inputs": [
        {
          "internalType": "address",
          "name": "operator",
          "type": "address"
        }
      ],
      "name": "ERC1155InvalidOperator",
      "type": "error"
    },
    {
      "inputs": [
        {
          "internalType": "address",
          "name": "receiver",
          "type": "address"
        }
      ],
      "name": "ERC1155InvalidReceiver",
      "type": "error"
    },
    {
      "inputs": [
        {
          "internalType": "address",
          "name": "sender",
          "type": "address"
        }
      ],
      "name": "ERC1155InvalidSender",
      "type": "error"
    },
    {
      "inputs": [
        {
          "internalType": "address",
          "name": "operator",
          "type": "address"
        },
        {
          "internalType": "address",
          "name": "owner",
          "type": "address"
        }
      ],
      "name": "ERC1155MissingApprovalForAll",
      "type": "error"
    },
    {
      "anonymous": false,
      "inputs": [
        {
          "indexed": true,
          "internalType": "address",
          "name": "account",
          "type": "address"
        },
        {
          "indexed": true,
          "internalType": "address",
          "name": "operator",
          "type": "address"
        },
        {
          "indexed": false,
          "internalType": "bool",
          "name": "approved",
          "type": "bool"
        }
      ],
      "name": "ApprovalForAll",
      "type": "event"
    },
    {
      "anonymous": false,
      "inputs": [
        {
          "indexed": true,
          "internalType": "address",
          "name": "operator",
          "type": "address"
        },
        {
          "indexed": true,
          "internalType": "address",
          "name": "from",
          "type": "address"
        },
        {
          "indexed": true,
          "internalType": "address",
          "name": "to",
          "type": "address"
        },
        {
          "indexed": false,
          "internalType": "uint256[]",
          "name": "ids",
          "type": "uint256[]"
        },
        {
          "indexed": false,
          "internalType": "uint256[]",
          "name": "values",
          "type": "uint256[]"
        }
      ],
      "name": "TransferBatch",
      "type": "event"
    },
    {
      "anonymous": false,
      "inputs": [
        {
          "indexed": true,
          "internalType": "address",
          "name": "operator",
          "type": "address"
        },
        {
          "indexed": true,
          "internalType": "address",
          "name": "from",
          "type": "address"
        },
        {
          "indexed": true,
          "internalType": "address",
          "name": "to",
          "type": "address"
        },
        {
          "indexed": false,
          "internalType": "uint256",
          "name": "id",
          "type": "uint256"
        },
        {
          "indexed": false,
          "internalType": "uint256",
          "name": "value",
          "type": "uint256"
        }
      ],
      "name": "TransferSingle",
      "type": "event"
    },
    {
      "anonymous": false,
      "inputs": [
        {
          "indexed": false,
          "internalType": "string",
          "name": "value",
          "type": "string"
        },
        {
          "indexed": true,
          "internalType": "uint256",
          "name": "id",
          "type": "uint256"
        }
      ],
      "name": "URI",
      "type": "event"
    },
    {
      "inputs": [
        {
          "internalType": "address",
          "name": "account",
          "type": "address"
        },
        {
          "internalType": "uint256",
          "name": "id",
          "type": "uint256"
        }
      ],
      "name": "balanceOf",
      "outputs": [
        {
          "internalType": "uint256",
          "name": "",
          "type": "uint256"
        }
      ],
      "stateMutability": "view",
      "type": "function"
    },
    {
      "inputs": [
        {
          "internalType": "address[]",
          "name": "accounts",
          "type": "address[]"
        },
        {
          "internalType": "uint256[]",
          "name": "ids",
          "type": "uint256[]"
        }
      ],
      "name": "balanceOfBatch",
      "outputs": [
        {
          "internalType": "uint256[]",
          "name": "",
          "type": "uint256[]"
        }
      ],
      "stateMutability": "view",
      "type": "function"
    },
    {
      "inputs": [],
      "name": "getContractAddress",
      "outputs": [
        {
          "internalType": "address",
          "name": "",
          "type": "address"
        }
      ],
      "stateMutability": "view",
      "type": "function"
    },
    {
      "inputs": [
        {
          "internalType": "address",
          "name": "account",
          "type": "address"
        },
        {
          "internalType": "address",
          "name": "operator",
          "type": "address"
        }
      ],
      "name": "isApprovedForAll",
      "outputs": [
        {
          "internalType": "bool",
          "name": "",
          "type": "bool"
        }
      ],
      "stateMutability": "view",
      "type": "function"
    },
    {
      "inputs": [
        {
          "internalType": "address",
          "name": "account",
          "type": "address"
        }
      ],
      "name": "mintBoost",
      "outputs": [],
      "stateMutability": "nonpayable",
      "type": "function"
    },
    {
      "inputs": [
        {
          "internalType": "address",
          "name": "to",
          "type": "address"
        },
        {
          "internalType": "uint256",
          "name": "number",
          "type": "uint256"
        }
      ],
      "name": "mintCoinCoin",
      "outputs": [],
      "stateMutability": "nonpayable",
      "type": "function"
    },
    {
      "inputs": [
        {
          "internalType": "address",
          "name": "account",
          "type": "address"
        }
      ],
      "name": "price",
      "outputs": [
        {
          "internalType": "uint256",
          "name": "",
          "type": "uint256"
        }
      ],
      "stateMutability": "view",
      "type": "function"
    },
    {
      "inputs": [
        {
          "internalType": "address",
          "name": "from",
          "type": "address"
        },
        {
          "internalType": "address",
          "name": "to",
          "type": "address"
        },
        {
          "internalType": "uint256[]",
          "name": "ids",
          "type": "uint256[]"
        },
        {
          "internalType": "uint256[]",
          "name": "values",
          "type": "uint256[]"
        },
        {
          "internalType": "bytes",
          "name": "data",
          "type": "bytes"
        }
      ],
      "name": "safeBatchTransferFrom",
      "outputs": [],
      "stateMutability": "nonpayable",
      "type": "function"
    },
    {
      "inputs": [
        {
          "internalType": "address",
          "name": "from",
          "type": "address"
        },
        {
          "internalType": "address",
          "name": "to",
          "type": "address"
        },
        {
          "internalType": "uint256",
          "name": "id",
          "type": "uint256"
        },
        {
          "internalType": "uint256",
          "name": "value",
          "type": "uint256"
        },
        {
          "internalType": "bytes",
          "name": "data",
          "type": "bytes"
        }
      ],
      "name": "safeTransferFrom",
      "outputs": [],
      "stateMutability": "nonpayable",
      "type": "function"
    },
    {
      "inputs": [
        {
          "internalType": "address",
          "name": "operator",
          "type": "address"
        },
        {
          "internalType": "bool",
          "name": "approved",
          "type": "bool"
        }
      ],
      "name": "setApprovalForAll",
      "outputs": [],
      "stateMutability": "nonpayable",
      "type": "function"
    },
    {
      "inputs": [
        {
          "internalType": "bytes4",
          "name": "interfaceId",
          "type": "bytes4"
        }
      ],
      "name": "supportsInterface",
      "outputs": [
        {
          "internalType": "bool",
          "name": "",
          "type": "bool"
        }
      ],
      "stateMutability": "view",
      "type": "function"
    },
    {
      "inputs": [
        {
          "internalType": "uint256",
          "name": "_tokenid",
          "type": "uint256"
        }
      ],
      "name": "uri",
      "outputs": [
        {
          "internalType": "string",
          "name": "",
          "type": "string"
        }
      ],
      "stateMutability": "pure",
      "type": "function"
    }
  ],
  "bytecode": "0x60806040523480156200001157600080fd5b506040518060800160405280605a815260200162003aea605a91396200003d816200016b60201b60201c565b506200006233600180604051806020016040528060008152506200018060201b60201c565b620000873360026001604051806020016040528060008152506200018060201b60201c565b620000ac3360036001604051806020016040528060008152506200018060201b60201c565b620000d13360046001604051806020016040528060008152506200018060201b60201c565b620000f63360056001604051806020016040528060008152506200018060201b60201c565b6200011b3360066001604051806020016040528060008152506200018060201b60201c565b620001403360076001604051806020016040528060008152506200018060201b60201c565b620001653360086001604051806020016040528060008152506200018060201b60201c565b620012bb565b80600290816200017c919062000d23565b5050565b600073ffffffffffffffffffffffffffffffffffffffff168473ffffffffffffffffffffffffffffffffffffffff1603620001f55760006040517f57f447ce000000000000000000000000000000000000000000000000000000008152600401620001ec919062000e4f565b60405180910390fd5b6000806200020a85856200022c60201b60201c565b91509150620002246000878484876200025c60201b60201c565b505050505050565b60608060405191506001825283602083015260408201905060018152826020820152604081016040529250929050565b62000270858585856200033560201b60201c565b600073ffffffffffffffffffffffffffffffffffffffff168473ffffffffffffffffffffffffffffffffffffffff16146200032e576000620002b76200070760201b60201c565b9050600184510362000315576000620002db6000866200070f60201b90919060201c565b90506000620002f56000866200070f60201b90919060201c565b90506200030d8389898585896200072360201b60201c565b50506200032c565b6200032b818787878787620008e660201b60201c565b5b505b5050505050565b80518251146200038257815181516040517f5b0599910000000000000000000000000000000000000000000000000000000081526004016200037992919062000e7d565b60405180910390fd5b6000620003946200070760201b60201c565b905060005b8351811015620005b8576000620003ba82866200070f60201b90919060201c565b90506000620003d383866200070f60201b90919060201c565b9050600073ffffffffffffffffffffffffffffffffffffffff168873ffffffffffffffffffffffffffffffffffffffff16146200050457600080600084815260200190815260200160002060008a73ffffffffffffffffffffffffffffffffffffffff1673ffffffffffffffffffffffffffffffffffffffff16815260200190815260200160002054905081811015620004ac57888183856040517f03dee4c5000000000000000000000000000000000000000000000000000000008152600401620004a3949392919062000eaa565b60405180910390fd5b81810360008085815260200190815260200160002060008b73ffffffffffffffffffffffffffffffffffffffff1673ffffffffffffffffffffffffffffffffffffffff16815260200190815260200160002081905550505b600073ffffffffffffffffffffffffffffffffffffffff168773ffffffffffffffffffffffffffffffffffffffff1614620005a2578060008084815260200190815260200160002060008973ffffffffffffffffffffffffffffffffffffffff1673ffffffffffffffffffffffffffffffffffffffff16815260200190815260200160002060008282546200059a919062000f26565b925050819055505b505080620005b09062000f61565b905062000399565b5060018351036200067f576000620005db6000856200070f60201b90919060201c565b90506000620005f56000856200070f60201b90919060201c565b90508573ffffffffffffffffffffffffffffffffffffffff168773ffffffffffffffffffffffffffffffffffffffff168473ffffffffffffffffffffffffffffffffffffffff167fc3d58168c5ae7397731d063d5bbf3d657854427343f4c083240f7aacaa2d0f6285856040516200066f92919062000e7d565b60405180910390a4505062000700565b8373ffffffffffffffffffffffffffffffffffffffff168573ffffffffffffffffffffffffffffffffffffffff168273ffffffffffffffffffffffffffffffffffffffff167f4a39dc06d4c0dbc64b70af90fd698a233a518aa5d07e595d983b8c0526c8f7fb8686604051620006f79291906200107c565b60405180910390a45b5050505050565b600033905090565b600060208202602084010151905092915050565b60008473ffffffffffffffffffffffffffffffffffffffff163b1115620008de578373ffffffffffffffffffffffffffffffffffffffff1663f23a6e6187878686866040518663ffffffff1660e01b81526004016200078795949392919062001151565b6020604051808303816000875af1925050508015620007c657506040513d601f19601f82011682018060405250810190620007c3919062001217565b60015b62000850573d8060008114620007f9576040519150601f19603f3d011682016040523d82523d6000602084013e620007fe565b606091505b5060008151036200084857846040517f57f447ce0000000000000000000000000000000000000000000000000000000081526004016200083f919062000e4f565b60405180910390fd5b805181602001fd5b63f23a6e6160e01b7bffffffffffffffffffffffffffffffffffffffffffffffffffffffff1916817bffffffffffffffffffffffffffffffffffffffffffffffffffffffff191614620008dc57846040517f57f447ce000000000000000000000000000000000000000000000000000000008152600401620008d3919062000e4f565b60405180910390fd5b505b505050505050565b60008473ffffffffffffffffffffffffffffffffffffffff163b111562000aa1578373ffffffffffffffffffffffffffffffffffffffff1663bc197c8187878686866040518663ffffffff1660e01b81526004016200094a95949392919062001249565b6020604051808303816000875af19250505080156200098957506040513d601f19601f8201168201806040525081019062000986919062001217565b60015b62000a13573d8060008114620009bc576040519150601f19603f3d011682016040523d82523d6000602084013e620009c1565b606091505b50600081510362000a0b57846040517f57f447ce00000000000000000000000000000000000000000000000000000000815260040162000a02919062000e4f565b60405180910390fd5b805181602001fd5b63bc197c8160e01b7bffffffffffffffffffffffffffffffffffffffffffffffffffffffff1916817bffffffffffffffffffffffffffffffffffffffffffffffffffffffff19161462000a9f57846040517f57f447ce00000000000000000000000000000000000000000000000000000000815260040162000a96919062000e4f565b60405180910390fd5b505b505050505050565b600081519050919050565b7f4e487b7100000000000000000000000000000000000000000000000000000000600052604160045260246000fd5b7f4e487b7100000000000000000000000000000000000000000000000000000000600052602260045260246000fd5b6000600282049050600182168062000b2b57607f821691505b60208210810362000b415762000b4062000ae3565b5b50919050565b60008190508160005260206000209050919050565b60006020601f8301049050919050565b600082821b905092915050565b60006008830262000bab7fffffffffffffffffffffffffffffffffffffffffffffffffffffffffffffffff8262000b6c565b62000bb7868362000b6c565b95508019841693508086168417925050509392505050565b6000819050919050565b6000819050919050565b600062000c0462000bfe62000bf88462000bcf565b62000bd9565b62000bcf565b9050919050565b6000819050919050565b62000c208362000be3565b62000c3862000c2f8262000c0b565b84845462000b79565b825550505050565b600090565b62000c4f62000c40565b62000c5c81848462000c15565b505050565b5b8181101562000c845762000c7860008262000c45565b60018101905062000c62565b5050565b601f82111562000cd35762000c9d8162000b47565b62000ca88462000b5c565b8101602085101562000cb8578190505b62000cd062000cc78562000b5c565b83018262000c61565b50505b505050565b600082821c905092915050565b600062000cf86000198460080262000cd8565b1980831691505092915050565b600062000d13838362000ce5565b9150826002028217905092915050565b62000d2e8262000aa9565b67ffffffffffffffff81111562000d4a5762000d4962000ab4565b5b62000d56825462000b12565b62000d6382828562000c88565b600060209050601f83116001811462000d9b576000841562000d86578287015190505b62000d92858262000d05565b86555062000e02565b601f19841662000dab8662000b47565b60005b8281101562000dd55784890151825560018201915060208501945060208101905062000dae565b8683101562000df5578489015162000df1601f89168262000ce5565b8355505b6001600288020188555050505b505050505050565b600073ffffffffffffffffffffffffffffffffffffffff82169050919050565b600062000e378262000e0a565b9050919050565b62000e498162000e2a565b82525050565b600060208201905062000e66600083018462000e3e565b92915050565b62000e778162000bcf565b82525050565b600060408201905062000e94600083018562000e6c565b62000ea3602083018462000e6c565b9392505050565b600060808201905062000ec1600083018762000e3e565b62000ed0602083018662000e6c565b62000edf604083018562000e6c565b62000eee606083018462000e6c565b95945050505050565b7f4e487b7100000000000000000000000000000000000000000000000000000000600052601160045260246000fd5b600062000f338262000bcf565b915062000f408362000bcf565b925082820190508082111562000f5b5762000f5a62000ef7565b5b92915050565b600062000f6e8262000bcf565b91507fffffffffffffffffffffffffffffffffffffffffffffffffffffffffffffffff820362000fa35762000fa262000ef7565b5b600182019050919050565b600081519050919050565b600082825260208201905092915050565b6000819050602082019050919050565b62000fe58162000bcf565b82525050565b600062000ff9838362000fda565b60208301905092915050565b6000602082019050919050565b60006200101f8262000fae565b6200102b818562000fb9565b9350620010388362000fca565b8060005b838110156200106f57815162001053888262000feb565b9750620010608362001005565b9250506001810190506200103c565b5085935050505092915050565b6000604082019050818103600083015262001098818562001012565b90508181036020830152620010ae818462001012565b90509392505050565b600081519050919050565b600082825260208201905092915050565b60005b83811015620010f3578082015181840152602081019050620010d6565b60008484015250505050565b6000601f19601f8301169050919050565b60006200111d82620010b7565b620011298185620010c2565b93506200113b818560208601620010d3565b6200114681620010ff565b840191505092915050565b600060a08201905062001168600083018862000e3e565b62001177602083018762000e3e565b62001186604083018662000e6c565b62001195606083018562000e6c565b8181036080830152620011a9818462001110565b90509695505050505050565b600080fd5b60007fffffffff0000000000000000000000000000000000000000000000000000000082169050919050565b620011f181620011ba565b8114620011fd57600080fd5b50565b6000815190506200121181620011e6565b92915050565b60006020828403121562001230576200122f620011b5565b5b6000620012408482850162001200565b91505092915050565b600060a08201905062001260600083018862000e3e565b6200126f602083018762000e3e565b818103604083015262001283818662001012565b9050818103606083015262001299818562001012565b90508181036080830152620012af818462001110565b90509695505050505050565b61281f80620012cb6000396000f3fe608060405234801561001057600080fd5b50600436106100b35760003560e01c80634e1273f4116100715780634e1273f41461019e578063729149b2146101ce578063a22cb465146101ea578063aea9107814610206578063e985e9c514610236578063f242432a14610266576100b3565b8062fdd58e146100b857806301ffc9a7146100e85780630e89341c146101185780632eb2c2d61461014857806332a2c5d0146101645780633ca8f72f14610182575b600080fd5b6100d260048036038101906100cd9190611942565b610282565b6040516100df9190611991565b60405180910390f35b61010260048036038101906100fd9190611a04565b6102dc565b60405161010f9190611a4c565b60405180910390f35b610132600480360381019061012d9190611a67565b6103be565b60405161013f9190611b24565b60405180910390f35b610162600480360381019061015d9190611d43565b6103ef565b005b61016c610497565b6040516101799190611e21565b60405180910390f35b61019c60048036038101906101979190611e3c565b61049f565b005b6101b860048036038101906101b39190611f2c565b610512565b6040516101c59190612062565b60405180910390f35b6101e860048036038101906101e39190611942565b610621565b005b61020460048036038101906101ff91906120b0565b610641565b005b610220600480360381019061021b9190611e3c565b610657565b60405161022d9190611991565b60405180910390f35b610250600480360381019061024b91906120f0565b61068e565b60405161025d9190611a4c565b60405180910390f35b610280600480360381019061027b9190612130565b610722565b005b600080600083815260200190815260200160002060008473ffffffffffffffffffffffffffffffffffffffff1673ffffffffffffffffffffffffffffffffffffffff16815260200190815260200160002054905092915050565b60007fd9b67a26000000000000000000000000000000000000000000000000000000007bffffffffffffffffffffffffffffffffffffffffffffffffffffffff1916827bffffffffffffffffffffffffffffffffffffffffffffffffffffffff191614806103a757507f0e89341c000000000000000000000000000000000000000000000000000000007bffffffffffffffffffffffffffffffffffffffffffffffffffffffff1916827bffffffffffffffffffffffffffffffffffffffffffffffffffffffff1916145b806103b757506103b6826107ca565b5b9050919050565b60606103c982610834565b6040516020016103d991906122e7565b6040516020818303038152906040529050919050565b60006103f9610902565b90508073ffffffffffffffffffffffffffffffffffffffff168673ffffffffffffffffffffffffffffffffffffffff161415801561043e575061043c868261068e565b155b156104825780866040517fe237d922000000000000000000000000000000000000000000000000000000008152600401610479929190612314565b60405180910390fd5b61048f868686868661090a565b505050505050565b600030905090565b60006104aa82610657565b9050806104b8836008610282565b10156104f9576040517f08c379a00000000000000000000000000000000000000000000000000000000081526004016104f090612389565b60405180910390fd5b61050282610a02565b61050e82600883610a2e565b5050565b6060815183511461055e57815183516040517f5b0599910000000000000000000000000000000000000000000000000000000081526004016105559291906123a9565b60405180910390fd5b6000835167ffffffffffffffff81111561057b5761057a611b4b565b5b6040519080825280602002602001820160405280156105a95781602001602082028036833780820191505090505b50905060005b8451811015610616576105e66105ce8287610ad590919063ffffffff16565b6105e18387610ae990919063ffffffff16565b610282565b8282815181106105f9576105f86123d2565b5b6020026020010181815250508061060f90612430565b90506105af565b508091505092915050565b61063d8260088360405180602001604052806000815250610afd565b5050565b61065361064c610902565b8383610b96565b5050565b6000606461066483610d06565b60696106709190612478565b6101f461067d9190612478565b61068791906124e9565b9050919050565b6000600160008473ffffffffffffffffffffffffffffffffffffffff1673ffffffffffffffffffffffffffffffffffffffff16815260200190815260200160002060008373ffffffffffffffffffffffffffffffffffffffff1673ffffffffffffffffffffffffffffffffffffffff16815260200190815260200160002060009054906101000a900460ff16905092915050565b600061072c610902565b90508073ffffffffffffffffffffffffffffffffffffffff168673ffffffffffffffffffffffffffffffffffffffff1614158015610771575061076f868261068e565b155b156107b55780866040517fe237d9220000000000000000000000000000000000000000000000000000000081526004016107ac929190612314565b60405180910390fd5b6107c28686868686610d50565b505050505050565b60007f01ffc9a7000000000000000000000000000000000000000000000000000000007bffffffffffffffffffffffffffffffffffffffffffffffffffffffff1916827bffffffffffffffffffffffffffffffffffffffffffffffffffffffff1916149050919050565b60606000600161084384610e5b565b01905060008167ffffffffffffffff81111561086257610861611b4b565b5b6040519080825280601f01601f1916602001820160405280156108945781602001600182028036833780820191505090505b509050600082602001820190505b6001156108f7578080600190039150507f3031323334353637383961626364656600000000000000000000000000000000600a86061a8153600a85816108eb576108ea6124ba565b5b049450600085036108a2575b819350505050919050565b600033905090565b600073ffffffffffffffffffffffffffffffffffffffff168473ffffffffffffffffffffffffffffffffffffffff160361097c5760006040517f57f447ce0000000000000000000000000000000000000000000000000000000081526004016109739190611e21565b60405180910390fd5b600073ffffffffffffffffffffffffffffffffffffffff168573ffffffffffffffffffffffffffffffffffffffff16036109ee5760006040517f01a835140000000000000000000000000000000000000000000000000000000081526004016109e59190611e21565b60405180910390fd5b6109fb8585858585610fae565b5050505050565b6000610a0c611060565b9050610a2a8282600160405180602001604052806000815250610afd565b5050565b600073ffffffffffffffffffffffffffffffffffffffff168373ffffffffffffffffffffffffffffffffffffffff1603610aa05760006040517f01a83514000000000000000000000000000000000000000000000000000000008152600401610a979190611e21565b60405180910390fd5b600080610aad8484611154565b91509150610ace856000848460405180602001604052806000815250610fae565b5050505050565b600060208202602084010151905092915050565b600060208202602084010151905092915050565b600073ffffffffffffffffffffffffffffffffffffffff168473ffffffffffffffffffffffffffffffffffffffff1603610b6f5760006040517f57f447ce000000000000000000000000000000000000000000000000000000008152600401610b669190611e21565b60405180910390fd5b600080610b7c8585611154565b91509150610b8e600087848487610fae565b505050505050565b600073ffffffffffffffffffffffffffffffffffffffff168273ffffffffffffffffffffffffffffffffffffffff1603610c085760006040517fced3e100000000000000000000000000000000000000000000000000000000008152600401610bff9190611e21565b60405180910390fd5b80600160008573ffffffffffffffffffffffffffffffffffffffff1673ffffffffffffffffffffffffffffffffffffffff16815260200190815260200160002060008473ffffffffffffffffffffffffffffffffffffffff1673ffffffffffffffffffffffffffffffffffffffff16815260200190815260200160002060006101000a81548160ff0219169083151502179055508173ffffffffffffffffffffffffffffffffffffffff168373ffffffffffffffffffffffffffffffffffffffff167f17307eab39ab6107e8899845ad3d59bd9653f200f220920489ca2b5937696c3183604051610cf99190611a4c565b60405180910390a3505050565b600080600090506000600190505b60078111610d4657610d268482610282565b82610d31919061251a565b91508080610d3e90612430565b915050610d14565b5080915050919050565b600073ffffffffffffffffffffffffffffffffffffffff168473ffffffffffffffffffffffffffffffffffffffff1603610dc25760006040517f57f447ce000000000000000000000000000000000000000000000000000000008152600401610db99190611e21565b60405180910390fd5b600073ffffffffffffffffffffffffffffffffffffffff168573ffffffffffffffffffffffffffffffffffffffff1603610e345760006040517f01a83514000000000000000000000000000000000000000000000000000000008152600401610e2b9190611e21565b60405180910390fd5b600080610e418585611154565b91509150610e528787848487610fae565b50505050505050565b600080600090507a184f03e93ff9f4daa797ed6e38ed64bf6a1f0100000000000000008310610eb9577a184f03e93ff9f4daa797ed6e38ed64bf6a1f0100000000000000008381610eaf57610eae6124ba565b5b0492506040810190505b6d04ee2d6d415b85acef81000000008310610ef6576d04ee2d6d415b85acef81000000008381610eec57610eeb6124ba565b5b0492506020810190505b662386f26fc100008310610f2557662386f26fc100008381610f1b57610f1a6124ba565b5b0492506010810190505b6305f5e1008310610f4e576305f5e1008381610f4457610f436124ba565b5b0492506008810190505b6127108310610f73576127108381610f6957610f686124ba565b5b0492506004810190505b60648310610f965760648381610f8c57610f8b6124ba565b5b0492506002810190505b600a8310610fa5576001810190505b80915050919050565b610fba85858585611184565b600073ffffffffffffffffffffffffffffffffffffffff168473ffffffffffffffffffffffffffffffffffffffff1614611059576000610ff8610902565b90506001845103611048576000611019600086610ae990919063ffffffff16565b90506000611031600086610ae990919063ffffffff16565b9050611041838989858589611532565b5050611057565b6110568187878787876116e6565b5b505b5050505050565b60008042336040516020016110769291906125b7565b6040516020818303038152906040528051906020012060001c905060016064826110a091906125e3565b10156110b0576007915050611151565b60056064826110bf91906125e3565b10156110cf576006915050611151565b600c6064826110de91906125e3565b10156110ee576004915050611151565b60176064826110fd91906125e3565b101561110d576003915050611151565b602360648261111c91906125e3565b101561112c576002915050611151565b603260648261113b91906125e3565b101561114b576005915050611151565b60019150505b90565b60608060405191506001825283602083015260408201905060018152826020820152604081016040529250929050565b80518251146111ce57815181516040517f5b0599910000000000000000000000000000000000000000000000000000000081526004016111c59291906123a9565b60405180910390fd5b60006111d8610902565b905060005b83518110156113ed5760006111fb8286610ae990919063ffffffff16565b905060006112128386610ae990919063ffffffff16565b9050600073ffffffffffffffffffffffffffffffffffffffff168873ffffffffffffffffffffffffffffffffffffffff161461133f57600080600084815260200190815260200160002060008a73ffffffffffffffffffffffffffffffffffffffff1673ffffffffffffffffffffffffffffffffffffffff168152602001908152602001600020549050818110156112e757888183856040517f03dee4c50000000000000000000000000000000000000000000000000000000081526004016112de9493929190612614565b60405180910390fd5b81810360008085815260200190815260200160002060008b73ffffffffffffffffffffffffffffffffffffffff1673ffffffffffffffffffffffffffffffffffffffff16815260200190815260200160002081905550505b600073ffffffffffffffffffffffffffffffffffffffff168773ffffffffffffffffffffffffffffffffffffffff16146113da578060008084815260200190815260200160002060008973ffffffffffffffffffffffffffffffffffffffff1673ffffffffffffffffffffffffffffffffffffffff16815260200190815260200160002060008282546113d2919061251a565b925050819055505b5050806113e690612430565b90506111dd565b5060018351036114ac57600061140d600085610ae990919063ffffffff16565b90506000611425600085610ae990919063ffffffff16565b90508573ffffffffffffffffffffffffffffffffffffffff168773ffffffffffffffffffffffffffffffffffffffff168473ffffffffffffffffffffffffffffffffffffffff167fc3d58168c5ae7397731d063d5bbf3d657854427343f4c083240f7aacaa2d0f62858560405161149d9291906123a9565b60405180910390a4505061152b565b8373ffffffffffffffffffffffffffffffffffffffff168573ffffffffffffffffffffffffffffffffffffffff168273ffffffffffffffffffffffffffffffffffffffff167f4a39dc06d4c0dbc64b70af90fd698a233a518aa5d07e595d983b8c0526c8f7fb8686604051611522929190612659565b60405180910390a45b5050505050565b60008473ffffffffffffffffffffffffffffffffffffffff163b11156116de578373ffffffffffffffffffffffffffffffffffffffff1663f23a6e6187878686866040518663ffffffff1660e01b81526004016115939594939291906126e5565b6020604051808303816000875af19250505080156115cf57506040513d601f19601f820116820180604052508101906115cc9190612754565b60015b611653573d80600081146115ff576040519150601f19603f3d011682016040523d82523d6000602084013e611604565b606091505b50600081510361164b57846040517f57f447ce0000000000000000000000000000000000000000000000000000000081526004016116429190611e21565b60405180910390fd5b805181602001fd5b63f23a6e6160e01b7bffffffffffffffffffffffffffffffffffffffffffffffffffffffff1916817bffffffffffffffffffffffffffffffffffffffffffffffffffffffff1916146116dc57846040517f57f447ce0000000000000000000000000000000000000000000000000000000081526004016116d39190611e21565b60405180910390fd5b505b505050505050565b60008473ffffffffffffffffffffffffffffffffffffffff163b1115611892578373ffffffffffffffffffffffffffffffffffffffff1663bc197c8187878686866040518663ffffffff1660e01b8152600401611747959493929190612781565b6020604051808303816000875af192505050801561178357506040513d601f19601f820116820180604052508101906117809190612754565b60015b611807573d80600081146117b3576040519150601f19603f3d011682016040523d82523d6000602084013e6117b8565b606091505b5060008151036117ff57846040517f57f447ce0000000000000000000000000000000000000000000000000000000081526004016117f69190611e21565b60405180910390fd5b805181602001fd5b63bc197c8160e01b7bffffffffffffffffffffffffffffffffffffffffffffffffffffffff1916817bffffffffffffffffffffffffffffffffffffffffffffffffffffffff19161461189057846040517f57f447ce0000000000000000000000000000000000000000000000000000000081526004016118879190611e21565b60405180910390fd5b505b505050505050565b6000604051905090565b600080fd5b600080fd5b600073ffffffffffffffffffffffffffffffffffffffff82169050919050565b60006118d9826118ae565b9050919050565b6118e9816118ce565b81146118f457600080fd5b50565b600081359050611906816118e0565b92915050565b6000819050919050565b61191f8161190c565b811461192a57600080fd5b50565b60008135905061193c81611916565b92915050565b60008060408385031215611959576119586118a4565b5b6000611967858286016118f7565b92505060206119788582860161192d565b9150509250929050565b61198b8161190c565b82525050565b60006020820190506119a66000830184611982565b92915050565b60007fffffffff0000000000000000000000000000000000000000000000000000000082169050919050565b6119e1816119ac565b81146119ec57600080fd5b50565b6000813590506119fe816119d8565b92915050565b600060208284031215611a1a57611a196118a4565b5b6000611a28848285016119ef565b91505092915050565b60008115159050919050565b611a4681611a31565b82525050565b6000602082019050611a616000830184611a3d565b92915050565b600060208284031215611a7d57611a7c6118a4565b5b6000611a8b8482850161192d565b91505092915050565b600081519050919050565b600082825260208201905092915050565b60005b83811015611ace578082015181840152602081019050611ab3565b60008484015250505050565b6000601f19601f8301169050919050565b6000611af682611a94565b611b008185611a9f565b9350611b10818560208601611ab0565b611b1981611ada565b840191505092915050565b60006020820190508181036000830152611b3e8184611aeb565b905092915050565b600080fd5b7f4e487b7100000000000000000000000000000000000000000000000000000000600052604160045260246000fd5b611b8382611ada565b810181811067ffffffffffffffff82111715611ba257611ba1611b4b565b5b80604052505050565b6000611bb561189a565b9050611bc18282611b7a565b919050565b600067ffffffffffffffff821115611be157611be0611b4b565b5b602082029050602081019050919050565b600080fd5b6000611c0a611c0584611bc6565b611bab565b90508083825260208201905060208402830185811115611c2d57611c2c611bf2565b5b835b81811015611c565780611c42888261192d565b845260208401935050602081019050611c2f565b5050509392505050565b600082601f830112611c7557611c74611b46565b5b8135611c85848260208601611bf7565b91505092915050565b600080fd5b600067ffffffffffffffff821115611cae57611cad611b4b565b5b611cb782611ada565b9050602081019050919050565b82818337600083830152505050565b6000611ce6611ce184611c93565b611bab565b905082815260208101848484011115611d0257611d01611c8e565b5b611d0d848285611cc4565b509392505050565b600082601f830112611d2a57611d29611b46565b5b8135611d3a848260208601611cd3565b91505092915050565b600080600080600060a08688031215611d5f57611d5e6118a4565b5b6000611d6d888289016118f7565b9550506020611d7e888289016118f7565b945050604086013567ffffffffffffffff811115611d9f57611d9e6118a9565b5b611dab88828901611c60565b935050606086013567ffffffffffffffff811115611dcc57611dcb6118a9565b5b611dd888828901611c60565b925050608086013567ffffffffffffffff811115611df957611df86118a9565b5b611e0588828901611d15565b9150509295509295909350565b611e1b816118ce565b82525050565b6000602082019050611e366000830184611e12565b92915050565b600060208284031215611e5257611e516118a4565b5b6000611e60848285016118f7565b91505092915050565b600067ffffffffffffffff821115611e8457611e83611b4b565b5b602082029050602081019050919050565b6000611ea8611ea384611e69565b611bab565b90508083825260208201905060208402830185811115611ecb57611eca611bf2565b5b835b81811015611ef45780611ee088826118f7565b845260208401935050602081019050611ecd565b5050509392505050565b600082601f830112611f1357611f12611b46565b5b8135611f23848260208601611e95565b91505092915050565b60008060408385031215611f4357611f426118a4565b5b600083013567ffffffffffffffff811115611f6157611f606118a9565b5b611f6d85828601611efe565b925050602083013567ffffffffffffffff811115611f8e57611f8d6118a9565b5b611f9a85828601611c60565b9150509250929050565b600081519050919050565b600082825260208201905092915050565b6000819050602082019050919050565b611fd98161190c565b82525050565b6000611feb8383611fd0565b60208301905092915050565b6000602082019050919050565b600061200f82611fa4565b6120198185611faf565b935061202483611fc0565b8060005b8381101561205557815161203c8882611fdf565b975061204783611ff7565b925050600181019050612028565b5085935050505092915050565b6000602082019050818103600083015261207c8184612004565b905092915050565b61208d81611a31565b811461209857600080fd5b50565b6000813590506120aa81612084565b92915050565b600080604083850312156120c7576120c66118a4565b5b60006120d5858286016118f7565b92505060206120e68582860161209b565b9150509250929050565b60008060408385031215612107576121066118a4565b5b6000612115858286016118f7565b9250506020612126858286016118f7565b9150509250929050565b600080600080600060a0868803121561214c5761214b6118a4565b5b600061215a888289016118f7565b955050602061216b888289016118f7565b945050604061217c8882890161192d565b935050606061218d8882890161192d565b925050608086013567ffffffffffffffff8111156121ae576121ad6118a9565b5b6121ba88828901611d15565b9150509295509295909350565b600081905092915050565b7f68747470733a2f2f697066732e696f2f697066732f626166796265696269786260008201527f7a64366c786d637267756c736c62627269757134617a636b6370356a6368737360208201527f37756f3271706d36796b77787767776d2f000000000000000000000000000000604082015250565b60006122546051836121c7565b915061225f826121d2565b605182019050919050565b600061227582611a94565b61227f81856121c7565b935061228f818560208601611ab0565b80840191505092915050565b7f2e6a736f6e000000000000000000000000000000000000000000000000000000600082015250565b60006122d16005836121c7565b91506122dc8261229b565b600582019050919050565b60006122f282612247565b91506122fe828461226a565b9150612309826122c4565b915081905092915050565b60006040820190506123296000830185611e12565b6123366020830184611e12565b9392505050565b7f4e6f7420656e6f75676820636f696e636f696e20746f6b656e73000000000000600082015250565b6000612373601a83611a9f565b915061237e8261233d565b602082019050919050565b600060208201905081810360008301526123a281612366565b9050919050565b60006040820190506123be6000830185611982565b6123cb6020830184611982565b9392505050565b7f4e487b7100000000000000000000000000000000000000000000000000000000600052603260045260246000fd5b7f4e487b7100000000000000000000000000000000000000000000000000000000600052601160045260246000fd5b600061243b8261190c565b91507fffffffffffffffffffffffffffffffffffffffffffffffffffffffffffffffff820361246d5761246c612401565b5b600182019050919050565b60006124838261190c565b915061248e8361190c565b925082820261249c8161190c565b915082820484148315176124b3576124b2612401565b5b5092915050565b7f4e487b7100000000000000000000000000000000000000000000000000000000600052601260045260246000fd5b60006124f48261190c565b91506124ff8361190c565b92508261250f5761250e6124ba565b5b828204905092915050565b60006125258261190c565b91506125308361190c565b925082820190508082111561254857612547612401565b5b92915050565b6000819050919050565b6125696125648261190c565b61254e565b82525050565b60008160601b9050919050565b60006125878261256f565b9050919050565b60006125998261257c565b9050919050565b6125b16125ac826118ce565b61258e565b82525050565b60006125c38285612558565b6020820191506125d382846125a0565b6014820191508190509392505050565b60006125ee8261190c565b91506125f98361190c565b925082612609576126086124ba565b5b828206905092915050565b60006080820190506126296000830187611e12565b6126366020830186611982565b6126436040830185611982565b6126506060830184611982565b95945050505050565b600060408201905081810360008301526126738185612004565b905081810360208301526126878184612004565b90509392505050565b600081519050919050565b600082825260208201905092915050565b60006126b782612690565b6126c1818561269b565b93506126d1818560208601611ab0565b6126da81611ada565b840191505092915050565b600060a0820190506126fa6000830188611e12565b6127076020830187611e12565b6127146040830186611982565b6127216060830185611982565b818103608083015261273381846126ac565b90509695505050505050565b60008151905061274e816119d8565b92915050565b60006020828403121561276a576127696118a4565b5b60006127788482850161273f565b91505092915050565b600060a0820190506127966000830188611e12565b6127a36020830187611e12565b81810360408301526127b58186612004565b905081810360608301526127c98185612004565b905081810360808301526127dd81846126ac565b9050969550505050505056fea2646970667358221220aa5c4a59da1a10098196e7e938243f9297ff0fccb894cfa526f59c2ae81dbb3364736f6c6343000814003368747470733a2f2f697066732e696f2f697066732f62616679626569626978627a64366c786d637267756c736c62627269757134617a636b6370356a6368737337756f3271706d36796b77787767776d2f7b69647d2e6a736f6e",
  "linkReferences": {},
  "deployedLinkReferences": {}
}