{
  "_format": "hh-sol-artifact-1",
  "contractName": "coincoinNFT_tmp",
  "sourceName": "contracts/coincoinNFT.sol",
  "abi": [
    {
      "inputs": [],
      "stateMutability": "nonpayable",
      "type": "constructor"
    },
    {
      "inputs": [
        {
          "internalType": "address",
          "name": "sender",
          "type": "address"
        },
        {
          "internalType": "uint256",
          "name": "balance",
          "type": "uint256"
        },
        {
          "internalType": "uint256",
          "name": "needed",
          "type": "uint256"
        },
        {
          "internalType": "uint256",
          "name": "tokenId",
          "type": "uint256"
        }
      ],
      "name": "ERC1155InsufficientBalance",
      "type": "error"
    },
    {
      "inputs": [
        {
          "internalType": "address",
          "name": "approver",
          "type": "address"
        }
      ],
      "name": "ERC1155InvalidApprover",
      "type": "error"
    },
    {
      "inputs": [
        {
          "internalType": "uint256",
          "name": "idsLength",
          "type": "uint256"
        },
        {
          "internalType": "uint256",
          "name": "valuesLength",
          "type": "uint256"
        }
      ],
      "name": "ERC1155InvalidArrayLength",
      "type": "error"
    },
    {
      "inputs": [
        {
          "internalType": "address",
          "name": "operator",
          "type": "address"
        }
      ],
      "name": "ERC1155InvalidOperator",
      "type": "error"
    },
    {
      "inputs": [
        {
          "internalType": "address",
          "name": "receiver",
          "type": "address"
        }
      ],
      "name": "ERC1155InvalidReceiver",
      "type": "error"
    },
    {
      "inputs": [
        {
          "internalType": "address",
          "name": "sender",
          "type": "address"
        }
      ],
      "name": "ERC1155InvalidSender",
      "type": "error"
    },
    {
      "inputs": [
        {
          "internalType": "address",
          "name": "operator",
          "type": "address"
        },
        {
          "internalType": "address",
          "name": "owner",
          "type": "address"
        }
      ],
      "name": "ERC1155MissingApprovalForAll",
      "type": "error"
    },
    {
      "anonymous": false,
      "inputs": [
        {
          "indexed": true,
          "internalType": "address",
          "name": "account",
          "type": "address"
        },
        {
          "indexed": true,
          "internalType": "address",
          "name": "operator",
          "type": "address"
        },
        {
          "indexed": false,
          "internalType": "bool",
          "name": "approved",
          "type": "bool"
        }
      ],
      "name": "ApprovalForAll",
      "type": "event"
    },
    {
      "anonymous": false,
      "inputs": [
        {
          "indexed": true,
          "internalType": "address",
          "name": "operator",
          "type": "address"
        },
        {
          "indexed": true,
          "internalType": "address",
          "name": "from",
          "type": "address"
        },
        {
          "indexed": true,
          "internalType": "address",
          "name": "to",
          "type": "address"
        },
        {
          "indexed": false,
          "internalType": "uint256[]",
          "name": "ids",
          "type": "uint256[]"
        },
        {
          "indexed": false,
          "internalType": "uint256[]",
          "name": "values",
          "type": "uint256[]"
        }
      ],
      "name": "TransferBatch",
      "type": "event"
    },
    {
      "anonymous": false,
      "inputs": [
        {
          "indexed": true,
          "internalType": "address",
          "name": "operator",
          "type": "address"
        },
        {
          "indexed": true,
          "internalType": "address",
          "name": "from",
          "type": "address"
        },
        {
          "indexed": true,
          "internalType": "address",
          "name": "to",
          "type": "address"
        },
        {
          "indexed": false,
          "internalType": "uint256",
          "name": "id",
          "type": "uint256"
        },
        {
          "indexed": false,
          "internalType": "uint256",
          "name": "value",
          "type": "uint256"
        }
      ],
      "name": "TransferSingle",
      "type": "event"
    },
    {
      "anonymous": false,
      "inputs": [
        {
          "indexed": false,
          "internalType": "string",
          "name": "value",
          "type": "string"
        },
        {
          "indexed": true,
          "internalType": "uint256",
          "name": "id",
          "type": "uint256"
        }
      ],
      "name": "URI",
      "type": "event"
    },
    {
      "inputs": [
        {
          "internalType": "address",
          "name": "account",
          "type": "address"
        },
        {
          "internalType": "uint256",
          "name": "id",
          "type": "uint256"
        }
      ],
      "name": "balanceOf",
      "outputs": [
        {
          "internalType": "uint256",
          "name": "",
          "type": "uint256"
        }
      ],
      "stateMutability": "view",
      "type": "function"
    },
    {
      "inputs": [
        {
          "internalType": "address[]",
          "name": "accounts",
          "type": "address[]"
        },
        {
          "internalType": "uint256[]",
          "name": "ids",
          "type": "uint256[]"
        }
      ],
      "name": "balanceOfBatch",
      "outputs": [
        {
          "internalType": "uint256[]",
          "name": "",
          "type": "uint256[]"
        }
      ],
      "stateMutability": "view",
      "type": "function"
    },
    {
      "inputs": [],
      "name": "getContractAddress",
      "outputs": [
        {
          "internalType": "address",
          "name": "",
          "type": "address"
        }
      ],
      "stateMutability": "view",
      "type": "function"
    },
    {
      "inputs": [
        {
          "internalType": "address",
          "name": "account",
          "type": "address"
        },
        {
          "internalType": "address",
          "name": "operator",
          "type": "address"
        }
      ],
      "name": "isApprovedForAll",
      "outputs": [
        {
          "internalType": "bool",
          "name": "",
          "type": "bool"
        }
      ],
      "stateMutability": "view",
      "type": "function"
    },
    {
      "inputs": [],
      "name": "mintBoost",
      "outputs": [],
      "stateMutability": "nonpayable",
      "type": "function"
    },
    {
      "inputs": [
        {
          "internalType": "address",
          "name": "to",
          "type": "address"
        },
        {
          "internalType": "uint256",
          "name": "number",
          "type": "uint256"
        }
      ],
      "name": "mintCoinCoin",
      "outputs": [],
      "stateMutability": "nonpayable",
      "type": "function"
    },
    {
      "inputs": [],
      "name": "price",
      "outputs": [
        {
          "internalType": "uint256",
          "name": "",
          "type": "uint256"
        }
      ],
      "stateMutability": "view",
      "type": "function"
    },
    {
      "inputs": [
        {
          "internalType": "address",
          "name": "from",
          "type": "address"
        },
        {
          "internalType": "address",
          "name": "to",
          "type": "address"
        },
        {
          "internalType": "uint256[]",
          "name": "ids",
          "type": "uint256[]"
        },
        {
          "internalType": "uint256[]",
          "name": "values",
          "type": "uint256[]"
        },
        {
          "internalType": "bytes",
          "name": "data",
          "type": "bytes"
        }
      ],
      "name": "safeBatchTransferFrom",
      "outputs": [],
      "stateMutability": "nonpayable",
      "type": "function"
    },
    {
      "inputs": [
        {
          "internalType": "address",
          "name": "from",
          "type": "address"
        },
        {
          "internalType": "address",
          "name": "to",
          "type": "address"
        },
        {
          "internalType": "uint256",
          "name": "id",
          "type": "uint256"
        },
        {
          "internalType": "uint256",
          "name": "value",
          "type": "uint256"
        },
        {
          "internalType": "bytes",
          "name": "data",
          "type": "bytes"
        }
      ],
      "name": "safeTransferFrom",
      "outputs": [],
      "stateMutability": "nonpayable",
      "type": "function"
    },
    {
      "inputs": [
        {
          "internalType": "address",
          "name": "operator",
          "type": "address"
        },
        {
          "internalType": "bool",
          "name": "approved",
          "type": "bool"
        }
      ],
      "name": "setApprovalForAll",
      "outputs": [],
      "stateMutability": "nonpayable",
      "type": "function"
    },
    {
      "inputs": [
        {
          "internalType": "bytes4",
          "name": "interfaceId",
          "type": "bytes4"
        }
      ],
      "name": "supportsInterface",
      "outputs": [
        {
          "internalType": "bool",
          "name": "",
          "type": "bool"
        }
      ],
      "stateMutability": "view",
      "type": "function"
    },
    {
      "inputs": [
        {
          "internalType": "uint256",
          "name": "_tokenid",
          "type": "uint256"
        }
      ],
      "name": "uri",
      "outputs": [
        {
          "internalType": "string",
          "name": "",
          "type": "string"
        }
      ],
      "stateMutability": "pure",
      "type": "function"
    }
  ],
  "bytecode": "0x60806040523480156200001157600080fd5b506040518060800160405280605a815260200162003a95605a91396200003d816200016b60201b60201c565b506200006233600180604051806020016040528060008152506200018060201b60201c565b620000873360026001604051806020016040528060008152506200018060201b60201c565b620000ac3360036001604051806020016040528060008152506200018060201b60201c565b620000d13360046001604051806020016040528060008152506200018060201b60201c565b620000f63360056001604051806020016040528060008152506200018060201b60201c565b6200011b3360066001604051806020016040528060008152506200018060201b60201c565b620001403360076001604051806020016040528060008152506200018060201b60201c565b620001653360086001604051806020016040528060008152506200018060201b60201c565b620012bb565b80600290816200017c919062000d23565b5050565b600073ffffffffffffffffffffffffffffffffffffffff168473ffffffffffffffffffffffffffffffffffffffff1603620001f55760006040517f57f447ce000000000000000000000000000000000000000000000000000000008152600401620001ec919062000e4f565b60405180910390fd5b6000806200020a85856200022c60201b60201c565b91509150620002246000878484876200025c60201b60201c565b505050505050565b60608060405191506001825283602083015260408201905060018152826020820152604081016040529250929050565b62000270858585856200033560201b60201c565b600073ffffffffffffffffffffffffffffffffffffffff168473ffffffffffffffffffffffffffffffffffffffff16146200032e576000620002b76200070760201b60201c565b9050600184510362000315576000620002db6000866200070f60201b90919060201c565b90506000620002f56000866200070f60201b90919060201c565b90506200030d8389898585896200072360201b60201c565b50506200032c565b6200032b818787878787620008e660201b60201c565b5b505b5050505050565b80518251146200038257815181516040517f5b0599910000000000000000000000000000000000000000000000000000000081526004016200037992919062000e7d565b60405180910390fd5b6000620003946200070760201b60201c565b905060005b8351811015620005b8576000620003ba82866200070f60201b90919060201c565b90506000620003d383866200070f60201b90919060201c565b9050600073ffffffffffffffffffffffffffffffffffffffff168873ffffffffffffffffffffffffffffffffffffffff16146200050457600080600084815260200190815260200160002060008a73ffffffffffffffffffffffffffffffffffffffff1673ffffffffffffffffffffffffffffffffffffffff16815260200190815260200160002054905081811015620004ac57888183856040517f03dee4c5000000000000000000000000000000000000000000000000000000008152600401620004a3949392919062000eaa565b60405180910390fd5b81810360008085815260200190815260200160002060008b73ffffffffffffffffffffffffffffffffffffffff1673ffffffffffffffffffffffffffffffffffffffff16815260200190815260200160002081905550505b600073ffffffffffffffffffffffffffffffffffffffff168773ffffffffffffffffffffffffffffffffffffffff1614620005a2578060008084815260200190815260200160002060008973ffffffffffffffffffffffffffffffffffffffff1673ffffffffffffffffffffffffffffffffffffffff16815260200190815260200160002060008282546200059a919062000f26565b925050819055505b505080620005b09062000f61565b905062000399565b5060018351036200067f576000620005db6000856200070f60201b90919060201c565b90506000620005f56000856200070f60201b90919060201c565b90508573ffffffffffffffffffffffffffffffffffffffff168773ffffffffffffffffffffffffffffffffffffffff168473ffffffffffffffffffffffffffffffffffffffff167fc3d58168c5ae7397731d063d5bbf3d657854427343f4c083240f7aacaa2d0f6285856040516200066f92919062000e7d565b60405180910390a4505062000700565b8373ffffffffffffffffffffffffffffffffffffffff168573ffffffffffffffffffffffffffffffffffffffff168273ffffffffffffffffffffffffffffffffffffffff167f4a39dc06d4c0dbc64b70af90fd698a233a518aa5d07e595d983b8c0526c8f7fb8686604051620006f79291906200107c565b60405180910390a45b5050505050565b600033905090565b600060208202602084010151905092915050565b60008473ffffffffffffffffffffffffffffffffffffffff163b1115620008de578373ffffffffffffffffffffffffffffffffffffffff1663f23a6e6187878686866040518663ffffffff1660e01b81526004016200078795949392919062001151565b6020604051808303816000875af1925050508015620007c657506040513d601f19601f82011682018060405250810190620007c3919062001217565b60015b62000850573d8060008114620007f9576040519150601f19603f3d011682016040523d82523d6000602084013e620007fe565b606091505b5060008151036200084857846040517f57f447ce0000000000000000000000000000000000000000000000000000000081526004016200083f919062000e4f565b60405180910390fd5b805181602001fd5b63f23a6e6160e01b7bffffffffffffffffffffffffffffffffffffffffffffffffffffffff1916817bffffffffffffffffffffffffffffffffffffffffffffffffffffffff191614620008dc57846040517f57f447ce000000000000000000000000000000000000000000000000000000008152600401620008d3919062000e4f565b60405180910390fd5b505b505050505050565b60008473ffffffffffffffffffffffffffffffffffffffff163b111562000aa1578373ffffffffffffffffffffffffffffffffffffffff1663bc197c8187878686866040518663ffffffff1660e01b81526004016200094a95949392919062001249565b6020604051808303816000875af19250505080156200098957506040513d601f19601f8201168201806040525081019062000986919062001217565b60015b62000a13573d8060008114620009bc576040519150601f19603f3d011682016040523d82523d6000602084013e620009c1565b606091505b50600081510362000a0b57846040517f57f447ce00000000000000000000000000000000000000000000000000000000815260040162000a02919062000e4f565b60405180910390fd5b805181602001fd5b63bc197c8160e01b7bffffffffffffffffffffffffffffffffffffffffffffffffffffffff1916817bffffffffffffffffffffffffffffffffffffffffffffffffffffffff19161462000a9f57846040517f57f447ce00000000000000000000000000000000000000000000000000000000815260040162000a96919062000e4f565b60405180910390fd5b505b505050505050565b600081519050919050565b7f4e487b7100000000000000000000000000000000000000000000000000000000600052604160045260246000fd5b7f4e487b7100000000000000000000000000000000000000000000000000000000600052602260045260246000fd5b6000600282049050600182168062000b2b57607f821691505b60208210810362000b415762000b4062000ae3565b5b50919050565b60008190508160005260206000209050919050565b60006020601f8301049050919050565b600082821b905092915050565b60006008830262000bab7fffffffffffffffffffffffffffffffffffffffffffffffffffffffffffffffff8262000b6c565b62000bb7868362000b6c565b95508019841693508086168417925050509392505050565b6000819050919050565b6000819050919050565b600062000c0462000bfe62000bf88462000bcf565b62000bd9565b62000bcf565b9050919050565b6000819050919050565b62000c208362000be3565b62000c3862000c2f8262000c0b565b84845462000b79565b825550505050565b600090565b62000c4f62000c40565b62000c5c81848462000c15565b505050565b5b8181101562000c845762000c7860008262000c45565b60018101905062000c62565b5050565b601f82111562000cd35762000c9d8162000b47565b62000ca88462000b5c565b8101602085101562000cb8578190505b62000cd062000cc78562000b5c565b83018262000c61565b50505b505050565b600082821c905092915050565b600062000cf86000198460080262000cd8565b1980831691505092915050565b600062000d13838362000ce5565b9150826002028217905092915050565b62000d2e8262000aa9565b67ffffffffffffffff81111562000d4a5762000d4962000ab4565b5b62000d56825462000b12565b62000d6382828562000c88565b600060209050601f83116001811462000d9b576000841562000d86578287015190505b62000d92858262000d05565b86555062000e02565b601f19841662000dab8662000b47565b60005b8281101562000dd55784890151825560018201915060208501945060208101905062000dae565b8683101562000df5578489015162000df1601f89168262000ce5565b8355505b6001600288020188555050505b505050505050565b600073ffffffffffffffffffffffffffffffffffffffff82169050919050565b600062000e378262000e0a565b9050919050565b62000e498162000e2a565b82525050565b600060208201905062000e66600083018462000e3e565b92915050565b62000e778162000bcf565b82525050565b600060408201905062000e94600083018562000e6c565b62000ea3602083018462000e6c565b9392505050565b600060808201905062000ec1600083018762000e3e565b62000ed0602083018662000e6c565b62000edf604083018562000e6c565b62000eee606083018462000e6c565b95945050505050565b7f4e487b7100000000000000000000000000000000000000000000000000000000600052601160045260246000fd5b600062000f338262000bcf565b915062000f408362000bcf565b925082820190508082111562000f5b5762000f5a62000ef7565b5b92915050565b600062000f6e8262000bcf565b91507fffffffffffffffffffffffffffffffffffffffffffffffffffffffffffffffff820362000fa35762000fa262000ef7565b5b600182019050919050565b600081519050919050565b600082825260208201905092915050565b6000819050602082019050919050565b62000fe58162000bcf565b82525050565b600062000ff9838362000fda565b60208301905092915050565b6000602082019050919050565b60006200101f8262000fae565b6200102b818562000fb9565b9350620010388362000fca565b8060005b838110156200106f57815162001053888262000feb565b9750620010608362001005565b9250506001810190506200103c565b5085935050505092915050565b6000604082019050818103600083015262001098818562001012565b90508181036020830152620010ae818462001012565b90509392505050565b600081519050919050565b600082825260208201905092915050565b60005b83811015620010f3578082015181840152602081019050620010d6565b60008484015250505050565b6000601f19601f8301169050919050565b60006200111d82620010b7565b620011298185620010c2565b93506200113b818560208601620010d3565b6200114681620010ff565b840191505092915050565b600060a08201905062001168600083018862000e3e565b62001177602083018762000e3e565b62001186604083018662000e6c565b62001195606083018562000e6c565b8181036080830152620011a9818462001110565b90509695505050505050565b600080fd5b60007fffffffff0000000000000000000000000000000000000000000000000000000082169050919050565b620011f181620011ba565b8114620011fd57600080fd5b50565b6000815190506200121181620011e6565b92915050565b60006020828403121562001230576200122f620011b5565b5b6000620012408482850162001200565b91505092915050565b600060a08201905062001260600083018862000e3e565b6200126f602083018762000e3e565b818103604083015262001283818662001012565b9050818103606083015262001299818562001012565b90508181036080830152620012af818462001110565b90509695505050505050565b6127ca80620012cb6000396000f3fe608060405234801561001057600080fd5b50600436106100b35760003560e01c80634e1273f4116100715780634e1273f41461018c578063729149b2146101bc578063a035b1fe146101d8578063a22cb465146101f6578063e985e9c514610212578063f242432a14610242576100b3565b8062fdd58e146100b857806301ffc9a7146100e85780630e89341c146101185780632eb2c2d61461014857806332a2c5d0146101645780634347f83714610182575b600080fd5b6100d260048036038101906100cd919061191a565b61025e565b6040516100df9190611969565b60405180910390f35b61010260048036038101906100fd91906119dc565b6102b8565b60405161010f9190611a24565b60405180910390f35b610132600480360381019061012d9190611a3f565b61039a565b60405161013f9190611afc565b60405180910390f35b610162600480360381019061015d9190611d1b565b6103cb565b005b61016c610473565b6040516101799190611df9565b60405180910390f35b61018a61047b565b005b6101a660048036038101906101a19190611ed7565b6104ec565b6040516101b3919061200d565b60405180910390f35b6101d660048036038101906101d1919061191a565b6105fb565b005b6101e061061b565b6040516101ed9190611969565b60405180910390f35b610210600480360381019061020b919061205b565b610650565b005b61022c6004803603810190610227919061209b565b610666565b6040516102399190611a24565b60405180910390f35b61025c600480360381019061025791906120db565b6106fa565b005b600080600083815260200190815260200160002060008473ffffffffffffffffffffffffffffffffffffffff1673ffffffffffffffffffffffffffffffffffffffff16815260200190815260200160002054905092915050565b60007fd9b67a26000000000000000000000000000000000000000000000000000000007bffffffffffffffffffffffffffffffffffffffffffffffffffffffff1916827bffffffffffffffffffffffffffffffffffffffffffffffffffffffff1916148061038357507f0e89341c000000000000000000000000000000000000000000000000000000007bffffffffffffffffffffffffffffffffffffffffffffffffffffffff1916827bffffffffffffffffffffffffffffffffffffffffffffffffffffffff1916145b806103935750610392826107a2565b5b9050919050565b60606103a58261080c565b6040516020016103b59190612292565b6040516020818303038152906040529050919050565b60006103d56108da565b90508073ffffffffffffffffffffffffffffffffffffffff168673ffffffffffffffffffffffffffffffffffffffff161415801561041a57506104188682610666565b155b1561045e5780866040517fe237d9220000000000000000000000000000000000000000000000000000000081526004016104559291906122bf565b60405180910390fd5b61046b86868686866108e2565b505050505050565b600030905090565b600061048561061b565b90508061049333600861025e565b10156104d4576040517f08c379a00000000000000000000000000000000000000000000000000000000081526004016104cb90612334565b60405180910390fd5b6104dd336109da565b6104e933600883610a06565b50565b6060815183511461053857815183516040517f5b05999100000000000000000000000000000000000000000000000000000000815260040161052f929190612354565b60405180910390fd5b6000835167ffffffffffffffff81111561055557610554611b23565b5b6040519080825280602002602001820160405280156105835781602001602082028036833780820191505090505b50905060005b84518110156105f0576105c06105a88287610aad90919063ffffffff16565b6105bb8387610ac190919063ffffffff16565b61025e565b8282815181106105d3576105d261237d565b5b602002602001018181525050806105e9906123db565b9050610589565b508091505092915050565b6106178260088360405180602001604052806000815250610ad5565b5050565b6000606461062833610b6e565b60696106349190612423565b6101f46106419190612423565b61064b9190612494565b905090565b61066261065b6108da565b8383610bb8565b5050565b6000600160008473ffffffffffffffffffffffffffffffffffffffff1673ffffffffffffffffffffffffffffffffffffffff16815260200190815260200160002060008373ffffffffffffffffffffffffffffffffffffffff1673ffffffffffffffffffffffffffffffffffffffff16815260200190815260200160002060009054906101000a900460ff16905092915050565b60006107046108da565b90508073ffffffffffffffffffffffffffffffffffffffff168673ffffffffffffffffffffffffffffffffffffffff161415801561074957506107478682610666565b155b1561078d5780866040517fe237d9220000000000000000000000000000000000000000000000000000000081526004016107849291906122bf565b60405180910390fd5b61079a8686868686610d28565b505050505050565b60007f01ffc9a7000000000000000000000000000000000000000000000000000000007bffffffffffffffffffffffffffffffffffffffffffffffffffffffff1916827bffffffffffffffffffffffffffffffffffffffffffffffffffffffff1916149050919050565b60606000600161081b84610e33565b01905060008167ffffffffffffffff81111561083a57610839611b23565b5b6040519080825280601f01601f19166020018201604052801561086c5781602001600182028036833780820191505090505b509050600082602001820190505b6001156108cf578080600190039150507f3031323334353637383961626364656600000000000000000000000000000000600a86061a8153600a85816108c3576108c2612465565b5b0494506000850361087a575b819350505050919050565b600033905090565b600073ffffffffffffffffffffffffffffffffffffffff168473ffffffffffffffffffffffffffffffffffffffff16036109545760006040517f57f447ce00000000000000000000000000000000000000000000000000000000815260040161094b9190611df9565b60405180910390fd5b600073ffffffffffffffffffffffffffffffffffffffff168573ffffffffffffffffffffffffffffffffffffffff16036109c65760006040517f01a835140000000000000000000000000000000000000000000000000000000081526004016109bd9190611df9565b60405180910390fd5b6109d38585858585610f86565b5050505050565b60006109e4611038565b9050610a028282600160405180602001604052806000815250610ad5565b5050565b600073ffffffffffffffffffffffffffffffffffffffff168373ffffffffffffffffffffffffffffffffffffffff1603610a785760006040517f01a83514000000000000000000000000000000000000000000000000000000008152600401610a6f9190611df9565b60405180910390fd5b600080610a85848461112c565b91509150610aa6856000848460405180602001604052806000815250610f86565b5050505050565b600060208202602084010151905092915050565b600060208202602084010151905092915050565b600073ffffffffffffffffffffffffffffffffffffffff168473ffffffffffffffffffffffffffffffffffffffff1603610b475760006040517f57f447ce000000000000000000000000000000000000000000000000000000008152600401610b3e9190611df9565b60405180910390fd5b600080610b54858561112c565b91509150610b66600087848487610f86565b505050505050565b600080600090506000600190505b60078111610bae57610b8e848261025e565b82610b9991906124c5565b91508080610ba6906123db565b915050610b7c565b5080915050919050565b600073ffffffffffffffffffffffffffffffffffffffff168273ffffffffffffffffffffffffffffffffffffffff1603610c2a5760006040517fced3e100000000000000000000000000000000000000000000000000000000008152600401610c219190611df9565b60405180910390fd5b80600160008573ffffffffffffffffffffffffffffffffffffffff1673ffffffffffffffffffffffffffffffffffffffff16815260200190815260200160002060008473ffffffffffffffffffffffffffffffffffffffff1673ffffffffffffffffffffffffffffffffffffffff16815260200190815260200160002060006101000a81548160ff0219169083151502179055508173ffffffffffffffffffffffffffffffffffffffff168373ffffffffffffffffffffffffffffffffffffffff167f17307eab39ab6107e8899845ad3d59bd9653f200f220920489ca2b5937696c3183604051610d1b9190611a24565b60405180910390a3505050565b600073ffffffffffffffffffffffffffffffffffffffff168473ffffffffffffffffffffffffffffffffffffffff1603610d9a5760006040517f57f447ce000000000000000000000000000000000000000000000000000000008152600401610d919190611df9565b60405180910390fd5b600073ffffffffffffffffffffffffffffffffffffffff168573ffffffffffffffffffffffffffffffffffffffff1603610e0c5760006040517f01a83514000000000000000000000000000000000000000000000000000000008152600401610e039190611df9565b60405180910390fd5b600080610e19858561112c565b91509150610e2a8787848487610f86565b50505050505050565b600080600090507a184f03e93ff9f4daa797ed6e38ed64bf6a1f0100000000000000008310610e91577a184f03e93ff9f4daa797ed6e38ed64bf6a1f0100000000000000008381610e8757610e86612465565b5b0492506040810190505b6d04ee2d6d415b85acef81000000008310610ece576d04ee2d6d415b85acef81000000008381610ec457610ec3612465565b5b0492506020810190505b662386f26fc100008310610efd57662386f26fc100008381610ef357610ef2612465565b5b0492506010810190505b6305f5e1008310610f26576305f5e1008381610f1c57610f1b612465565b5b0492506008810190505b6127108310610f4b576127108381610f4157610f40612465565b5b0492506004810190505b60648310610f6e5760648381610f6457610f63612465565b5b0492506002810190505b600a8310610f7d576001810190505b80915050919050565b610f928585858561115c565b600073ffffffffffffffffffffffffffffffffffffffff168473ffffffffffffffffffffffffffffffffffffffff1614611031576000610fd06108da565b90506001845103611020576000610ff1600086610ac190919063ffffffff16565b90506000611009600086610ac190919063ffffffff16565b905061101983898985858961150a565b505061102f565b61102e8187878787876116be565b5b505b5050505050565b600080423360405160200161104e929190612562565b6040516020818303038152906040528051906020012060001c90506001606482611078919061258e565b1015611088576007915050611129565b6005606482611097919061258e565b10156110a7576006915050611129565b600c6064826110b6919061258e565b10156110c6576004915050611129565b60176064826110d5919061258e565b10156110e5576003915050611129565b60236064826110f4919061258e565b1015611104576002915050611129565b6032606482611113919061258e565b1015611123576005915050611129565b60019150505b90565b60608060405191506001825283602083015260408201905060018152826020820152604081016040529250929050565b80518251146111a657815181516040517f5b05999100000000000000000000000000000000000000000000000000000000815260040161119d929190612354565b60405180910390fd5b60006111b06108da565b905060005b83518110156113c55760006111d38286610ac190919063ffffffff16565b905060006111ea8386610ac190919063ffffffff16565b9050600073ffffffffffffffffffffffffffffffffffffffff168873ffffffffffffffffffffffffffffffffffffffff161461131757600080600084815260200190815260200160002060008a73ffffffffffffffffffffffffffffffffffffffff1673ffffffffffffffffffffffffffffffffffffffff168152602001908152602001600020549050818110156112bf57888183856040517f03dee4c50000000000000000000000000000000000000000000000000000000081526004016112b694939291906125bf565b60405180910390fd5b81810360008085815260200190815260200160002060008b73ffffffffffffffffffffffffffffffffffffffff1673ffffffffffffffffffffffffffffffffffffffff16815260200190815260200160002081905550505b600073ffffffffffffffffffffffffffffffffffffffff168773ffffffffffffffffffffffffffffffffffffffff16146113b2578060008084815260200190815260200160002060008973ffffffffffffffffffffffffffffffffffffffff1673ffffffffffffffffffffffffffffffffffffffff16815260200190815260200160002060008282546113aa91906124c5565b925050819055505b5050806113be906123db565b90506111b5565b5060018351036114845760006113e5600085610ac190919063ffffffff16565b905060006113fd600085610ac190919063ffffffff16565b90508573ffffffffffffffffffffffffffffffffffffffff168773ffffffffffffffffffffffffffffffffffffffff168473ffffffffffffffffffffffffffffffffffffffff167fc3d58168c5ae7397731d063d5bbf3d657854427343f4c083240f7aacaa2d0f628585604051611475929190612354565b60405180910390a45050611503565b8373ffffffffffffffffffffffffffffffffffffffff168573ffffffffffffffffffffffffffffffffffffffff168273ffffffffffffffffffffffffffffffffffffffff167f4a39dc06d4c0dbc64b70af90fd698a233a518aa5d07e595d983b8c0526c8f7fb86866040516114fa929190612604565b60405180910390a45b5050505050565b60008473ffffffffffffffffffffffffffffffffffffffff163b11156116b6578373ffffffffffffffffffffffffffffffffffffffff1663f23a6e6187878686866040518663ffffffff1660e01b815260040161156b959493929190612690565b6020604051808303816000875af19250505080156115a757506040513d601f19601f820116820180604052508101906115a491906126ff565b60015b61162b573d80600081146115d7576040519150601f19603f3d011682016040523d82523d6000602084013e6115dc565b606091505b50600081510361162357846040517f57f447ce00000000000000000000000000000000000000000000000000000000815260040161161a9190611df9565b60405180910390fd5b805181602001fd5b63f23a6e6160e01b7bffffffffffffffffffffffffffffffffffffffffffffffffffffffff1916817bffffffffffffffffffffffffffffffffffffffffffffffffffffffff1916146116b457846040517f57f447ce0000000000000000000000000000000000000000000000000000000081526004016116ab9190611df9565b60405180910390fd5b505b505050505050565b60008473ffffffffffffffffffffffffffffffffffffffff163b111561186a578373ffffffffffffffffffffffffffffffffffffffff1663bc197c8187878686866040518663ffffffff1660e01b815260040161171f95949392919061272c565b6020604051808303816000875af192505050801561175b57506040513d601f19601f8201168201806040525081019061175891906126ff565b60015b6117df573d806000811461178b576040519150601f19603f3d011682016040523d82523d6000602084013e611790565b606091505b5060008151036117d757846040517f57f447ce0000000000000000000000000000000000000000000000000000000081526004016117ce9190611df9565b60405180910390fd5b805181602001fd5b63bc197c8160e01b7bffffffffffffffffffffffffffffffffffffffffffffffffffffffff1916817bffffffffffffffffffffffffffffffffffffffffffffffffffffffff19161461186857846040517f57f447ce00000000000000000000000000000000000000000000000000000000815260040161185f9190611df9565b60405180910390fd5b505b505050505050565b6000604051905090565b600080fd5b600080fd5b600073ffffffffffffffffffffffffffffffffffffffff82169050919050565b60006118b182611886565b9050919050565b6118c1816118a6565b81146118cc57600080fd5b50565b6000813590506118de816118b8565b92915050565b6000819050919050565b6118f7816118e4565b811461190257600080fd5b50565b600081359050611914816118ee565b92915050565b600080604083850312156119315761193061187c565b5b600061193f858286016118cf565b925050602061195085828601611905565b9150509250929050565b611963816118e4565b82525050565b600060208201905061197e600083018461195a565b92915050565b60007fffffffff0000000000000000000000000000000000000000000000000000000082169050919050565b6119b981611984565b81146119c457600080fd5b50565b6000813590506119d6816119b0565b92915050565b6000602082840312156119f2576119f161187c565b5b6000611a00848285016119c7565b91505092915050565b60008115159050919050565b611a1e81611a09565b82525050565b6000602082019050611a396000830184611a15565b92915050565b600060208284031215611a5557611a5461187c565b5b6000611a6384828501611905565b91505092915050565b600081519050919050565b600082825260208201905092915050565b60005b83811015611aa6578082015181840152602081019050611a8b565b60008484015250505050565b6000601f19601f8301169050919050565b6000611ace82611a6c565b611ad88185611a77565b9350611ae8818560208601611a88565b611af181611ab2565b840191505092915050565b60006020820190508181036000830152611b168184611ac3565b905092915050565b600080fd5b7f4e487b7100000000000000000000000000000000000000000000000000000000600052604160045260246000fd5b611b5b82611ab2565b810181811067ffffffffffffffff82111715611b7a57611b79611b23565b5b80604052505050565b6000611b8d611872565b9050611b998282611b52565b919050565b600067ffffffffffffffff821115611bb957611bb8611b23565b5b602082029050602081019050919050565b600080fd5b6000611be2611bdd84611b9e565b611b83565b90508083825260208201905060208402830185811115611c0557611c04611bca565b5b835b81811015611c2e5780611c1a8882611905565b845260208401935050602081019050611c07565b5050509392505050565b600082601f830112611c4d57611c4c611b1e565b5b8135611c5d848260208601611bcf565b91505092915050565b600080fd5b600067ffffffffffffffff821115611c8657611c85611b23565b5b611c8f82611ab2565b9050602081019050919050565b82818337600083830152505050565b6000611cbe611cb984611c6b565b611b83565b905082815260208101848484011115611cda57611cd9611c66565b5b611ce5848285611c9c565b509392505050565b600082601f830112611d0257611d01611b1e565b5b8135611d12848260208601611cab565b91505092915050565b600080600080600060a08688031215611d3757611d3661187c565b5b6000611d45888289016118cf565b9550506020611d56888289016118cf565b945050604086013567ffffffffffffffff811115611d7757611d76611881565b5b611d8388828901611c38565b935050606086013567ffffffffffffffff811115611da457611da3611881565b5b611db088828901611c38565b925050608086013567ffffffffffffffff811115611dd157611dd0611881565b5b611ddd88828901611ced565b9150509295509295909350565b611df3816118a6565b82525050565b6000602082019050611e0e6000830184611dea565b92915050565b600067ffffffffffffffff821115611e2f57611e2e611b23565b5b602082029050602081019050919050565b6000611e53611e4e84611e14565b611b83565b90508083825260208201905060208402830185811115611e7657611e75611bca565b5b835b81811015611e9f5780611e8b88826118cf565b845260208401935050602081019050611e78565b5050509392505050565b600082601f830112611ebe57611ebd611b1e565b5b8135611ece848260208601611e40565b91505092915050565b60008060408385031215611eee57611eed61187c565b5b600083013567ffffffffffffffff811115611f0c57611f0b611881565b5b611f1885828601611ea9565b925050602083013567ffffffffffffffff811115611f3957611f38611881565b5b611f4585828601611c38565b9150509250929050565b600081519050919050565b600082825260208201905092915050565b6000819050602082019050919050565b611f84816118e4565b82525050565b6000611f968383611f7b565b60208301905092915050565b6000602082019050919050565b6000611fba82611f4f565b611fc48185611f5a565b9350611fcf83611f6b565b8060005b83811015612000578151611fe78882611f8a565b9750611ff283611fa2565b925050600181019050611fd3565b5085935050505092915050565b600060208201905081810360008301526120278184611faf565b905092915050565b61203881611a09565b811461204357600080fd5b50565b6000813590506120558161202f565b92915050565b600080604083850312156120725761207161187c565b5b6000612080858286016118cf565b925050602061209185828601612046565b9150509250929050565b600080604083850312156120b2576120b161187c565b5b60006120c0858286016118cf565b92505060206120d1858286016118cf565b9150509250929050565b600080600080600060a086880312156120f7576120f661187c565b5b6000612105888289016118cf565b9550506020612116888289016118cf565b945050604061212788828901611905565b935050606061213888828901611905565b925050608086013567ffffffffffffffff81111561215957612158611881565b5b61216588828901611ced565b9150509295509295909350565b600081905092915050565b7f68747470733a2f2f697066732e696f2f697066732f626166796265696269786260008201527f7a64366c786d637267756c736c62627269757134617a636b6370356a6368737360208201527f37756f3271706d36796b77787767776d2f000000000000000000000000000000604082015250565b60006121ff605183612172565b915061220a8261217d565b605182019050919050565b600061222082611a6c565b61222a8185612172565b935061223a818560208601611a88565b80840191505092915050565b7f2e6a736f6e000000000000000000000000000000000000000000000000000000600082015250565b600061227c600583612172565b915061228782612246565b600582019050919050565b600061229d826121f2565b91506122a98284612215565b91506122b48261226f565b915081905092915050565b60006040820190506122d46000830185611dea565b6122e16020830184611dea565b9392505050565b7f4e6f7420656e6f75676820636f696e636f696e20746f6b656e73000000000000600082015250565b600061231e601a83611a77565b9150612329826122e8565b602082019050919050565b6000602082019050818103600083015261234d81612311565b9050919050565b6000604082019050612369600083018561195a565b612376602083018461195a565b9392505050565b7f4e487b7100000000000000000000000000000000000000000000000000000000600052603260045260246000fd5b7f4e487b7100000000000000000000000000000000000000000000000000000000600052601160045260246000fd5b60006123e6826118e4565b91507fffffffffffffffffffffffffffffffffffffffffffffffffffffffffffffffff8203612418576124176123ac565b5b600182019050919050565b600061242e826118e4565b9150612439836118e4565b9250828202612447816118e4565b9150828204841483151761245e5761245d6123ac565b5b5092915050565b7f4e487b7100000000000000000000000000000000000000000000000000000000600052601260045260246000fd5b600061249f826118e4565b91506124aa836118e4565b9250826124ba576124b9612465565b5b828204905092915050565b60006124d0826118e4565b91506124db836118e4565b92508282019050808211156124f3576124f26123ac565b5b92915050565b6000819050919050565b61251461250f826118e4565b6124f9565b82525050565b60008160601b9050919050565b60006125328261251a565b9050919050565b600061254482612527565b9050919050565b61255c612557826118a6565b612539565b82525050565b600061256e8285612503565b60208201915061257e828461254b565b6014820191508190509392505050565b6000612599826118e4565b91506125a4836118e4565b9250826125b4576125b3612465565b5b828206905092915050565b60006080820190506125d46000830187611dea565b6125e1602083018661195a565b6125ee604083018561195a565b6125fb606083018461195a565b95945050505050565b6000604082019050818103600083015261261e8185611faf565b905081810360208301526126328184611faf565b90509392505050565b600081519050919050565b600082825260208201905092915050565b60006126628261263b565b61266c8185612646565b935061267c818560208601611a88565b61268581611ab2565b840191505092915050565b600060a0820190506126a56000830188611dea565b6126b26020830187611dea565b6126bf604083018661195a565b6126cc606083018561195a565b81810360808301526126de8184612657565b90509695505050505050565b6000815190506126f9816119b0565b92915050565b6000602082840312156127155761271461187c565b5b6000612723848285016126ea565b91505092915050565b600060a0820190506127416000830188611dea565b61274e6020830187611dea565b81810360408301526127608186611faf565b905081810360608301526127748185611faf565b905081810360808301526127888184612657565b9050969550505050505056fea26469706673582212202f301342de294e77d3ad1771f0103a930aacd0ed58349b4237a9efe7f861455764736f6c6343000814003368747470733a2f2f697066732e696f2f697066732f62616679626569626978627a64366c786d637267756c736c62627269757134617a636b6370356a6368737337756f3271706d36796b77787767776d2f7b69647d2e6a736f6e",
  "linkReferences": {},
  "deployedLinkReferences": {}
}